:400000000080002011000000510300005103000080B500AF024A034B1B68136000F0CAF9BC760040FA46004008000223000008760800032300001076080004230000287622
:4000400008000523000030760500062300002070050007230000307005000823000060700500FE230000707010000A220000205130000B22000040511000FE220000F0510B
:4000800000020D220000000080000E220000800200020F22000080030002102200000006800111220000000A000412220000000C80011322000000140002142200000016D3
:4000C00000041522000000408000162200000045800017220000004780001822000000498000FE220000004C06001A230000605220001B23000070642000FE23000070655C
:4001000080001D230000000280001E230000000880001F230000800880002023000000188000212300008018800022230000001A800023230000801A1000242300001050BD
:400140001000252300000050800026230000004D800027230000804D800028230000804C800029230000804780002A230000004680002B230000804680002C2300008045C5
:4001800080002D230000004480002E230000804480002F230000001B800030230000801B800031230000801580003223000000198000332300008019800034230000000995
:4001C0008000352300008009800036230000800B80003723000080058000382300000003800039230000804980003A23000000488000FE23000080480100000001000000C8
:40020000010000000048014001000000004800400100000000200140010000000020004010B5054C237833B9044B13B10448AFF300800123237010BD9081FF1F0000000017
:40024000D41C0000084B10B51BB108480849AFF300800848036803B910BD074B002BFBD0BDE81040184700BF00000000D41C00009481FF1F0881FF1F0000000080B500AF9A
:40028000002000F009FE0346044805491A4601F017F9044800F0C4FC80BD00BFCC81FF1FD81C0000E41C000080B500AF00F040FC00F03AFE0B4800F0A9FB00F0F5FB00F09D
:4002C000F9FC00F0D9FD00F015F862B606480749074A01F0F5F8044800F0A2FC642001F07BF8F3E77D020000CC81FF1FEC1C0000C90A000080B582B000AF012001214FF464
:4003000080424FF4804300F04DFB0346FB7100F0C7FF0346BB71BB7918460121FF22002300F0ECFFBB79184644F610614CF2A27201F024F8FA79BB791046194600F042FFE1
:40034000FB791846012100F089FE0837BD4680BD80B500AF01F074F803461B680C2B00D1FEE7FEE780B584B000AF78600F4B1A687B6813441A460E4BD31A802B09DC0B4B22
:400380001B68FB60094B1A687B681344074A136007E001F055F802460C2313604FF0FF33FB60FB6818461037BD4680BD0C81FF1FE081FF1F80B586B000AF224B7B61224B6E
:4003C0003B61204B7B6135E03B691B68FB603B695B68BB603B699B683B6000237B600CE0FB681A68BB681A60BB680433BB60FB680433FB607B6804337B607A683B689A4293
:40040000EED13B69DB683B6000237B6008E0BB6800221A60BB680433BB607B6804337B607A683B689A42F2D13B6910333B617B69013B7B617B69002BC6D101F007F8FFF73D
:4004400033FFFEE7010000007C24000080B582B000AF184B184A1A60184A184B1B6843F40073136000237B600FE07B68032B04D8134A7B6852F8233000E0124B12497A68D9
:4004800041F822307B6801337B607B682F2BECD90E4B1B78DAB20E4B1A700E4B0A4A1A6000F0F6F900F0ACFD0B4B00221A600837BD4680BD0CED00E00004FA0514ED00E095
:4004C00000000000510300000080FF1FBC7600400481FF1F08ED00E00081FF1F80B582B000AF78603960786800213A6800F0DFFF0837BD4680BD00BF80B584B000AFF860DB
:40050000B9607A60F868B9687A6800F0C5FF1037BD4680BD80B483B000AF0346FB71FEE780B483B000AF434B00221A60424B10221A70424B01221A70414B00221A70414BF3
:400540004FF4E8721A80404B01221A703F4B03221A703F4B3F4A92B21A803F4B47F608021A803E4B00221A803D4B4FF480421A803C4B09221A703C4B0C221A703B4B1922CF
:400580001A703B4B1C221A70BFF35F8F394B01221A70BFF35F8F00BF2A4B1B889BB2002BFAD100237B600DE07B68DA00324B13441946324A7B6852F823309BB20B807B6846
:4005C00001337B607B68392BEED9BFF35F8F294B01221A70BFF35F8F00BF294B1B78DBB203F00103002BF8D100BF264B1B78DBB203F00103002BF8D100BF234B1B78DBB2B7
:4006000003F00103002BF8D100BF204B1B78DBB203F00103002BF8D100BF1D4B1B78DBB203F00103002BF8D10C37BD465DF8047B704700BFB081FF1F007600401070004013
:4006400019700040007800400278004003780040047800402800000006780040047600400676004029700040397000406970004079700040147000400C780040F81C0000CC
:40068000187000402870004038700040687000407870004080B582B000AF3E4B00221A803D4B50221A703D4B33221A803C4B18221A703C483C490422FFF71EFF3B4B0222E5
:4006C0001A704FF0402308221A70394B03221A70384B394A1278D2B21A70384B08221A80374B41F251221A800023FB7019237B6013E0FB785B00DAB2324B1B78DBB203F0BE
:400700000103DBB21343DBB203F00303FB70782000F086FE7B68013B7B607B68002B02D0FB78032BE5D17B68002B02D10320FFF7F1FE254B4FF480721A80234B07221A705B
:40074000224B00221A70224B48221A701E4B00221A70204B02221A701F4B04221A701F4A1E4B1B78DBB243F00303DBB213701C4A1B4B1B78DBB243F00103DBB21370194AE6
:40078000184B1B78DBB263F07F03DBB213700837BD4680BD80400040824000408440004086400040004100400C0F00480043004000420040A1460040080100492242004040
:4007C0002042004025420040044000400640004008400040014000400B400040A2430040A1430040A043004080B483B000AF1A4B1B78FB71194AFB7903F00703DBB2137048
:40080000174AFB791B09DBB21370164B20221A70154B09221A70154B40221A70144B40221A70144B40221A70134B80221A70134B20221A70124B80221A70124B40F20312AA
:400840001A80114B20221A70104B44221A700C37BD465DF8047B7047CF0100496E5800406F5800403D5100406C580040CB5A0040CC5A0040D35A0040D45A0040005B004061
:40088000045B0040465B0040585B00407658004080B500AF72B6304B61221A70FFF7FAFE2D4B81221A702D4A2C4B1B78DBB243F00403DBB21370FFF733FE294B0A221A70E7
:4008C00028480421FFF70AFE274A274B1B78DBB243F00203DBB21370244A244B1B78DBB243F00203DBB21370214A214B1B78DBB243F04003DBB213701E4A1E4B1B78DBB267
:4009000043F01003DBB213701B481C490822FFF7F3FD1B481B490A22FFF7EEFD1A481B490822FFF7E9FD1A481A490822FFF7E4FD194A194B1B78DBB243F00803DBB21370EE
:40094000164B01221A70FFF74FFF154808490E22FFF7D2FD80BD00BF00480040E846004083580040507600400350014013500140A0430040C243004002510040E80E0048FE
:40098000C0510040F00E004812510040FC0E004832510040040F00482243004004000840B043004090B585B002AF0446084611461A462346FB710346BB710B46BB801346C0
:4009C0007B80114B0A221A700F4B1878F979BA790023009300230193002300F011FC0A4B1978BA887B88084611461A4600F0ACFB054B1B781846022100F076FB024B1B7862
:400A000018460C37BD4690BD1081FF1F80B582B000AF786000F03CF8786800F009F8072000F018F800F028F80837BD4680BD00BF80B485B000AF7860054B1B68FB60FB683D
:400A4000B0337A681A601437BD465DF8047B704708ED00E080B483B000AF0346FB71054AFB795B01DBB213700C37BD465DF8047B704700BF1CE400E080B400AF034B4FF0AF
:400A800080521A60BD465DF8047B704700E100E080B400AF034B4FF080521A60BD465DF8047B704780E100E080B400AF054A054B1B78DBB243F00103DBB21370BD465DF8CF
:400AC000047B7047004E004080B483B000AF124B1B78DBB203F00303FB71104B1B78DBB2BB71FB79022B02D10D4B1B7804E0FB79032B01D10B4B1B780B4B1B78DBB2002B52
:400B000002D00A4B00221A70BB795BB218460C37BD465DF8047B7047144E0040104E0040114E0040124E0040B981FF1FB881FF1F80B500AF054B1B78002B04D100F008F88D
:400B4000024B01221A7000F023F880BDC081FF1F80B400AF094B72221A70094B20221A70084B06221A70084B47221A70074B00221A70BD465DF8047B704700BF896500409B
:400B80008A65004029640040396400408864004080B582B000AF00F04BFC0346FB71104A0F4B1B78DBB243F02003DBB213700D4A0C4B1B78DBB243F01003DBB213700A4A7C
:400BC000094B1B78DBB243F01003DBB2137000F0FDF9FB79184600F02FFC0837BD4680BD996500409A6500409864004080B483B000AF0346FB7100BF074B1B78DBB203F031
:400C00000403002BF8D1054AFB7913700C37BD465DF8047B704700BF686400404864004080B584B000AF78600023FB810B4B1B78002B10D009E0FB897A6813441B781846D1
:400C4000FFF7D4FFFB890133FB81FB897A6813441B78002BEFD11037BD4680BDC081FF1F80B500AF032000F035F880BD80B400AF0D4A0D4B1B78DBB243F06003DBB213709D
:400C80000A4A0A4B1B78DBB243F00803DBB21370074A074B1B78DBB243F00803DBB21370BD465DF8047B704777580040A4430040B443004080B500AF054B1B78002B04D14A
:400CC000034B01221A70FFF7CBFFFFF7CFFF80BDC281FF1F80B483B000AF0346FB710C4A0B4B1B78DBB223F00303DBB213700849074B1B78DAB2FB7903F00303DBB2134305
:400D0000DBB20B700C37BD465DF8047B704700BF5E580040F8B500AF354A354B1B78DBB243F01003DBB21370324A324B1B78DBB223F00103DBB213702F4B3F221A702F4B35
:400D40003F221A702E4A2F4B11461A464FF48073084611461A4600F09FFB2B4A294B11461A464FF48073084611461A4600F094FB264A274B11461A464FF48073084611464C
:400D80001A4600F089FB234A234B11461A464FF40073084611461A4600F07EFB1F4A204B11461A464FF40073084611461A4600F073FB1C4B1C4A14461E4604F1400E3546BC
:400DC0002346186859689A68DB680FC5103410367445F4D1094B00221A70012000F07CF8002000F08DF8114BF8221A70F8BD00BFA643004080C7004088C700408CC70040C8
:400E000000C40040E01D000000C5004000C600402023000000C00040E01E000000C20040E020000000C70040E022000084C7004080B400AF0D4A0D4B1B78DBB243F01003D7
:400E4000DBB213700A4A0A4B1B78DBB243F01003DBB21370074A074B1B78DBB243F00103DBB21370BD465DF8047B7047A6430040B643004080C7004080B500AF054B1B78FB
:400E8000002B04D1FFF746FF024B01221A70FFF7CFFF80BDC381FF1F80B485B000AF0346FB71FB79002B03D1094B1B78FB7308E0FB79012B03D1074B1B78FB7301E0002352
:400EC000FB73FB7B18461437BD465DF8047B7047AAC70040AEC7004080B483B000AF0346FB71FB7903F01F03FB71044AFB7913700C37BD465DF8047B704700BF98C700403D
:400F000080B483B000AF0346FB71FB7903F00F03FB71044AFB7913700C37BD465DF8047B704700BF9CC7004080B500AF00F042F8044800F00FF8072000F01EF800F02EF8F5
:400F400080BD00BF490F000080B400AFBD465DF8047B704780B485B000AF7860054B1B68FB60FB68B4337A681A601437BD465DF8047B704708ED00E080B483B000AF0346DB
:400F8000FB71054AFB795B01DBB213700C37BD465DF8047B704700BF1DE400E080B400AF034B4FF000521A60BD465DF8047B704700E100E080B400AF034B4FF000521A605E
:400FC000BD465DF8047B704780E100E080B400AF094A094B1B78DBB243F00203DBB21370064A064B1B78DBB243F00203DBB21370BD465DF8047B7047A2430040B24300403F
:4010000080B483B000AF134B7F221A70124B80221A707F23FB710CE0FB79DB0003F1804303F5F043FA79013AD2B21A70FB79013BFB71FB79002BEFD1FB79DB0003F1804320
:4010400003F5F04300221A700C37BD465DF8047B704700BF1581FF1F1481FF1F80B485B000AF03460A46FB711346BB710123FB60FB79172B2FD8BB79002B0ED0FB791A01F8
:40108000184B1344FA791101164A0A441278D2B242F02002D2B21A700DE0FB791A01114B1344FA7911010F4A0A441278D2B222F02002D2B21A70FB791A010A4B1344FA797A
:4010C0001101084A0A441278D2B242F00102D2B21A700023FB60FB6818461437BD465DF8047B70471070004080B485B000AF03460A46FB711346BB710123FB60FB79172B3E
:4011000018D8FB791A010F4B13441B78DBB223F00E03FB72FB791A010A4B1344BA7902F00702D2B25200D1B2FA7A0A43D2B21A700023FB60FB6818461437BD465DF8047BDC
:40114000704700BF1070004080B485B000AF0346FB710B46BB8013467B800123FB60BB8841F6FF72934202D14FF40053BB807B8841F6FF72934202D14FF400537B80FB7951
:40118000172B17D8FB79DB0003F1804303F5EC430433BB60BB68BA881A80FB79DB0003F1804303F5EC430633BB60BB687A881A800023FB60FB6818461437BD465DF8047BDF
:4011C000704700BF80B485B000AF03460A46FB711346BB710123FB60FB79172B07D8FB791A01064B1344BA795A720023FB60FB6818461437BD465DF8047B704710700040B5
:4012000090B484B000AF0446084611461A462346FB710346BB710B467B7113463B710123FB60FB79172B34D8FB79DB0003F1804303F5EC43BA7902F07F02D1B27A79D2014F
:40124000D2B20A43D2B21A70FB79DB0003F1804303F5EC433A7E1201D1B23A7902F00F02D2B20A43D2B25A70FB79DB0003F1804303F5EC433A7F02F00F02D2B29A70FB7954
:40128000DB0003F1804303F5EC430022DA700023FB60FB6818461037BD4690BC704700BF80B582B000AFFF23FB7100F0C1F80346BB71104B1B78182B12D90F4B1B78FB7187
:4012C0000C4B1B78013BDAB20A4B1A70FB79DB0003F1804303F5F0431B78DAB2064B1A70BB79184600F0A8F8FB7918460837BD4680BD00BF1481FF1F1581FF1F90B484B021
:4013000000AF0446084611461A462346FB710346BB800B46BB711346FB700123FB60FB795BB2002B23DBBB8823F47F6323F00F039BB2002B1BD1FB79DB0003F1804303F529
:40134000F043BB60BB68BA881A80FB79DB0003F1804303F5F043BA799A70FB79DB0003F1804303F5F043FA78DA700023FB60FB6818461037BD4690BC704700BF80B485B011
:4013800000AF0346FB710B46BB8013467B800123FB60FB795BB2002B17DBFB79DB0003F1804303F5F0430433BB60BB68BA881A80FB79DB0003F1804303F5F0430633BB60C5
:4013C000BB687A881A800023FB60FB6818461437BD465DF8047B704780B582B000AF786008E00C4B1B68184600F01AF87B68A3F500437B607B68B3F5004FF2D8064B1B68F5
:401400007A6802FB03F3184600F00AF80837BD4680BD00BF2881FF1F2081FF1F000000000230800803D000BF01380046FCD17047EFF3108072B6704780F31088704700BFA2
:40144000014B1868704700BF8C81FF1F0E4B70B51E460E4C0025E41AA410A54204D056F8253098470135F8E700F0F6FF084B094C1E46E41AA4100025A54204D056F8253074
:4014800098470135F8E770BD6424000064240000642400006C24000010B5431E0A44914204D011F8014B03F8014FF8E710BD03460244934202D003F8011BFAE77047000097
:4014C0000EB400B54FF402719CB0ADF814106FF00041049107914FF6FF711DABADF81610084953F8042B02900690086802A9019300F064F8029B00221A701CB05DF804EB4E
:4015000003B070478C81FF1F2DE9F0478E688246B3420C469046994640D38A8912F4906F3AD02568096902236F1A656905EB450595FBF3F57B1C4B449D4238BF1D465305F6
:401540000FD5294600F030FB064698B121693A46FFF7A2FFA38923F4906343F08003A38113E02A4600F076FB064670B95046216900F0D6FA0C23CAF80030A3894FF0FF30E3
:4015800043F04003A381BDE8F08726613E4426604E466561ED1BA560B14500D24E4632462068414600F0A0FAA36800209B1BA36023681E442660BDE8F08700002DE9F04356
:4015C0009DB003938B8906461C060D4690460CD50B6953B9402100F0E7FA2860286110B90C233360CCE040236B610023099320238DF8293030238DF82A3043461C4613F84B
:40160000012B1AB9B4EB08090FD002E0252AF5D1F8E73046294642464B46FFF775FF013000F0A980099B4B4409932378002B00F0A28000234FF0FF320493079305920693F9
:401640008DF853301A9304F101084446DFF8489121784846052200F039FA08F10108049B30B1C9EB00000122824013430493ECE7D80644BF20228DF85320190744BF2B22A6
:401680008DF8532022782A2A02D0079923460EE0039A0134111D12680391002ABBBF524243F0020307920792B8BF04930AE01C4622780133303A092A03D80A2000FB0121E4
:4016C000F5E7079123782E2B1AD163782A2B0AD1039B02341A1D1B680392002BB8BF4FF0FF3305930CE0611C00220C4623780131303B092B03D80A2000FB0232F5E70592CE
:40170000DFF8988021784046032200F0DFF938B1049AC8EB00004023834013430493013421781A48062204F101088DF8281000F0CDF988B1164B33B9039B073323F007031D
:401740000833039313E003AB0093304604A92A46104BAFF3008007E003AB0093304604A92A460C4B00F092F8421C074603D0099B3B44099341E7AB895B0601D4099801E077
:401780004FF0FF301DB0BDE8F08300BF2C240000000000000915000022240000282400002DE9F84391461F468A680B6906469342B8BF1346C9F8003091F843200C46DDF82F
:4017C000208012B10133C9F800302368990642BFD9F800300233C9F80030256815F006051CD094F843302268003318BF012392061FD5E118302081F843005A1C94F84510E7
:401800002244023382F8431013E03046394604F119020123C047013007D00135E368D9F800209B1A9D42F0DBDBE74FF0FF30BDE8F8833046394604F14302C0470130F4D0C9
:401840002268D9F80050E36802F00602042A08BF5D1B2269A3680CBF25EAE57500259342C4BF9B1AED184FF00009A9450ADA3046394604F11A020123C0470130D5D009F1EF
:401880000109F2E70020BDE8F88300002DE9FF410C461746227E98466E2A06460A9B01F1430100F0B08012D8632A23D00AD8002A00F0BD80582A40F0CC8084F84520DFF84A
:4018C00004E257E0642A1ED0692A1CD0C1E0732A00F0B18009D86F2A2ED0702A40F0B980226842F0200222603FE0752A24D0782A3BD0AEE01A6804F14205111D19601368C9
:4019000084F84230A9E020681A6810F0800F02D0101D186008E010F0400F02F10400186002D0B2F9003000E01368002B3EDA2D225B4284F8432039E020681A6810F0800FB2
:4019400002D0101D186007E010F0400F02F10400186001D0138800E01368227EDFF864E16F2A0CBF08220A221CE07822DFF858E184F845202268186812F0800F00F10405F2
:401980001D6003D1550601D5038800E00368D00744BF42F0200222601BB9226822F0200222601022002084F8430002E0DFF814E10A226568002DA8BF2068A560A4BF20F0BF
:4019C0000400206003B965B10D46B3FBF2F002FB10331EF8033005F8013D03460028F4D100E00D46082A0BD12368DA0708D5236962689A42DEBF302305F8013C05F1FF35A4
:401A0000491B21612EE025681A6815F0800F606903D0151D1D60136808E015F0400F02F104051D60136801D0188000E01860002323610D4616E01A68111D196015680021A1
:401A40002846626800F042F808B1401B6060636804E004F1420584F8422001232361002384F84330CDF800803046214603AA3B46FFF796FE013002D14FF0FF301FE03046EC
:401A800039462A462369C0470130F5D023689B0705D4E068039B9842B8BF18460FE00025E368039A9B1A9D42F3DA3046394604F119020123C0470130DED00135F0E704B0E6
:401AC000BDE8F081332400004424000010B5C9B202449042034605D01C7801308C42F8D1184610BD002010BD814210B501EB020301D3421E0BE09842FBD28118D21AD3424E
:401B000004D013F8014D01F8014DF8E710BD994204D011F8014B02F8014FF8E710BD000030B500293CD051F8042C0B1F1D49002AB8BF9B180A680C4612B95A600B6030BD73
:401B400093420DD219685818904201BF5A5852181A60426823605A6030BD994203D80A4651680029F9D1146815199D420AD11B682344D0188842136012D108680344136092
:401B80004B680CE002D90C23036030BD1C681819884201BF08684968001918605960536030BD00BFC881FF1F70B5CC1C24F0030408340C2C38BF0C24002C064603DA0C2375
:401BC0003360002070BD8C42F9D3204A136810461946A1B10A68121B0ED40B2A03D90A608B188C501FE08B420BBF5A684A6802605A6018BF0B4616E00B464968E9E7144D8D
:401C00002B681BB9304600F04BF828603046214600F046F8421C0346D1D0C51C25F0030585420AD11C6003F10B001A1D20F00700821A0AD05142995070BD3046E91A00F0C8
:401C40002FF80130BBD02B46ECE770BDC881FF1FC481FF1FF8B5074615460E4621B91146BDE8F840FFF7A0BF1AB9FFF759FF2846F8BD00F025F8A8420ED238462946FFF73C
:401C800093FF044650B131462A46FFF705FC38463146FFF745FF01E03046F8BD2046F8BD38B5064C0023054608462360FEF75AFB431C02D1236803B12B6038BDD881FF1FE3
:401CC00051F8040C0028BEBF091851F8043CC018043870470000000046696C7465723A202569000068656C6C6F00000046696C7465723A2025690A0018020000100200008B
:401D00000802000000020000F8010000F8010000F8010000F8010000B081FF1FB081FF1FB081FF1FB081FF1FB081FF1FB081FF1FB081FF1FB081FF1FB081FF1FB081FF1F9D
:401D4000B081FF1FB081FF1FB081FF1FB081FF1FB081FF1FB081FF1F0000004888030048A803004808000048880000480801004888010048080200488802004808030048C2
:401D8000C8030048D8030048E803004868040048E804004868050048E805004868060048E806004868070048E807004868080048E808004868090048E8090048680A004872
:401DC000E80A0048680B0048E80B0048680C0048E80C0048680D0048E80D0048680E0048201300256117802601008026E00E8026C20C8026020080066587186D6409183E22
:401E000000008026032080262102187F0000000000000000000000000000000000000000000000000000000000000000000000000000000000000000000000000000000079
:401E40000000000000000000000000000000000000000000000000000000000000000000000000000000000000000000000000000000000000000000000000000000000062
:401E80000000000000000000000000000000000000000000000000000000000000000000000000000000000000000000000000000000000000000000000000000000000022
:401EC00000000000000000000000000000000000000000000000000000000000000000000000000000000000000000000000000000000000000000000000000000000000E2
:401F000000000000000000000000000000000000000000000000000000000000000000000000000000000000000000000000000000000000000000000000000000000000A1
:401F40000000000000000000000000000000000000000000000000000000000000000000000000000000000000000000000000000000000000000000000000000000000061
:401F80000000000000000000000000000000000000000000000000000000000000000000000000000000000000000000000000000000000000000000000000000000000021
:401FC00000000000000000000000000000000000000000000000000000000000000000000000000000000000000000000000000000000000000000000000000000000000E1
:4020000000000000000000000000000000000000000000000000000000000000000000000000000000000000000000000000000000000000000000000000000000000000A0
:402040000000000000000000000000000000000000000000000000000000000000000000000000000000000000000000000000000000000000000000000000000000000060
:402080000000000000000000000000000000000000000000000000000000000000000000000000000000000000000000000000000000000000000000000000000000000020
:4020C0000000000000000000000000000000000000000000000000000000000000000000AD0000009500000000000000E7FEFF00D2FDFF00DFFDFF0000000000D603000038
:40210000170700007206000000000000C3F5FF000DEEFF006CF0FF0000000000E6160000D3260000B52000000000000060D2FF0060B4FF009AC1FF0000000000FD53000045
:4021400021890000A96F000000000000C46CFF004311FF00743EFF000000000067FF0000C4A00100D855010000000000AB27FE00B0DDFC004D46FD0000000000F3B40400DD
:4021800096180A00895F0E00FFFF0F00895F0E0096180A00F3B40400000000004D46FD00B0DDFC00AB27FE0000000000D8550100C4A0010067FF000000000000743EFF0078
:4021C0004311FF00C46CFF0000000000A96F000021890000FD530000000000009AC1FF0060B4FF0060D2FF0000000000B5200000D3260000E6160000000000006CF0FF0088
:402200000DEEFF00C3F5FF00000000007206000017070000D603000000000000DFFDFF00D2FDFF00E7FEFF000000000095000000AD000000000000000000000000000000AF
:40224000000000000000000000000000000000000000000000000000000000000000000000000000000000000000000000000000000000000000000000000000000000005E
:40228000000000000000000000000000000000000000000000000000000000000000000000000000000000000000000000000000000000000000000000000000000000001E
:4022C0000000000000000000000000000000000000000000000000000000000000000000542A00000000000000000000000000000000000000000000000000000000000060
:40230000000000000000000000000000000000000000000000000000000000000000000021F805014210864064F8150181F8050143518E2100000000000000000000000032
:40234000000000000000000000000000000000000000000000000000000000000000000000000000000000000000000000000000000000000000000000000000000000005D
:40238000000000000000000000000000000000000000000000000000000000000000000000000000000000000000000000000000000000000000000000000000000000001D
:4023C00000000000000000000000000000000000000000000000000000000000000000000000000000000000000000000000000000000000000000000000000000000000DD
:4024000000000000000000000000000000000000000000000000000000000000000000004300232D302B2000686C4C00656667454647003031323334353637383941424397
:40244000444546003031323334353637383961626364656600000000F8B500BFF8BC08BC9E467047450200004D040000F8B500BFF8BC08BC9E4670472102000090240000BE
:402480000881FF1F88000000500000000000000000000000E081FF1FFF000000807F00000004000000366E01C05D0000180000000000E02E00000000000000000000000034
:4024C0000000000000000000000000000000000000000000202400000000000000000000000000000000000000000000000000000000000000000000000000000000000098
:4025000000000000000000000000000000000000000000002C81FF1F00000000000000000000000000000000000000000000000000000000000000000000000000000000D0
:40254000000000000000000000000000000000000000000000000000000000000000000000000000000000000000000000000000000000000000000000000000000000005B
:40258000000000000000000000000000000000000000000000000000000000000000000000000000000000000000000000000000000000000000000000000000000000001B
:4025C00000000000000000000000000000000000000000000000000000000000000000000000000000000000000000000000000000000000000000000000000000000000DB
:40260000000000000000000000000000000000000000000000000000000000000000000000000000000000000000000000000000000000000000000000000000000000009A
:020000040003F7
:0200000480007A
:400000000080000040000000000000000000000000000000000000000000000000000000000000000000000000000000000000000000000000000000000000000000000000
:40004000080000000000040000000000000000000000000000000000000000000000000004000000000000010000000000000000000000000000000000000000000000006F
:40008000000000000000000013000400000015000000000013000C000A011400000000000300140000010000000008000004000000020000000000011000000000040F0389
:4000C000008080000000011046010000000CE00B19FFFFFF0000F0440C000000010000000404040411110001000000000000C0000000400200000000000000000000000025
:4001000000000000000000001000AC0010004013000000000C007100DC2C220300000000000003000000000C0931D00E140000080000200000310006E00F00301F0000001E
:400140000008020200000004030000000004000000FF07FF4020F0050800000000000000040404001101000140A8402000000000000000000000000000000000000000009F
:40018000000000000000000000040000010200000006000000010006010000000106000100000000000600010000000000000001000700000100000000070000000001000A
:4001C00000000002000040000000000000000000000000000000000000000000000000000404000010000001000000000000000000000000000000000000000000000000A4
:4002000000000000000000000010006400F3010000F302000080000001000000014200190000020000000000000001000021001A0000000000000000007001030280000C44
:4002400008000000000010405203040001CE000003FFFFFF62A0F0410C000000000002130404040411110001000000000000400200103010001010120000000000000000B3
:4002800000000000000000001C006110000C04001C0462002408000067001801000E6300400000027F0C000210000001080E0000182000006002000C000E1F0100106020A8
:4002C000000008000000004400000000000000000000000000000000000000001800000004040004111000010000000000000000000000000000000000000000000000006C
:4003000000000000000000000F0000000C0003000F0000000300000003000C000C0000000400000008000000000000000200000000000300010000000F0000000000000051
:400340000000022000000000000000000000000000000000000000000000000000000000040400001100000100000000000000000000000000000000000000000000000041
:4003800000000000000000000000000000000000000000000000000000000000000000000F000000000000000000000000000000000000000000000000000000000000002E
:4003C00000723800000000000200000000000000000000000200000002000000000000000000000002000000000000000000000000000000000000000000800000000000CB
:4004000000000000000000000000000000000000000000000000000000000000000000000000000000000000000000000000000000000000000000000000000000000000BC
:4004400000000000000000000000000000000000000000000000000001000000000000000000000000000000010000000000000000000000000080000000000000000000FA
:40048000000000000000000000000000000000000000000000000000000000000008000000000000000000000000000008000000000000000000000000000000000000002C
:4004C00000000000010000000000020000000000000000000800000000000000000000000000000000000000000000000000000000000000000000000000000000000000F1
:4005000000000000000000000000000000080000000000000000000000000000000000000000000000000000000000000000000000000000000000000000000000000000B3
:40054000000000000000000000000000000000000000000000000000000000000000000000000000000000000000000000000000000000000000000000000000000000007B
:400580000000000000000000000000000008000000000000000000000000000000000000000000000000000000000000000000000000000000000000000000000000000033
:4005C00000000000000000000000000000000000000000000000000000000000000000000000000000000000000000000000000000000000000000000000000000000000FB
:4006000000000000000000000000000000000000000000000000000000000000000000000000000000000000000000000008000000000000000000000000000000000000B2
:40064000000000000000000000000000000000000000000000000000000000000000000000000000000000000000000000000000000000000000000000000000000000007A
:400680000000000000000000000000000000000000000000000000002000000000000000000000000000000000000000000000000000000000000000010000000000000019
:4006C00000000000000000000000000000000000010000000000000000000000000000000000000000000000000000000000000000000000000000000000000000000000F9
:400700000000000020000000000000000000000000000000000000000000000000000000000000000000000000000000000000000000000000000000000000000000000099
:400740000000000000000000000000000000000000000000000000000000000000000000000000000000000000000000000000000000000000000000000000000000000079
:400780000000000000000000000000000000000000000000000000000000000000000000000000000000000000000000000000000000000000000000000000000000000039
:4007C00000000000000000000000000000000000000000000000000000000000000000000000000020000000000000000000000000000000000000000000000000000000D9
:4008000000000000000000000000000000000000000000000000000000000000000000000000000000000000000000000000000000000000000000000000000000000000B8
:400840000000000000000100000000000000000000000000000000000000000000000000000000000000000018400040000401440440480040504010400015100448081061
:400880001004010000004002080089000000100400260002000000000000015500000000A0A016000000000000000000000000000000000000000000000000000000000068
:4008C0000000010000000000040040000000000000000000000000000000000000000000000000000000000000008000000048000000000020400200A40808100000400085
:4009000000220940200400010040000000001000000000000000000000000000000000000000000000000000FF00FF00EF00000000000F000F000F000000000000000100BC
:400940000C00000000000000000000000400000000000000100000000000000000000000000000000000000000000000000000000000000000000000000000000000000057
:400980000000000000000000000000000000000000000000000000000000000000000000000000000000000000000000000000000000000000000000000000000000000037
:4009C0000000000000000000000000000000000000000000100000000000000000000000000000000000000010080000000C00000008400800087040000200000000004079
:400A000014000000000001000115040000010040200000000000180000000400000400400056010000004214011808010000000000020048000000000000000000000000AD
:400A40000000010000000000000000000000000000540000000000005000021400000000000000000000000000000000000000000048000000000000000000000000000073
:400A80000020000000000000000000000000000020000004000000000002002000000000000000000000000026003E0088000000000062005200FF000F0008000000010019
:400AC0000000000000000000000000000000000000000000000000000000000000000000000000000000000040084000084100000002040000020008080880000000000184
:400B000040210400004040000006000000008009004942000800002200028002004100000800000000000000000400000000420000080000040000080C0000000004002035
:400B4000000000002002400800000000000000000000000000000000000000000000000000000000000000000000000000000000000000000000000000000000000000000B
:400B800000000000000000000000000000000000000000000000000000000000000000000000000000000000BD005A001E00000000007B0099000200920020000000F00048
:400BC00000000000000000000000000000000000000000000000000000000000000000000000000000000000000000000000000000000000000000000000000000000000F5
:400C000000000000000000000000000000000000000000000000000000000000000000000000000000000000000000000000000000000000000000000000000000000000B4
:400C400000000000000000000000000000000000800000000000000000000000000000000000000000000000000000000000000000000000000000000000000000000000F4
:400C80000000000000000000000000000000000000000000000000000000100000000000000000000000000000000000000000000000000000000000000000000000000024
:400CC00000000000000000000000000000000000000000000000000000000000000000000000000000000000000000000000000000000000000000000000000000000000F4
:400D00000000000000002000000000000000000000000000000000000000000000000000000000000000000000000000000000000000000000000000000000000000000093
:400D40000000000000000000000000000000000000000000000000000000000000000000000000000000000000000000000000000000000000000000000000000000000073
:400D80000000000000000000000000000000000000000000000000000000000000100000000000000000000000000000000000000000000000000000000000000000000023
:400DC00000000000000000000000000000000000000000000000000000000000000000000000000000000000000000000000000000000000000000000000000000000000F3
:400E000000000000000000000000000000100000000000000000000000000000000000000000000000000000000000000000000000000000000000000000000000000000A2
:400E40000000000000000000000000000000000000000000000000000000000000000000000000000000000000000000000000000000000000000000000000000000000072
:400E80000000000000000000000000000000000000000000000000000000000000000000000000000000000000000000000000002000000000000000000000000000000012
:400EC000000000000000000000000000000000000000000000000000000000000000000000000000000000000000000000000400800040808000800000000000000B0B0098
:400F000000000000000000000000A0001E001801000000000000000000000000000000000000000000000000000000000000000000000000000000000000000000000000DA
:400F40000000000000000000000000000000000000000000000000000000000000000000000000000000000000000000000000000000000000000000000000000000000071
:400F80000000000000000000000000000000000000000000000000000000000000000000000000000000000000000000000000000000000000000000000000000000000031
:400FC00000000000000000000000000000000000000000000000000000000000000000000000000000000000000000000000000000000000000000000000000000000000F1
:4010000000000000000000000000000000000000000000000000000000000000000000000000000000000000000000000000000000000000000000000000000000000000B0
:0200000490006A
:0400000000004004B8
:0200000490105A
:04000000BC90ACAF55
:0200000490303A
:02000000A61F39
:0200000490402A
:4000000000000000000000000000000000000000000000000000000000000000000000000000000000000000000000000000000000000000000000000000000000000000C0
:400040000000000000000000000000000000000000000000000000000000000000000000000000000000000000000000000000000000000000000000000000000000000080
:400080000000000000000000000000000000000000000000000000000000000000000000000000000000000000000000000000000000000000000000000000000000000040
:4000C0000000000000000000000000000000000000000000000000000000000000000000000000000000000000000000000000000000000000000000000000000000000000
:0200000490501A
:0C00000000012E16106900012E21B688A8
:00000001FF