:400000000080002011000000892900008929000080B500AF024A034B1B68136002F0E6FCBC760040FA46004010B5054C237833B9044B13B10448AFF300800123237010BDCF
:40004000A081FF1F000000003C6A0000084B10B51BB108480849AFF300800848036803B910BD074B002BFBD0BDE81040184700BF000000003C6A0000A481FF1F0881FF1FC5
:400080000000000080B483B000AF78607B6803F108027B685A607B684FF0FF329A607B6803F108027B68DA607B6803F108027B681A617B6800221A600C37BD465DF8047BB1
:4000C000704700BF80B483B000AF78607B6800221A610C37BD465DF8047B704780B485B000AF786039607B685B68FB603B68FA685A60FB689A683B689A60FB689B683A68F8
:400100005A60FB683A689A603B687A681A617B681B685A1C7B681A601437BD465DF8047B704700BF80B485B000AF786039603B681B68BB60BB68B3F1FF3F03D17B681B692B
:40014000FB600CE07B680833FB6002E0FB685B68FB60FB685B681A68BB689A42F6D9FB685A683B685A603B685B683A689A603B68FA689A60FB683A685A603B687A681A61A4
:400180007B681B685A1C7B681A601437BD465DF8047B704780B485B000AF78607B681B69FB607B685B687A6892689A607B689B687A6852685A60FB685A687B689A4203D10B
:4001C0007B689A68FB685A607B6800221A61FB681B685A1EFB681A60FB681B6818461437BD465DF8047B704780B584B000AF786039607B68FB6001F0D3FBFB681A68FB6857
:40020000DB6BF968096C01FB03F31A44FB685A60FB6800229A63FB681A68FB689A60FB681A68FB68DB6B013BF968096C01FB03F31A44FB68DA60FB68FF2283F84420FB681E
:40024000FF2283F845203B68002B14D1FB681B69002B1AD0FB681033184600F0D9FF0346002B12D00C4B4FF080521A60BFF34F8FBFF36F8F09E0FB6810331846FFF702FFA6
:40028000FB6824331846FFF7FDFE01F0A1FB012318461037BD4680BD04ED00E090B58BB002AFF860B9601346FB71BB68002B02D10023FB6104E0FB68BA6802FB03F3FB610F
:4002C000FB694833184601F0FDFBB861BB69002B0BD0BB6948337B61FC79BB690093F868B9687A69234600F005F8BB6918462437BD4690BD80B584B000AFF860B9607A60A4
:40030000FB70BB68002B03D1BB69BA691A6002E0BB697A681A60BB69FA68DA63BB69BA681A64B8690121FFF75FFF1037BD4680BD80B582B000AF78607B68002B0ED07B68AB
:4003400000225A607B6800221A607B680022DA60786800210022002300F01CF80837BD4680BD00BF80B586B000AF0346FB7101237B6100233B61FB79786939691A46FFF780
:400380008DFFF860F868FFF7D3FFFB6818461837BD4680BD80B58AB000AFF860B9607A603B6000237B62FB683B6201F0F9FA3B6A9A6B3B6ADB6B9A4202D33B68022B29D1E9
:4003C000386AB9683A6800F0CDFAF8613B6A5B6A002B10D03B6A2433184600F019FF0346002B13D0414B4FF080521A60BFF34F8FBFF36F8F0AE0FB69002B07D03B4B4FF0EE
:4004000080521A60BFF34F8FBFF36F8F01F0E0FA012367E07B68002B03D101F0D9FA002360E07B6A002B06D107F11403184600F045FF01237B6201F0CBFA00F021FD01F0B3
:40044000AFFA3B6A93F84430DBB25BB2B3F1FF3F03D13B6A002283F844203B6A93F84530DBB25BB2B3F1FF3F03D13B6A002283F8452001F0ADFA07F114023B1D10461946EA
:4004800000F032FF0346002B24D1386A00F064FB0346002B18D03B6A03F110027B681046194600F09FFE386A00F0EEFA00F0F6FC0346002B15D10D4B4FF080521A60BFF34A
:4004C0004F8FBFF36F8F0CE0386A00F0DDFA00F0E5FC6AE7386A00F0D7FA00F0DFFC002300E062E718462837BD4680BD04ED00E080B58CB000AFF860B9607A603B60FB6846
:40050000BB62EFF311824FF0A00383F31188BFF36F8FBFF34F8FFA61BB61FB697B62BB6A9A6BBB6ADB6B9A4202D33B68022B2CD1BB6A93F8453087F82330B86AB9683A6851
:4005400000F010FA97F92330B3F1FF3F12D1BB6A5B6A002B16D0BB6A2433184600F058FE0346002B0ED07B68002B0BD07B6801221A6007E097F823300133DBB2DAB2BB6AC8
:4005800083F845200123FB6201E00023FB627B6A7B617B6983F31188FB6A18463037BD4680BD00BF80B58AB000AFF860B9607A6000237B62FB683B6201F0F2F93B6A9B6BAC
:4005C000FB61FB69002B1FD0386AB96800F036FAFB695A1E3B6A9A633B6A1B69002B0FD03B6A1033184600F013FE0346002B07D03E4B4FF080521A60BFF34F8FBFF36F8FA7
:4006000001F0E6F901236DE07B68002B03D101F0DFF9002366E07B6A002B06D107F11403184600F04BFE01237B6201F0D1F900F027FC01F0B5F93B6A93F84430DBB25BB22C
:40064000B3F1FF3F03D13B6A002283F844203B6A93F84530DBB25BB2B3F1FF3F03D13B6A002283F8452001F0B3F907F114023B1D1046194600F038FE0346002B24D1386A99
:4006800000F054FA0346002B18D03B6A03F124027B681046194600F0A5FD386A00F0F4F900F0FCFB0346002B1BD1104B4FF080521A60BFF34F8FBFF36F8F12E0386A00F047
:4006C000E3F900F0EBFB77E7386A00F0DDF900F0E5FB386A00F02AFA0346002B01D0002300E069E718462837BD4680BD04ED00E080B58AB000AF7860396000237B627B6824
:40070000FB6100233B6201F04BF9FB699B6BBB61BB69002B24D0BB695A1EFB699A63FB691B68002B04D101F035F80246FB695A60FB691B69002B0FD0FB691033184600F050
:4007400067FD0346002B07D04E4B4FF080521A60BFF34F8FBFF36F8F01F03AF901238CE03B68002B03D101F033F9002385E07B6A002B06D107F10C03184600F09FFD01236F
:400780007B6201F025F900F07BFB01F009F9FB6993F84430DBB25BB2B3F1FF3F03D1FB69002283F84420FB6993F84530DBB25BB2B3F1FF3F03D1FB69002283F8452001F0D1
:4007C00007F907F10C023B461046194600F08CFD0346002B32D1F86900F0A8F90346002B26D0FB691B68002B09D101F0D9F8FB695B68184600F06CFE386201F0E9F8FB6914
:4008000003F124023B681046194600F0EBFCF86900F03AF900F042FB0346002B2CD1194B4FF080521A60BFF34F8FBFF36F8F23E0F86900F029F900F031FB64E7F86900F0F0
:4008400023F900F02BFBF86900F070F90346002B12D03B6A002B0DD001F0A2F8F86900F069F87861FB695B681846796900F018FF01F0AEF8002300E045E718462837BD467F
:4008800080BD00BF04ED00E080B58CB000AFF860B9607A60FB68BB62EFF311824FF0A00383F31188BFF36F8FBFF34F8FBA617B61BB697B62BB6A9B6B3B623B6A002B2DD04D
:4008C000BB6A93F84430FB77B86AB96800F0B6F83B6A5A1EBB6A9A6397F91F30B3F1FF3F12D1BB6A1B69002B15D0BB6A1033184600F08EFC0346002B0DD07B68002B0AD06C
:400900007B6801221A6006E0FB7F0133DBB2DAB2BB6A83F844200123FB6201E00023FB627B6A3B613B6983F31188FB6A18463037BD4680BD80B485B000AF78607B685B6A6E
:40094000002B06D07B681B6B1B68C3F10503FB6001E00023FB60FB6818461437BD465DF8047B704780B586B000AFF860B9607A6000237B61FB689B6B3B61FB681B6C002BFC
:400980000DD1FB681B68002B4FD1FB685B68184600F020FE7861FB6800225A6045E07B68002B1AD1FB689A68FB681B6C1046B9681A4605F0F3FBFB689A68FB681B6C1A44AA
:4009C000FB689A60FB689A68FB685B689A422CD3FB681A68FB689A6027E0FB68DA68FB681B6C1046B9681A4605F0D8FBFB68DA68FB681B6C5B421A44FB68DA60FB68DA68F1
:400A0000FB681B689A4207D2FB685A68FB681B6C5B421A44FB68DA607B68022B05D13B69002B02D03B69013B3B613B695A1CFB689A637B6918461837BD4680BD80B582B0BF
:400A400000AF786039607B681B6C002B19D07B68DA687B681B6C1A447B68DA607B68DA687B685B689A4203D37B681A687B68DA607B68DA687B681B6C386811461A4605F0F4
:400A80008DFB0837BD4680BD80B584B000AF786000F086FF7B6893F84530FB7313E07B685B6A002B0AD07B682433184600F0B0FB0346002B03D000F05DFC00E007E0FB7BD9
:400AC000013BDBB2FB7397F90F30002BE7DC7B68FF2283F8452000F07BFF00F061FF7B6893F84430BB7313E07B681B69002B0ED07B681033184600F08BFB0346002B01D0B2
:400B000000F038FCBB7B013BDBB2BB7300E003E097F90E30002BE7DC7B68FF2283F8442000F056FF1037BD4680BD00BF80B584B000AF786000F034FF7B689B6B002B02D17D
:400B40000123FB6001E00023FB6000F041FFFB6818461037BD4680BD80B584B000AF786000F01EFF7B689A6B7B68DB6B9A4202D10123FB6001E00023FB6000F029FFFB6809
:400B800018461037BD4680BD80B58CB004AFF860B9603B601346FB80FB889B00184600F091FF78617B69002B0ED0502000F08AFFF861FB69002B03D0FB697A691A6305E03D
:400BC000786901F011F801E00023FB61FB69002B13D0FA88BB6A0093FB6A0193FB69029300230393F868B9683B6800F00FF8F86900F082F80123BB6102E04FF0FF33BB61CE
:400C0000BB6918462037BD4680BD00BF80B586B000AFF860B9607A603B60BB6A1A6B7B689B001046A5211A4605F0C3FABB6A1A6B7B6803F18043013B9B0013443B613B69D4
:400C400023F007033B6100237B6113E0BA687B6913441978BA6A7B69134430330A461A71BA687B6913441B78002B00D105E07B6901337B617B690B2BE8D9BB6A002283F8DC
:400C80003F203B6A042B01D904233B62BB6A3A6ADA62BB6A3A6A1A64BB6A00225A64BB6A04331846FFF70EFABB6A18331846FFF709FABB6ABA6A1A613B6AC3F10502BB6A4A
:400CC0009A61BB6ABA6A5A62BB6A00229A64BB6A002283F84C203869F9683A6800F0D2FD0246BB6A1A607B6A002B02D07B6ABA6A1A601837BD4680BD80B582B000AF786055
:400D000000F04EFE2B4B1B6801332A4A13602A4B1B68002B09D1284A7B681360254B1B68012B10D100F03AFB0DE0244B1B68002B09D1214B1B68DA6A7B68DB6A9A4202D884
:400D40001D4A7B6813601E4B1B6801331C4A13607B68DB6A1A46012303FA02F2194B1B681343184A13607B68DA6A13469B0013449B00154A1A447B68043310461946FFF77F
:400D8000ADF900F025FE0D4B1B68002B0ED00A4B1B68DA6A7B68DB6A9A4207D20B4B4FF080521A60BFF34F8FBFF36F8F0837BD4680BD00BF6C82FF1FBC81FF1F7882FF1FBF
:400DC0008882FF1F7482FF1FC081FF1F04ED00E080B584B000AF78600023FB607B68002B08D000F04DF87868002100F0E7FC00F055F8F860FB68002B07D1054B4FF08052CE
:400E00001A60BFF34F8FBFF36F8F1037BD4680BD04ED00E080B584B002AF00230093124B01931248124964220023FFF7ADFE78607B68012B14D14FF0A00383F31188BFF371
:400E40006F8FBFF34F8F3B600A4B4FF0FF321A60094B01221A60094B00221A6000F080FD0837BD4680BD00BF9082FF1F8D130000406A00008C82FF1F7882FF1F7082FF1FB0
:400E800080B400AF044B1B680133034A1360BD465DF8047B704700BF9482FF1F80B584B000AF0023FB600023BB6000F079FD3A4B1B68013B384A1360374B1B68002B63D131
:400EC000364B1B68002B5FD030E0354BDB68DB68FB60FB6818331846FFF75CF9FB6804331846FFF757F9FB68DB6A1A46012303FA02F22C4B1B6813432A4A1360FB68DA6A93
:400F000013469B0013449B00274A1A44FB68043310461946FFF7E2F8FB68DA6A234B1B68DB6A9A4202D3224B01221A601C4B1B68002BCAD1FB68002B01D000F0A9FA1D4B3B
:400F40001B687B607B68002B10D000F037F80346002B02D0164B01221A607B68013B7B607B68002BF1D1134B00221A60104B1B68002B09D00123BB600F4B4FF080521A60F8
:400F8000BFF34F8FBFF36F8F00F022FDBB6818461037BD4680BD00BF9482FF1F6C82FF1F2C82FF1F7482FF1FC081FF1FBC81FF1F8082FF1F7C82FF1F04ED00E080B586B0C9
:400FC00000AF00237B61474B1B68002B79D1464B1B6801333B61444A3B6913603B69002B10D1424B1B68FB60414B1B683F4A13603F4AFB6813603F4B1B6801333D4A136070
:4010000000F046FA3C4B1B683A699A424AD3374B1B681B68002B04D1374B4FF0FF321A6040E0324B1B68DB68DB68BB60BB685B687B603A697B689A4203D22F4A7B6813605E
:4010400030E0BB6804331846FFF7A4F8BB689B6A002B04D0BB6818331846FFF79BF8BB68DB6A1A46012303FA02F2244B1B681343224A1360BB68DA6A13469B0013449B0049
:401080001F4A1A44BB68043310461946FFF726F8BB68DA6A1B4B1B68DB6A9A4201D301237B61B4E7174B1B68DA6A154913469B0013449B000B441B68012B01D901237B6121
:4010C00004E0114B1B6801330F4A13600F4B1B68002B01D001237B617B6918461837BD4680BD00BF9482FF1F7082FF1F2482FF1F2882FF1F8482FF1F8C82FF1F7482FF1F90
:40110000C081FF1FBC81FF1F7C82FF1F8082FF1F80B586B000AF2E4B1B68002B03D02D4B01221A6051E02B4B00221A602A4B1B681B6B7B614FF0A5333B617B691A683B6936
:401140009A4211D17B6904331A683B699A420BD17B6908331A683B699A4205D17B690C331A683B699A4208D01B4B1A681A4B1B6834331046194600F0FFFF184B1B687B6029
:401180007B68B3FA83F3FB70FB78C3F11F03FB60FA6813469B0013449B00114A1344BB60BB685B685A68BB685A60BB685A68BB6808339A4204D1BB685B685A68BB685A6007
:4011C000BB685B68DB68044A13601837BD4680BD9482FF1F8082FF1FBC81FF1F7482FF1FC081FF1F80B582B000AF78603960074B1B68183378681946FEF794FF3868012124
:4012000000F0DCFA0837BD4680BD00BFBC81FF1F80B584B000AF78607B68DB68DB68BB60BB6818331846FEF7B5FF1E4B1B68002B1ED1BB6804331846FEF7ACFFBB68DB6AA0
:401240001A46012303FA02F2174B1B681343164A1360BB68DA6A13469B0013449B00134A1A44BB68043310461946FEF737FF05E0BB6818330E481946FEF730FFBB68DA6A16
:401280000C4B1B68DB6A9A4205D90123FB600A4B01221A6001E00023FB60FB6818461037BD4680BD9482FF1F7482FF1FC081FF1F2C82FF1FBC81FF1F8082FF1F80B483B0E8
:4012C00000AF7860064B1A687B681A60054B1A687B685A600C37BD465DF8047B704700BF8482FF1F7082FF1F80B586B000AF7860396000F055FB1D4B1B683B617B685B680C
:401300003A69D31AFB603B681B68B3F1FF3F02D100237B6123E07B681A68154B1B689A4207D07B685A683B699A4202D801237B6115E03B681A68FB689A420BD93B681A6889
:40134000FB68D21A3B681A607868FFF7B7FF00237B6104E03B6800221A6001237B6100F037FB7B6918461837BD4680BD7082FF1F8482FF1F80B400AF034B01221A60BD465B
:401380005DF8047B704700BF8082FF1F80B582B000AF786000F040F8FCE700BF80B582B000AF00237B600CE07A6813469B0013449B00114A13441846FEF764FE7B680133C5
:4013C0007B607B68042BEFD90C48FEF75BFE0C48FEF758FE0B48FEF755FE0B48FEF752FE0A48FEF74FFE0A4B044A1A60094B044A1A600837BD4680BDC081FF1F9882FF1FE1
:40140000AC82FF1F2C82FF1F4082FF1F5882FF1F2482FF1F2882FF1F80B582B000AF19E000F0BEFA0F4BDB68DB687B607B6804331846FEF7AFFE0C4B1B68013B0A4A1360C7
:401440000A4B1B68013B094A136000F0C1FA786800F00EF8054B1B68002BE1D10837BD4680BD00BF4082FF1F6C82FF1F5482FF1F80B582B000AF78607B681B6B184600F09E
:40148000B3FB786800F0B0FB0837BD4680BD00BF80B483B000AF0C4B1B681B68002B04D10A4B4FF0FF321A6008E0074B1B68DB68DB687B607B685B68044A13600C37BD4648
:4014C0005DF8047B704700BF2482FF1F8C82FF1F80B584B000AF78607B68BB600023FB607B68002B6BD0BB68DA6A374B1B68DB6A9A425BD2BB689B69002B06DB324B1B6810
:40150000DB6AC3F10502BB689A61BB685969BB68DA6A13469B0013449B002C4A134499423CD1BB6804331846FEF734FE0346002B15D1BB68DA6A254913469B0013449B00B2
:401540000B441B68002B0AD1BB68DB6A1A4601239340DA431E4B1B6813401D4A13601A4B1B68DA6ABB68DA62BB68DB6A1A46012303FA02F2164B1B681343154A1360BB6807
:40158000DA6A13469B0013449B00104A1A44BB68043310461946FEF7A1FD04E00A4B1B68DA6ABB68DA620123FB6008E0BB681A6C054B1B68DB6A9A4201D20123FB60FB688F
:4015C00018461037BD4680BDBC81FF1FC081FF1F7482FF1F80B584B000AF78607B68BB600023FB607B68002B51D0BB685B6C5A1EBB685A64BB68DA6ABB681B6C9A4246D057
:40160000BB685B6C002B42D1BB6804331846FEF7C1FD0346002B15D1BB68DA6A1E4913469B0013449B000B441B68002B0AD1BB68DB6A1A4601239340DA43184B1B6813401C
:40164000164A1360BB681A6CBB68DA62BB68DB6AC3F10502BB689A61BB68DB6A1A46012303FA02F20D4B1B6813430C4A1360BB68DA6A13469B0013449B00074A1A44BB6858
:40168000043310461946FEF729FD0123FB60FB6818461037BD4680BDC081FF1F7482FF1F80B586B000AF786039607B683B610123FB607B68002B65D03B691A6C3B689A4274
:4016C00002D23B687B6102E03B691B6C7B613B69DA6A7B699A4255D03B695A6CFB689A4250D13B69DB6ABB603B697A69DA623B699B69002B04DB7B69C3F105023B699A6160
:401700003B695969BA6813469B0013449B001F4A1344994236D13B6904331846FEF73AFD0346002B15D13B69DA6A184913469B0013449B000B441B68002B0AD13B69DB6AEA
:401740001A4601239340DA43114B1B681340104A13603B69DB6A1A46012303FA02F20C4B1B6813430A4A13603B69DA6A13469B0013449B00054A1A443B6904331046194696
:40178000FEF7ACFC1837BD4680BD00BFC081FF1F7482FF1F80B400AF074B1B68002B04D0054B1B685A6C01325A64034B1B681846BD465DF8047B7047BC81FF1F80B584B009
:4017C00000AF78603960284B1B68FB60274B1B6804331846FEF7DEFC0346002B0BD1234B1B68DB6A1A4601239340DA43204B1B6813401F4A13607B68B3F1FF3F0AD13B68C5
:40180000002B07D0194B1B6804331A481946FEF765FC26E0FA687B681344BB60134B1B68BA685A60BA68FB689A4209D2124B1A680E4B1B68043310461946FEF773FC10E0C0
:401840000E4B1A68094B1B68043310461946FEF769FC0B4B1B68BA689A4202D2084ABB6813601037BD4680BD7082FF1FBC81FF1F7482FF1F5882FF1F2882FF1F2482FF1F53
:401880008C82FF1F80B485B000AFF860B9607A60FB68043BFB60FB684FF080721A60FB68043BFB60BB6823F00102FB681A60FB68043BFB60094AFB681A60FB68143BFB6041
:4018C0007A68FB681A60FB68203BFB60FB6818461437BD465DF8047B704700BFE118000080B483B000AF00233B604FF0A00383F31188BFF36F8FBFF34F8F7B6000BF3B687C
:40190000002BFCD00C37BD465DF8047B704700BF074B19680868B0E8F00F80F30988BFF36F8F4FF0000080F311884EF00D0E7047BC81FF1FAFF30080AFF30080AFF3008076
:4019400006480068006880F3088862B661B6BFF34F8FBFF36F8F00DF00BF000008ED00E080B500AF0C4A0C4B1B6843F460031360094A094B1B6843F06043136000F088F860
:40198000064B00221A60FFF7DBFFFFF7C1FBFFF7A7FF0023184680BD20ED00E00C81FF1F80B483B000AF4FF0A00383F31188BFF36F8FBFF34F8F7B60044B1B680133034A51
:4019C00013600C37BD465DF8047B70470C81FF1F80B483B000AF094B1B68013B074A1360064B1B68002B04D100237B607B6883F311880C37BD465DF8047B70470C81FF1FCB
:401A0000EFF30980BFF36F8F0D4B1A6820E9F00F10602DE908404FF0A00080F31188FFF777FB4FF0000080F31188BDE8084019680868B0E8F00F80F30988BFF36F8F70475D
:401A4000BC81FF1FAFF30080AFF30080AFF3008080B582B000AF4FF0A00383F31188BFF36F8FBFF34F8F7B60FFF7A8FA0346002B03D0064B4FF080521A6000233B603B6867
:401A800083F311880837BD4680BD00BF04ED00E080B400AF084B00221A60084B00221A60074B4BF67F321A60034B07221A60BD465DF8047B704700BF10E000E018E000E0A3
:401AC00014E000E080B588B000AF786000237B61FFF7D6F9404B1B68002B04D100F0BCF83D4B01221A607B68002B0ED008231A467B6813447B607B6803F00703002B04D018
:401B00007B6823F0070308337B607B68002B57D07B6847F6F772934252D8304BBB612F4B1B68FB6104E0FB69BB61FB691B68FB61FB695A687B689A4203D2FB691B68002B6F
:401B4000F1D1FB69264A93423AD0BB691B68082213447B61FB691A68BB691A60FB695A687B68D31A08225200934222D9FA697B681344FB60FB695A687B68D21AFB685A601C
:401B8000FB697A685A60FB685B68BB60134B3B6102E03B691B683B613B691B685A68BB689A42F6D33B691A68FB681A603B69FA681A600C4B1A68FB695B68D31A094A13605E
:401BC000FFF76CF97B69002B01D100F0E5FA7B6918462037BD4680BDD0020020C0020020C80200201081FF1F80B586B000AF78607B683B617B68002B27D008235B423A69B3
:401C000013443B613B69FB60FFF73AF9FB685B68BB600F4B7B6102E07B691B687B617B691B685A68BB689A42F6D37B691A68FB681A607B69FA681A60FB685A68054B1B6801
:401C40001344044A1360FFF729F91837BD4680BDC00200201081FF1F80B483B000AF0F4B23F007037B600E4A7B6813600C4B00225A600C4B47F6F8725A600A4B00221A6022
:401C80007B683B603B6847F6F8725A603B68054A1A600C37BD465DF8047B7047C882FF1FC0020020C8020020B0B5C2B002AF264B1B68B3F1FF3F45D000F022FA00F056F874
:401CC0003B46224A1C4615460FCD0FC42B6823801F4B1A683B4610461946402200F0A4FA3B461C4A1C4615460FCD0FC42B681A46228002341B0C2370154B1A683B461046B2
:401D00001946402200F090FA0120FEF72BFB0246114B1A6002230093002301930F4810494FF480620023FEF72FFF01230093002301930C480C494FF480620023FEF724FF0D
:401D4000FFF768F8FEE700BF1481FF1F486A0000D40200205C6A0000D802002019200000706A0000191E0000846A000090B5C3B000AF02F057FF02F06DFF03F061FB03F0C7
:401D8000E1FB02F0A1FC02F06BFD012001214FF480424FF4804303F06DFA034687F8073101F0A0FC034687F8043197F8043118460821FE22002301F0C3FC97F804311846CC
:401DC00044F610614CF2A07201F0FAFC97F8043197F807211046194601F016FC97F807311846012101F05CFB3B1D094A1C4613460FCB84E80F00074B1A683B1D10461946A3
:401E0000402200F011FA07F58677BD4690BD00BFA86A0000D402002080B5CAB002AF3B1D18603B1D00221A600023C7F81C310023C7F81831002387F817316D4B1B68184634
:401E40006C494FF6FF7200F017FA0346012B40F0CE80684B1B7887F81731674B1B6818464CF25031FEF744FC0346002B00F0BF8097F91731312B45D10023C7F81C3115E05E
:401E80005B4B1B6818465B494FF6FF7200F0F4F9584B1B78D9B2594AD7F81C3113440A461A70D7F81C310133C7F81C31D7F81C31072BE5DD07F11403184651494F4A04F0B3
:401EC000B3F94B4B1A6807F1140310461946402200F0AAF94B484C49484A00F08FFC494B9A69494B9B6907F114010846474904F09BF93F4B1A6807F114031046194640225C
:401F000000F092F997F91731322B01D101F092FC97F91731332B46D10023C7F81C3115E0334B1B68184633494FF6FF7200F0A4F9304B1B78D9B2314AD7F81C3113440A463A
:401F40001A70D7F81C310133C7F81C31D7F81C31072BE5DD07F1140318462949274A04F063F9234B1A6807F1140310461946402200F05AF92648214900F09AFC244BD3E9E9
:401F8000022307F11401CDE9002308464021214A04F018F9164B1A6807F1140310461946402200F041F90023C7F81C310AE0134AD7F81C31134420221A70D7F81C310133BF
:401FC000C7F81C31D7F81C31402BF0DD0023C7F818310023C7F81C31002387F81731064B1B681846002100220023FEF7D3F924E7D402002070030020D802002074030020BF
:40200000B86A0000B403002030030020CC6A000058030020E86A000080B5C2B000AF3B1D18603B1D00221A602C4800F0C3FB2C4800F0C0FB2B494FF000022B4BC1E90223FC
:4020400028494FF000024FF00003C1E9002325494FF00002254BC1E90423254B1B6818464CF25031FEF744FB0346002B31D01B481B4900F043FA194B5B6807F10802104683
:402080001C491A4604F0D0F814481549154A00F097FA1248124900F079FB002003F0E0F903461A4607F108031846134904F0BCF8124B1A6807F1080310461946402200F009
:4020C000B3F80B4B1B681846002100220023FEF761F90A20FEF77CFEBFE700BFB403002030030020580300200000444000003440D8020020F86A0000106B0000D4020020E1
:4021000080B500AF174B184ADA62164B174A9A63144B174ADA6301F0F9FB01F01BFD01F023FF01F0C1FC01F071FE01F04DFE002001F0ACFE01F066FF01F042FF002001F060
:40214000A1FF00F021FF4FF46140402100F032F802F0E8F9074B1B68002B02D0012002F053FA80BD0080FF1F11190000011A0000511A00001481FF1F80B485B000AF78601D
:4021800039604FF0A00383F31188BFF36F8FBFF34F8FFB60FEE700BF80B483B000AF4FF0A00383F31188BFF36F8FBFF34F8F7B60FEE700BF80B582B000AF78603960386869
:4021C00001210022FEF76AF80246134B1A6001F013F9124801F0C2F8386801210022FEF75DF802460E4B1A6001F0ACF80D4801F05BF8002000F0B6FF094B1B68002B05D00F
:40220000054B1B68002B01D0012300E0002318460837BD4680BD00BFE402002005230000E00200209923000080B586B000AFF860B9601346FB800023FB820023FB8214E08D
:40224000FB8ABA6813441B78002B00D111E0FB8ABA6813441B785BB2002019464FF0FF3200F026F8FB8A0133FB82FA8AFB889A42E6D31837BD4680BD80B586B000AFF86072
:40228000B9607A6000237B61084B1B681846B9687A68FEF787F90346012B01D101237B617B6918461837BD4680BD00BFE402002080B586B000AFF8600B467A60FB72002376
:4022C0007B610F4B1A6807F10B03104619467A680023FEF75FF80346012B02D101237B6101E000237B61FFF75BFB032000F03AFFFFF76EFB7B6918461837BD4680BD00BF6B
:40230000E002002080B586B000AF00237B600023FB700023BB7000237B6100F0A5FE0346FB70FB78DBB203F02003002B21D000F0BBFE0346DBB2BB70EFF311824FF0A0032E
:4023400083F31188BFF36F8FBFF34F8F3A61FB603B697B610E4B1968BA1C3B1D084611461A460023FEF7C4F87B69BB60BB6883F311887B68002B07D0064B4FF080521A60C5
:40238000BFF34F8FBFF36F8F1837BD4680BD00BFE402002004ED00E080B586B000AF00237B600023FB700023BB7000237B6100F0E9FE0346FB70FB78DBB203F00103002B18
:4023C00005D1FB78DBB203F00203002B2AD0EFF311824FF0A00383F31188BFF36F8FBFF34F8F3A61FB603B697B61154B1968BA1C3B1D084611461A46FEF746FA0346012B10
:4024000008D1BB78DBB2184600F0C8FE012000F0A9FE02E0002000F0A5FE7B69BB60BB6883F311887B68002B07D0064B4FF080521A60BFF34F8FBFF36F8F1837BD4680BDE1
:40244000E002002004ED00E080B582B000AF03463960FB71FB79722B24D1012001F084FC3B68002BB8BF5B429BB2184601F008FC3B68002B06DD002001F03AFC012001F001
:4024800055FC0FE03B68002B06DA012001F030FC002001F04BFC05E0002001F029FC002001F044FCFB796C2B24D1012001F05CFC3B68002BB8BF5B429BB2184601F0BCFA8E
:4024C0003B68002B06DD002001F008FB012001F023FB0FE03B68002B06DA012001F0FEFA002001F019FB05E0002001F0F7FA002001F012FB0837BD4680BD00BF90B583B060
:4025000000AF786039607B685A687B689B691A447B685A603B685A683B689B691A443B685A607B68DA697B681A6202F04FF80246224BA3FB02231B0AC3F5AE2303F5C3632B
:402540007A68D3613B68DA693B681A6202F03EF802461A4BA3FB02231B0AC3F5AE2303F5C3633A68D3617B68DA687B689A603B68DA683B689A607B685C6801F063FC034642
:402580009B01E2187B68DA603B685C6801F056FD03469B01E2183B68DA607B681A697B68DB681A447B681A613B681A693B68DB681A443B681A610C37BD4690BDF119760519
:4025C0002DE9B04386B000AFF860B9607A607B68D3E90245FB68DB68184603F013FB02460B462046294603F073FB02460B46904699467B68D3E90045FB681B69184603F07E
:4026000001FB02460B462046294603F061FB02460B464046494603F0A9F902460B46904699467B68D3E90445FB68DA68FB689B68D31A184603F0E6FA02460B4620462946D1
:4026400003F046FB02460B4614461D46FB68DA69FB681B6AD31A184603F0C4FA02460B462046294603F034FB02460B464046494603F07CF902460B461046194603F03AFD28
:4026800003467B617B6913F5803F02DC3E4B7B6106E07B69B3F5803F02DB4FF6FF737B61FB687A695A617B68D3E90245BB68DB68184603F0A7FA02460B462046294603F0C6
:4026C00007FB02460B46904699467B68D3E90045BB681B69184603F095FA02460B462046294603F0F5FA02460B464046494603F03DF902460B46904699467B68D3E90445C2
:40270000BB68DA68BB689B68D31A184603F07AFA02460B462046294603F0DAFA02460B4614461D46BB68DA69BB681B6AD31A184603F058FA02460B462046294603F0C8FA10
:4027400002460B464046494603F010F902460B461046194603F0CEFC03467B617B6913F5803F02DC084B7B6106E07B69B3F5803F02DB4FF6FF737B61BB687A695A61183716
:40278000BD46BDE8B08300BF0100FFFF80B582B000AF786039607B685B696C201946FFF753FE3B685B6972201946FFF74DFE0837BD4680BD80B483B000AF78607B68002215
:4027C0005A607B680022DA607B6800229A607B6800221A617B6800229A617B6800225A617B6800221A607B6800221A627B680022DA610C37BD465DF8047B704780B48DB01F
:4028000000AFF860B9607A607B681B78303BFB627B6801331B78303BBB627B6802331B78303B7B627B6803331B78303B3B627B6804331B78303BFB617B6805331B78303BFA
:40284000BB617B6806331B78303B7B617B6807331B78303B3B61FB6A4FF47A7202FB03F2BB6A642101FB03F3D1187A6A13469B0013445B00CA183B6A1A44FB689A61FB6953
:402880004FF47A7202FB03F2BB69642101FB03F3D1187A6913469B0013445B00CA183B691A44BB689A613437BD465DF8047B704780B58AB000AF786039603B681B78303BBF
:4028C0007B623B6801331B78303B3B623B6802331B78303BFB613B6803331B78303BBB613B6804331B78303B7B613B6805331B78303B3B613B6806331B78303BFB603B6863
:4029000007331B78303BBB607B6A1E4A02FB03F23B6A42F2107101FB03F31A44FB694FF47A7101FB03F31A44BB69642101FB03F3D1187A6913469B0013445B00CA183B69E6
:402940001A4413469B0013445B0083F00103DB43184603F057F902460B467968C1E9022379684FF000024FF00003C1E9042379684FF000024FF00003C1E900232837BD460C
:4029800080BD00BFA086010080B500AF03F0DAFB03461B680C2B00D1FEE7FEE780B584B000AF78600F4B1A687B6813441A460E4BD31A002B09DC0B4B1B68FB60094B1A68E4
:4029C0007B681344074A136007E003F0BBFB02460C2313604FF0FF33FB60FB6818461037BD4680BD1881FF1FE807002080B586B000AF224B7B61224B3B61204B7B6135E0BD
:402A00003B691B68FB603B695B68BB603B699B683B6000237B600CE0FB681A68BB681A60BB680433BB60FB680433FB607B6804337B607A683B689A42EED13B69DB683B60E3
:402A400000237B6008E0BB6800221A60BB680433BB607B6804337B607A683B689A42F2D13B6910333B617B69013B7B617B69002BC6D103F06DFBFFF717F9FEE701000000B7
:402A80001C72000080B582B000AF184B184A1A60184A184B1B6843F40073136000237B600FE07B68032B04D8134A7B6852F8233000E0124B12497A6841F822307B680133FB
:402AC0007B607B682F2BECD90E4B1B78DAB20E4B1A700E4B0A4A1A6000F096F900F0B2FC0B4B00221A600837BD4680BD0CED00E00004FA0514ED00E000000000892900007A
:402B00000080FF1FBC7600400481FF1F08ED00E00081FF1F80B582B000AF78603960786800213A6803F045FB0837BD4680BD00BF80B584B000AFF860B9607A60F868B968EF
:402B40007A6803F02BFB1037BD4680BD80B483B000AF0346FB71FEE780B487B000AF7860396000233B6100237B6127E07B699B007A6813441B68BB60BB68FB73BB6823F0B6
:402B8000FF03BB6014E03B695B003A6813441B781A46BB68134419463B695B003A6813445B780B703B6901333B61FB7B013BFB73FB7B002BE7D17B6901337B617B69272BE3
:402BC000D4D91C37BD465DF8047B704780B582B000AF454B00221A80444B50221A70444B03221A80434B18221A70434B03221A80424B18221A70424B67221A80414B1822A6
:402C00001A70414841490422FFF792FF404B02221A704FF0402308221A703E4B03221A703D4B3E4A1278D2B21A703D4B10221A803C4B41F251221A800023FB7019237B601B
:402C400014E0FB785B00DAB2374B1B78DBB203F00103DBB21343DBB203F00303FB704FF4F07002F06DFE7B68013B7B607B68002B02D0FB78032BE4D17B68002B02D1032065
:402C8000FFF764FF294B4FF480721A80274B07221A70274B00221A70264B48221A70234B00221A70244B02221A70244B04221A70234A234B1B78DBB243F00F03DBB213702A
:402CC000204A204B1B78DBB243F00103DBB213701D4A1D4B1B78DBB263F07F03DBB213700837BD4680BD00BF80400040824000408440004086400040884000408A40004068
:402D00008C4000408E40004000410040400E00480043004000420040A146004008010049224200402042004025420040044000400640004008400040014000400B40004059
:402D4000A2430040A1430040A043004080B483B000AF1D4B1B78FB711C4AFB7903F00703DBB213701A4AFB791B09DBB21370194BA0221A70184B0C221A70184B80221A701D
:402D8000174B04221A70174B10221A70164B20221A70164B80221A70154B10221A70154B80221A70144B25221A70144B80221A70134B01221A70134B44221A700C37BD4627
:402DC0005DF8047B704700BFCF0100496E5800406F5800403D5100406C580040245A0040275A0040285A0040305A0040345A0040005B0040045B0040465B0040585B0040AA
:402E00005A5B00407658004080B582B000AF72B6444A444B1B78DBB243F00403DBB213700023FB7113E0FA7913465B0013445B003D4A13443B603B681A683B689B889BB2BE
:402E400010461946FFF766FEFB790133FB71FB79062BE8D94FF090403449FFF77DFE344B0A221A7033480421FFF754FE324A324B1B78DBB243F00203DBB213702F4A2F4B5B
:402E80001B78DBB243F00203DBB213702C4A2C4B1B78DBB243F04003DBB21370294A294B1B78DBB243F01003DBB21370264827490822FFF73DFE264826490822FFF738FE4E
:402EC000254826490822FFF733FE254825490822FFF72EFE244825490822FFF729FE244B84221A70234B44221A70234A224B1B78DBB243F00803DBB21370204B61221A70A0
:402F0000FFF764FE1D4BC1221A701D4B01221A70FFF71CFF1B480A490E22FFF709FE0837BD4680BDE8460040246B0000A0000048835800405076004003500140135001409E
:402F4000A0430040C243004002510040180E0048C2510040200E0048F2510040280E004812510040300E004832510040380E0048DB0C0140DB16014022430040004800401D
:402F800004000840B043004080B500AF054B1B78002B04D100F008F8024B01221A7000F02FF880BDE802002080B500AF02200D4900F062FC0220072100F086FC0A4B0022A6
:402FC0001A700A4B72221A70094B20221A70094B06221A70084B47221A70084B03221A7080BD00BFD1310000E90200208B6400408A6400402864004038640040896400402B
:4030000080B582B000AF02F0A3FC0346FB71124A114B1B78DBB243F02003DBB213700F4A0E4B1B78DBB243F01003DBB213700C4B04221A600B4A0B4B1B78DBB243F01003C6
:40304000DBB2137000F0E4F9FB79184602F084FC0837BD4680BD00BF9B6400409A64004000E100E09964004080B483B000AF0C4B1B78DBB203F07F03FB710A4B1B78DBB293
:40308000002B06D0FB7963F07F03FB71054B00221A70FB7918460C37BD465DF8047B70476A640040EF02002080B483B000AF0023FB71244B04221A60234B1B88BB80234B2E
:4030C0001B887B80224B1B78DBB2002B03D1BA887B889A4219D0BB881E4AD35CFB71BB880133BB80BB88B3F5806F01D30023BB80154ABB881380164B1B78DBB2002B03D0E4
:40310000134B00221A7012E011E0134B1B787B707B7803F02003002B09D0104B1B78FB717B7803F01E03002B01D00023FB710C4B04221A60FB7918460C37BD465DF8047BEA
:40314000704700BF80E100E0EA020020EC020020EE020020D80300206A6400404B65004000E100E080B483B000AF0346FB71044AFB7913700C37BD465DF8047B704700BF14
:403180008964004080B400AF034B1B78DBB21846BD465DF8047B70476964004080B483B000AF0346FB7100BF074B1B78DBB203F00403002BF8D1054AFB7913700C37BD4622
:4031C0005DF8047B704700BF696400404964004080B483B000AF0023FB712B4B1B78BB71BB797B71BB7903F01E03002B0BD0BB7903F01E03DAB2254B1B78DBB21343DBB2FC
:40320000DAB2224B1A70BB7903F02003002B31D01F4B1B787B711F4B1B889BB219461E4A7B7953540123FB71FB79002B22D01B4B1B78DBB2002B02D0194B01221A70154BDB
:403240001B889BB201339AB2124B1A80114B1B889BB2B3F5806F02D30E4B00221A800D4B1B889AB20F4B1B889BB29A4202D10B4B01221A70BB7903F02003002BADD10C37A1
:40328000BD465DF8047B70476A640040E90200204B650040EC020020D8030020EE020020EF020020EA02002080B582B000AF786000F03CF8786800F009F8052000F018F839
:4032C00000F028F80837BD4680BD00BF80B485B000AF7860054B1B68FB60FB6850337A681A601437BD465DF8047B704708ED00E080B483B000AF0346FB71054AFB795B0188
:40330000DBB213700C37BD465DF8047B704700BF04E400E080B400AF034B10221A60BD465DF8047B704700BF00E100E080B400AF034B10221A60BD465DF8047B704700BF10
:4033400080E100E080B400AF034B10221A60BD465DF8047B704700BF80E200E080B582B000AF786000F03CF8786800F009F8052000F018F800F028F80837BD4680BD00BF4A
:4033800080B485B000AF7860054B1B68FB60FB684C337A681A601437BD465DF8047B704708ED00E080B483B000AF0346FB71054AFB795B01DBB213700C37BD465DF8047BEF
:4033C000704700BF03E400E080B400AF034B08221A60BD465DF8047B704700BF00E100E080B400AF034B08221A60BD465DF8047B704700BF80E100E080B400AF034B0822EF
:403400001A60BD465DF8047B704700BF80E200E080B400AF094A094B1B78DBB243F00803DBB21370064A064B1B78DBB243F00803DBB21370BD465DF8047B7047A2430040C9
:40344000B243004080B483B000AF134B7F221A70124B80221A707F23FB710CE0FB79DB0003F1804303F5F043FA79013AD2B21A70FB79013BFB71FB79002BEFD1FB79DB003E
:4034800003F1804303F5F04300221A700C37BD465DF8047B704700BF1D81FF1F1C81FF1F80B485B000AF03460A46FB711346BB710123FB60FB79172B2FD8BB79002B0ED05C
:4034C000FB791A01184B1344FA791101164A0A441278D2B242F02002D2B21A700DE0FB791A01114B1344FA7911010F4A0A441278D2B222F02002D2B21A70FB791A010A4B51
:403500001344FA791101084A0A441278D2B242F00102D2B21A700023FB60FB6818461437BD465DF8047B70471070004080B485B000AF03460A46FB711346BB710123FB60C5
:40354000FB79172B18D8FB791A010F4B13441B78DBB223F00E03FB72FB791A010A4B1344BA7902F00702D2B25200D1B2FA7A0A43D2B21A700023FB60FB6818461437BD4696
:403580005DF8047B704700BF1070004080B485B000AF0346FB710B46BB8013467B800123FB60BB8841F6FF72934202D14FF40053BB807B8841F6FF72934202D14FF4005388
:4035C0007B80FB79172B17D8FB79DB0003F1804303F5EC430433BB60BB68BA881A80FB79DB0003F1804303F5EC430633BB60BB687A881A800023FB60FB6818461437BD46E0
:403600005DF8047B704700BF80B485B000AF03460A46FB711346BB710123FB60FB79172B07D8FB791A01064B1344BA795A720023FB60FB6818461437BD465DF8047B70473C
:403640001070004090B484B000AF0446084611461A462346FB710346BB710B467B7113463B710123FB60FB79172B34D8FB79DB0003F1804303F5EC43BA7902F07F02D1B2F1
:403680007A79D201D2B20A43D2B21A70FB79DB0003F1804303F5EC433A7E1201D1B23A7902F00F02D2B20A43D2B25A70FB79DB0003F1804303F5EC433A7F02F00F02D2B2A8
:4036C0009A70FB79DB0003F1804303F5EC430022DA700023FB60FB6818461037BD4690BC704700BF80B582B000AFFF23FB7102F02FF90346BB71104B1B78182B12D90F4B33
:403700001B78FB710C4B1B78013BDAB20A4B1A70FB79DB0003F1804303F5F0431B78DAB2064B1A70BB79184602F016F9FB7918460837BD4680BD00BF1C81FF1F1D81FF1FB4
:4037400090B484B000AF0446084611461A462346FB710346BB800B46BB711346FB700123FB60FB795BB2002B23DBBB8823F47F6323F00F039BB2002B1BD1FB79DB0003F108
:40378000804303F5F043BB60BB68BA881A80FB79DB0003F1804303F5F043BA799A70FB79DB0003F1804303F5F043FA78DA700023FB60FB6818461037BD4690BC704700BF5B
:4037C00080B485B000AF0346FB710B46BB8013467B800123FB60FB795BB2002B17DBFB79DB0003F1804303F5F0430433BB60BB68BA881A80FB79DB0003F1804303F5F0434C
:403800000633BB60BB687A881A800023FB60FB6818461437BD465DF8047B704780B483B000AF0346FB7101BE0C37BD465DF8047B704700BF80B400AF054A054B1B78DBB2A1
:4038400043F00103DBB21370BD465DF8047B7047F646004080B582B000AF0346FB80FB88044A127802FB03F3184602F069F80837BD4680BD2C81FF1F80B584B000AF034673
:403880003960FB710F4B1B68FB60FB791F2B02D90020FFF7C3FFFB7903F01F0310339B00FA6813441B68BB60FB7903F01F0310339B00FA6813443A681A60BB681846103798
:4038C000BD4680BD08ED00E080B582B000AF03460A46FB711346BB71BB79072B02D90020FFF79CFFFB791F2B02D90020FFF796FFFB7903F01F0303F1604303F56443BA79EB
:403900005201D2B21A700837BD4680BD80B500AF054B1B78002B04D100F008F8024B01221A7000F04BF880BDF202002080B582B000AF1F4B1B78DBB223F03F03FB711C4AAB
:40394000FB7943F00903DBB213701A4A194B1B78DBB243F00103DBB21370174A164B1B78DBB243F00103DBB213704FF6FF7000F035F84FF6FF7000F04FF87F2000F05CF88D
:40398000002000F069F801F0E3FF0346BB710A4A094B1B78DBB243F01003DBB21370BB79184601F0D9FF00F029F80837BD4680BD72640040966400409764004080B400AFD7
:4039C000054A054B1B78DBB263F07F03DBB21370BD465DF8047B70477264004080B483B000AF0346FB80044AFB8813800C37BD465DF8047B704700BF0C68004080B500AF19
:403A000001E000F045F800F037F8034603F01003002BF6D180BD00BF80B483B000AF0346FB80044AFB8813800C37BD465DF8047B704700BF8C68004080B483B000AF0346BB
:403A4000FB80044AFB8813800C37BD465DF8047B704700BF4C68004080B483B000AF0346FB71044AFB7913700C37BD465DF8047B704700BF8764004080B400AF034B1B7854
:403A8000DBB21846BD465DF8047B70476764004080B400AF034B1B889BB21846BD465DF8047B7047AC68004080B400AF094A094B1B78DBB243F00203DBB21370064A064B8E
:403AC0001B78DBB243F00203DBB21370BD465DF8047B7047A2430040B243004080B485B000AF0346FB710B4B1B78DBB223F01003FB730849FB791B01DBB203F01003DAB29F
:403B0000FB7B1343DBB20B701437BD465DF8047B704700BF0051004080B485B000AF0346FB710B4B1B78DBB223F02003FB730849FB795B01DBB203F02003DAB2FB7B134385
:403B4000DBB20B701437BD465DF8047B704700BF0051004080B500AF054B1B78002B04D100F008F8024B01221A7000F04BF880BDF302002080B582B000AF1F4B1B78DBB23E
:403B800023F03F03FB711C4AFB7943F00903DBB213701A4A194B1B78DBB243F00103DBB21370174A164B1B78DBB243F00103DBB213704FF6FF7000F035F84FF6FF7000F04E
:403BC0004FF87F2000F05CF8002000F069F801F0BFFE0346BB710A4A094B1B78DBB243F01003DBB21370BB79184601F0B5FE00F029F80837BD4680BD7364004092640040D6
:403C00009364004080B400AF054A054B1B78DBB263F07F03DBB21370BD465DF8047B70477364004080B483B000AF0346FB80044AFB8813800C37BD465DF8047B704700BF53
:403C40000468004080B500AF01E000F045F800F037F8034603F01003002BF6D180BD00BF80B483B000AF0346FB80044AFB8813800C37BD465DF8047B704700BF8468004050
:403C800080B483B000AF0346FB80044AFB8813800C37BD465DF8047B704700BF4468004080B483B000AF0346FB71044AFB7913700C37BD465DF8047B704700BF8364004083
:403CC00080B400AF034B1B78DBB21846BD465DF8047B70476364004080B400AF034B1B889BB21846BD465DF8047B7047A468004080B485B000AF0346FB710B4B1B78DBB2E4
:403D000023F00203FB730849FB795B00DBB203F00203DAB2FB7B1343DBB20B701437BD465DF8047B704700BF0051004080B485B000AF0346FB710B4B1B78DBB223F0040372
:403D4000FB730849FB799B00DBB203F00403DAB2FB7B1343DBB20B701437BD465DF8047B704700BF0051004080B485B000AF0346FB710B4B1B78DBB223F00803FB73084945
:403D8000FB79DB00DBB203F00803DAB2FB7B1343DBB20B701437BD465DF8047B704700BF0051004080B500AF054B01221A6000200449FFF761FD00200721FFF785FD80BD11
:403DC00080E100E0093F000080B582B000AF0F2000F086F800F074F801F0BAFD0346FB71084A084B1B78DBB243F01003DBB21370FB79184601F0B0FD034B01221A60083719
:403E0000BD4680BD9F64004000E100E080B500AF00F0F6F94FF4004000F01EFA074B00221A60074B1B78002B04D1FFF7BBFF044B01221A70FFF7C8FF80BD00BFF80200209E
:403E4000F402002080B582B000AF0D4B01221A6000F012FA0346FB80FB88A3F500439BB2BB80B7F90420074B1B6813443B60064B01221A603B6818460837BD4680BD00BFB3
:403E800080E100E0F802002000E100E080B582B000AF7860074B01221A604FF4004000F0DBF9054A7B681360044B01221A600837BD4680BD80E100E0F802002000E100E096
:403EC00080B400AF054B1B78DBB203F00F03DBB21846BD465DF8047B704700BF6F64004080B483B000AF0346FB71FB7943F00703FB71044AFB7913700C37BD465DF8047BD8
:403F0000704700BF8F64004080B483B000AF144B1B78FB71FB7903F00103002B07D0114B1B6803F5FF437F330E4A13600AE0FB7903F00203002B05D00A4B1B68A3F5004358
:403F4000084A1360FB7903F00403002B02D0054B00221A600C37BD465DF8047B704700BF6F640040F802002080B400AF094A094B1B78DBB243F00403DBB21370064A064BD3
:403F80001B78DBB243F00403DBB21370BD465DF8047B7047A2430040B243004080B500AF054B02221A6001200449FFF765FC01200721FFF789FC80BD80E100E00141000094
:403FC00080B582B000AF0F2000F086F800F074F801F0BEFC0346FB71084A084B1B78DBB243F01003DBB21370FB79184601F0B4FC034B02221A600837BD4680BD966500401E
:4040000000E100E080B500AF00F0D0F94FF4004000F0F8F9074B00221A60074B1B78002B04D1FFF7BBFF044B01221A70FFF7C8FF80BD00BF00030020FC02002080B582B0DE
:4040400000AF0D4B02221A6000F0ECF90346FB80FB88A3F500439BB2BB80B7F90420074B1B6813443B60064B02221A603B6818460837BD4680BD00BF80E100E000030020EF
:4040800000E100E080B582B000AF7860074B02221A604FF4004000F0B5F9054A7B681360044B02221A600837BD4680BD80E100E00003002000E100E080B400AF054B1B7844
:4040C000DBB203F00F03DBB21846BD465DF8047B704700BF6665004080B483B000AF0346FB71FB7943F00703FB71044AFB7913700C37BD465DF8047B704700BF8665004003
:4041000080B483B000AF144B1B78FB71FB7903F00103002B07D0114B1B6803F5FF437F330E4A13600AE0FB7903F00203002B05D00A4B1B68A3F50043084A1360FB7903F0D3
:404140000403002B02D0054B00221A600C37BD465DF8047B704700BF666500400003002080B582B000AF1C4B1B78DBB223F00703FB71194AFB791370174B1B78DBB223F07C
:404180000303FB71144AFB79137000F0B1F84FF4004000F08DF84FF4004000F05DF8002000F03EF800F04CF84FF4004000F090F801F0CEFB0346BB71084A084B1B78DBB276
:4041C00043F01003DBB21370BB79184601F0C4FB0837BD4680BD00BF7F6400409D64004080B400AF054A054B1B78DBB263F07F03DBB21370BD465DF8047B70477F6400404D
:4042000080B500AF054B1B78002B04D1FFF7A8FF024B01221A70FFF7E3FF80BD0403002080B483B000AF0346FB71044AFB7913700C37BD465DF8047B704700BF8D64004013
:4042400080B400AF034B1B78DBB21846BD465DF8047B70476D64004080B483B000AF0346FB80044AFB8813800C37BD465DF8047B704700BF1868004080B400AF044B1B789D
:40428000044B1B889BB21846BD465DF8047B70470C6400409868004080B400AF034B1B889BB21846BD465DF8047B70479868004080B483B000AF0346FB80044AFB88138058
:4042C0000C37BD465DF8047B704700BF5868004080B483B000AF0346FB80044AFB8813800C37BD465DF8047B704700BF7868004080B500AF01E0FFF7CFFFFFF7A1FF0346D8
:4043000003F04003002BF6D180BD00BF80B582B000AF1C4B1B78DBB223F00703FB71194AFB791370174B1B78DBB223F00303FB71144AFB79137000F0B1F84FF4004000F071
:404340008DF84FF4004000F05DF8002000F03EF800F04CF84FF4004000F090F801F0F8FA0346BB71084A084B1B78DBB243F01003DBB21370BB79184601F0EEFA0837BD465B
:4043800080BD00BF7D6400409765004080B400AF054A054B1B78DBB263F07F03DBB21370BD465DF8047B70477D64004080B500AF054B1B78002B04D1FFF7A8FF024B01229A
:4043C0001A70FFF7E3FF80BD0503002080B483B000AF0346FB71044AFB7913700C37BD465DF8047B704700BF8765004080B400AF034B1B78DBB21846BD465DF8047B7047ED
:404400006765004080B483B000AF0346FB80044AFB8813800C37BD465DF8047B704700BF106A004080B400AF044B1B78044B1B889BB21846BD465DF8047B7047086500404B
:40444000906A004080B400AF034B1B889BB21846BD465DF8047B7047906A004080B483B000AF0346FB80044AFB8813800C37BD465DF8047B704700BF506A004080B483B08C
:4044800000AF0346FB80044AFB8813800C37BD465DF8047B704700BF706A004080B500AF01E0FFF7CFFFFFF7A1FF034603F04003002BF6D180BD00BF80B582B000AF4FF09A
:4044C000FF3000F05BF84FF0FF3000F071F801F03FFA0346FB710A4A094B1B78DBB243F01003DBB21370FB79184601F035FA00F07DF8002000F026F80837BD4680BD00BFC3
:404500009465004080B400AF054A054B1B78DBB263F07F03DBB21370BD465DF8047B70477565004080B500AF054B1B78002B04D1FFF7C2FF024B01221A70FFF7E3FF80BD86
:404540000603002080B483B000AF0346FB71044AFB7913700C37BD465DF8047B704700BF8465004080B400AF034B1B78DBB21846BD465DF8047B70476465004080B483B09C
:4045800000AF7860034A7B6813600C37BD465DF8047B70472465004080B400AF034B1B681846BD465DF8047B704700BF4465004080B483B000AF7860034A7B6813600C371B
:4045C000BD465DF8047B70470465004080B400AF044B1B78044B1B681846BD465DF8047B704700BF046500404465004080B500AF01E0FFF7D1FFFFF7B5FF034603F0080334
:40460000002BF6D180BD00BF80B485B000AF0346FB710B4B1B78DBB223F00803FB730849FB79DB00DBB203F00803DAB2FB7B1343DBB20B701437BD465DF8047B704700BF9A
:404640003051004080B500AF0A4B0C221A700A4A094B1B78DBB243F02003DBB21370074B00221A70082000F05BF8012000F03CF880BD00BF0C5800400D5800400E580040C1
:4046800080B400AF0D4A0D4B1B78DBB243F00803DBB213700A4A0A4B1B78DBB243F00803DBB21370074A074B1B78DBB263F07F03DBB21370BD465DF8047B7047A943004081
:4046C000B94300407758004080B500AF054B1B78002B04D1FFF7B6FF024B01221A70FFF7CFFF80BD0703002080B485B000AF0346FB710A4B1B78DBB223F00303FB73FB799B
:4047000003F00303DAB2FB7B1343FB73034AFB7B13701437BD465DF8047B70470D58004080B588B000AF0346FB71284A07F114031068516803C3127A1A70254A07F1080325
:404740001068516803C3127A1A70FB79082B39D8204A204B1B78DBB223F07F03DBB213701C481C4B1B78DAB2FB7907F120010B4413F80C1CFB7907F1200E734413F8183C31
:404780009B00DBB203F00C03DBB20B43DBB21343DBB20370104A104B1B78DBB223F00C03DBB213700C490C4B1B78DAB2FB7907F12000034413F8183C1343DBB243F00C03E8
:4047C000DBB20B702037BD4680BD00BF506B00005C6B00000E5800400D58004080B500AF0A4B0C221A700A4A094B1B78DBB243F02003DBB21370074B00221A70082000F059
:404800005BF8012000F03CF880BD00BF08580040095800400A58004080B400AF0D4A0D4B1B78DBB243F00403DBB213700A4A0A4B1B78DBB243F00403DBB21370074A074B4F
:404840001B78DBB263F07F03DBB21370BD465DF8047B7047A9430040B94300407758004080B500AF054B1B78002B04D1FFF7B6FF024B01221A70FFF7CFFF80BD0803002096
:4048800080B485B000AF0346FB710A4B1B78DBB223F00303FB73FB7903F00303DAB2FB7B1343FB73034AFB7B13701437BD465DF8047B70470958004080B588B000AF0346D7
:4048C000FB71284A07F114031068516803C3127A1A70254A07F108031068516803C3127A1A70FB79082B39D8204A204B1B78DBB223F07F03DBB213701C481C4B1B78DAB203
:40490000FB7907F120010B4413F80C1CFB7907F1200E734413F8183C9B00DBB203F00C03DBB20B43DBB21343DBB20370104A104B1B78DBB223F00C03DBB213700C490C4B1D
:404940001B78DAB2FB7907F12000034413F8183C1343DBB243F00C03DBB20B702037BD4680BD00BF686B0000746B00000A5800400958004080B582B002AF414B01221A701D
:40498000404B00221A70102000F0C8FE102000F0ABFF1D200721FEF797FF3B4B04221A703A4B00221A703A4B00221A70394A394B1B78DBB243F01803DBB21370364B002260
:4049C0001A70364B00221A70354B00221A70354B0A221A70344B00221A70344B00221A70334B12221A70334B13221A70324B00221A70324B14221A7001230093042048F650
:404A0000B6514FF40042082300F02AFB02230093042049F2DA014FF40042102300F020FB03230093042049F2DA014FF40042102300F016FB04230093042049F2DA014FF412
:404A40000042102300F00CFB1D4A0D4B1B78DBB2013B1C499B000B449B7813701A4A084B1B78DBB2013B174931F823301380044B1B78DBB2184600F0FDF8BD4680BD00BF97
:404A80003481FF1F0C03002096580040975800409E580040075B004093580040885B0040895B004080580040815800408358004088580040895800408D580040014E00400C
:404AC0000E4E0040100300200C4E004080B582B000AF00F03DFF0346FB71444B1B78BB71434A434B1B78DBB243F00103DBB213703F4A3F4B1B78DBB243F01003DBB21370FD
:404B00003C4A3C4B1B78DBB243F00103DBB21370384A384B1B78DBB243F01003DBB21370354A354B1B78DBB243F00203DBB21370324A324B1B78DBB243F00203DBB21370BE
:404B40002F4A2F4B1B78DBB243F00303DBB213700320FEF77FFE284A274B1B78DBB223F00203DBB21370254A244B1B78DBB223F00203DBB21370234A224B1B78DBB243F0C5
:404B80000603DBB21370204B7A221A701F4A1F4B1B78DBB243F00103DBB213701C4A1C4B1B78DBB243F00103DBB21370194A194B1B78DBB243F00103DBB21370164A164BEE
:404BC0001B78DBB243F00103DBB21370134B4FF000521A60124B4FF000521A60FB79184600F0BAFE0837BD4680BD00BF3481FF1FAA430040BA430040F8460040F94600408B
:404C0000915800407758004082580040A1430040B1430040A2430040B243004080E200E000E100E080B500AF084B1B78002B09D1074B1B78DBB2002B01D1FFF79BFE034B52
:404C400001221A70FFF742FF80BD00BF0E0300200F03002080B400AF054A054B1B78DBB243F00103DBB21370BD465DF8047B7047004E004080B582B000AF0346FB71C24B14
:404C800000221A70FB79012B62D1C04B38221A70BF4B04221A70BF4B07221A70BE4B00221A70BE4B00221A70BD4B0F221A70BD4B00221A70BC4B00221A70BC4B00221A70C8
:404CC000BB4B01221A70BB4B14221A70BA4B09221A70BA4B0A221A70B94B00221A70B94B11221A70B84B12221A70B84B01221A70B74B02221A70B74B22221A70B64B282219
:404D00001A70B64BEB221A70442000F05FFAB44B58221A70B34B00221A70B34B05221A70B24B01221A70B24B00221A70B14B0A221A70B14B7D221A600220012100F032FCCC
:404D40000720012100F014FD1D20AC49FEF794FDFB79022B63D18D4B38221A708C4B04221A708C4B07221A708B4B00221A708B4B00221A708A4B3F221A708A4B00221A704A
:404D8000894B00221A70894B00221A70884B01221A70884B50221A70874B27221A70874B2C221A70864B00221A70864B55221A70854B5A221A70854B05221A70844B0122BD
:404DC0001A70844B11221A70834B19221A70834B97221A70442000F0F9F9814B58221A70804B00221A70804B05221A707F4B01221A707F4B00221A707E4B0A221A707E4BBB
:404E00004FF4FA421A601220012100F0CBFB4A20012100F0ADFC1D207949FEF72DFDFB79032B63D1594B38221A70594B04221A70584B07221A70584B00221A70574B002211
:404E40001A70574B3F221A70564B00221A70564B00221A70554B00221A70554B01221A70544B50221A70544B27221A70534B2C221A70534B00221A70524B55221A70524BE0
:404E80005A221A70514B05221A70514B01221A70504B11221A70504B19221A704F4B97221A70442000F092F94D4B58221A704D4B00221A704C4B05221A704C4B01221A7076
:404EC0004B4B00221A704B4B0A221A704A4B4FF4FA421A601220012100F064FB4A20012100F046FC1D204749FEF7C6FCFB79042B40F0A680254B38221A70254B04221A7044
:404F0000244B07221A70244B00221A70234B00221A70234B3F221A70224B00221A70224B00221A70214B00221A70214B01221A70204B50221A70204B27221A701F4B2C2201
:404F40001A701F4B00221A701E4B55221A701E4B5A221A701D4B05221A701D4B01221A701C4B11221A701C4B19221A701B4B97221A70442000F02AF9194B58221A70194B4E
:404F800000221A7040E000BF0D030020004E0040024E0040034E0040044E0040054E0040064E0040084E0040094E00400A4E0040144E004084580040855800408658004010
:404FC000875800408A5800408B5800408C5800408E5800408F580040905800409158004094580040955800409A5800409B5800409C5800409D580040D807002045520000CE
:40500000515200005D5200000F4B05221A700F4B01221A700E4B00221A700E4B0A221A700D4B4FF4FA421A601220012100F0BAFA4A20012100F09CFB1D200849FEF71CFC01
:405040000837BD4680BD00BF9A5800409B5800409C5800409D580040D80700206952000090B587B000AF0446084611461A462346FB710346BB800B467B801346BB7197F837
:405080002830002B00F08A8097F82830042B00F28580FB79013B092B4AD801A252F823F0C95000003151000031510000C95000003151000031510000E3500000FD500000A6
:4050C0003151000017510000BB790F2B04D9364B1B78DBB2FB752EE0344B1B78DBB2FB7529E0BB790F2B04D9314B1B78DBB2FB7521E0304B1B78DBB2FB751CE0BB790F2B77
:4051000004D92D4B1B78DBB2FB7514E02B4B1B78DBB2FB750FE0BB790F2B04D9284B1B78DBB2FB7507E0274B1B78DBB2FB7502E00023FB7500BFBA8897F917305B0113446A
:405140003B617B883A6902FB03F3FB60FB68DB0BBB82BB790D2B11D8BB8ABA79C2F10E021341BB8297F82830013BBA790132D1B2154A9B0013440A469A7007E097F8283073
:40518000013B114A9B0013440F229A7097F82830013B0D49BA8A21F8232002E00020FEF73DFB1C37BD4690BD180100491C010049190100491D0100491A0100491E010049E2
:4051C0001B0100491F0100491003002080B584B000AF0346FB7100F0BBFB0346FB73164A154B1B78DBB243F00303DBB21370134A124B1B78DBB243F00303DBB21370104ADE
:40520000FB7913700320FEF725FB0B4A0A4B1B78DBB223F00303DBB21370084A074B1B78DBB223F00303DBB21370FB7B184600F093FB1037BD4680BDF8460040F946004089
:405240009258004080B400AFBD465DF8047B704780B400AFBD465DF8047B704780B400AFBD465DF8047B704780B400AFBD465DF8047B704790B585B002AF04460846114626
:405280001A462346FB710346BB710B46BB8013467B80114B0A221A700F4B1878F979BA7900230093002301930023FEF7CBF90A4B1978BA887B88084611461A46FEF766F9F6
:4052C000054B1B7818460221FEF730F9024B1B7818460C37BD4690BD3581FF1FF8B500AF354A354B1B78DBB243F01003DBB21370324A324B1B78DBB223F00103DBB2137076
:405300002F4B3F221A702F4B3F221A702E4A2F4B11461A464FF48073084611461A4600F03DFF2B4A294B11461A464FF48073084611461A4600F032FF264A274B11461A46FE
:405340004FF48073084611461A4600F027FF234A234B11461A464FF40073084611461A4600F01CFF1F4A204B11461A464FF40073084611461A4600F011FF1C4B1C4A144617
:405380001E4604F1400E35462346186859689A68DB680FC5103410367445F4D1094B00221A70002000F07CF8012000F08DF8114BF8221A70F8BD00BFA643004080C70040C2
:4053C00088C700408CC7004000C40040806B000000C5004000C60040C070000000C00040806C000000C20040806E000000C700408070000084C7004080B400AF0D4A0D4B71
:405400001B78DBB243F01003DBB213700A4A0A4B1B78DBB243F01003DBB21370074A074B1B78DBB243F00103DBB21370BD465DF8047B7047A6430040B643004080C7004056
:4054400080B500AF054B1B78002B04D1FFF746FF024B01221A70FFF7CFFF80BD2003002080B485B000AF0346FB71FB79002B03D1094B1B78FB7308E0FB79012B03D1074BA9
:405480001B78FB7301E00023FB73FB7B18461437BD465DF8047B7047AAC70040AEC7004080B483B000AF0346FB71FB7903F01F03FB71044AFB7913700C37BD465DF8047B47
:4054C000704700BF98C7004080B483B000AF0346FB71FB7903F00F03FB71044AFB7913700C37BD465DF8047B704700BF9CC7004080B500AF012000F035F880BD80B400AF2D
:405500000D4A0D4B1B78DBB243F06003DBB213700A4A0A4B1B78DBB243F00803DBB21370074A074B1B78DBB243F00803DBB21370BD465DF8047B704777580040A44300400A
:40554000B443004080B500AF054B1B78002B04D1034B01221A70FFF7CBFFFFF7CFFF80BD2103002080B483B000AF0346FB710C4A0B4B1B78DBB223F00303DBB2137008491C
:40558000074B1B78DAB2FB7903F00303DBB21343DBB20B700C37BD465DF8047B704700BF5E58004080B584B000AF03460A46FB8013467B7100F0CCF80346FB7300F0A2F836
:4055C0000346BB81FA88BB899A4200F08780454B1B78DBB203F00103FB72FB7B002B20D1BB89002B02D0FB88002B1AD1BB89002B0BD13D4AFB8813803C4A3C4B1B78DBB2F8
:4056000023F04003DBB2137068E0384A374B1B78DBB243F04003DBB21370334AFB8813805CE0FB7A002B33D0314B00221A70314B01221A70304B00221A70304A2F4B1B78A1
:40564000DBB203F07F03DBB21370284B1B78DBB203F00803002B02D0FB88002B18D1284ABB891380224B07221A7000BF204B1B78DBB203F00103002BF8D11A4A194B1B78FA
:40568000DBB223F00103DBB21370194B00221A70144B1B78DBB203F00103002B13D0184AFB881380124A7B79002B01D0032300E00123137000BF0E4B1B78DBB203F0010302
:4056C000002BF8D10AE0084AFB8813800549054B1B78DAB2FB7A1343DBB20B701037BD4680BD00BFA24300408040004082400040014000401040004014400040084000403A
:405700000240004080B400AF034B1B889BB21846BD465DF8047B70478040004080B483B000AF0346FB71094B084A1278D2B2D1B2FA7922F00702D2B20A43D2B2D2B21A70E7
:405740000C37BD465DF8047B704700BF8240004080B400AF054B1B78DBB203F00703DBB21846BD465DF8047B704700BF8240004080B584B000AF03460A46FB8013467B719C
:4057800000F0CCF80346FB7300F0A2F80346BB81FA88BB899A4200F08780454B1B78DBB203F00103FB72FB7B002B20D1BB89002B02D0FB88002B1AD1BB89002B0BD13D4A84
:4057C000FB8813803C4A3C4B1B78DBB223F04003DBB2137068E0384A374B1B78DBB243F04003DBB21370334AFB8813805CE0FB7A002B33D0314B00221A70314B01221A704B
:40580000304B00221A70304A2F4B1B78DBB203F07F03DBB21370284B1B78DBB203F00803002B02D0FB88002B18D1284ABB891380224B07221A7000BF204B1B78DBB203F0DD
:405840000103002BF8D11A4A194B1B78DBB223F00103DBB21370194B00221A70144B1B78DBB203F00103002B13D0184AFB881380124A7B79002B01D0032300E0012313701C
:4058800000BF0E4B1B78DBB203F00103002BF8D10AE0084AFB8813800549054B1B78DAB2FB7A1343DBB20B701037BD4680BD00BFA1430040004100400241004001400040F4
:4058C0001440004010400040084000400240004080B400AF034B1B889BB21846BD465DF8047B70470041004080B483B000AF0346FB71094B084A1278D2B2D1B2FA7922F065
:405900000702D2B20A43D2B2D2B21A700C37BD465DF8047B704700BF0241004080B400AF054B1B78DBB203F00703DBB21846BD465DF8047B704700BF0241004000000000DD
:405940000230800803D000BF01380046FCD17047EFF3108072B6704780F31088704700BF81F0004102E000BF83F0004330B54FEA41044FEA430594EA050F08BF90EA020F35
:405980001FBF54EA000C55EA020C7FEA645C7FEA655C00F0E2804FEA5454D4EB5555B8BF6D420CDD2C4480EA020281EA030382EA000083EA010180EA020281EA0303362D08
:4059C00088BF30BD11F0004F4FEA01314FF4801C4CEA113102D0404261EB410113F0004F4FEA03334CEA133302D0524263EB430394EA050F00F0A780A4F10104D5F1200E11
:405A00000DDB02FA0EFC22FA05F2801841F1000103FA0EF2801843FA05F359410EE0A5F120050EF1200E012A03FA0EFC28BF4CF0020C43FA05F3C01851EBE37101F000452A
:405A400007D54FF0000EDCF1000C7EEB00006EEB0101B1F5801F1BD3B1F5001F0CD349085FEA30004FEA3C0C04F101044FEA445212F5800F80F09A80BCF1004F08BF5FEA49
:405A8000500C50F1000041EB045141EA050130BD5FEA4C0C404141EB010111F4801FA4F10104E9D191F0000F04BF01460020B1FA81F308BF2033A3F10B03B3F120020CDA21
:405AC0000C3208DD02F1140CC2F10C0201FA0CF021FA02F10CE002F11402D8BFC2F1200C01FA02F120FA0CFCDCBF41EA0C019040E41AA2BF01EB0451294330BD6FEA040432
:405B00001F3C1CDA0C340EDC04F11404C4F1200220FA04F001FA02F340EA030021FA04F345EA030130BDC4F10C04C4F1200220FA02F001FA04F340EA0300294630BD21FA6B
:405B400004F0294630BD94F0000F83F4801306BF81F480110134013D4EE77FEA645C18BF7FEA655C29D094EA050F08BF90EA020F05D054EA000C04BF1946104630BD91EABF
:405B8000030F1EBF0021002030BD5FEA545C05D14000494128BF41F0004130BD14F580043CBF01F5801130BD01F0004545F0FE4141F470014FF0000030BD7FEA645C1ABF6F
:405BC000194610467FEA655C1CBF0B46024650EA013406BF52EA033591EA030F41F4002130BD00BF90F0000F04BF0021704730B54FF4806404F132044FF000054FF0000136
:405C000050E700BF90F0000F04BF0021704730B54FF4806404F1320410F0004548BF40424FF000013EE700BF42004FEAE2014FEA31014FEA02701FBF12F07F4393F07F4FB4
:405C400081F06051704792F0000F14BF93F07F4F704730B54FF4607401F0004521F0004120E700BF50EA010208BF704730B54FF000050AE050EA010208BF704730B511F026
:405C8000004502D5404261EB41014FF4806404F132045FEA915C3FF4DCAE4FF003025FEADC0C18BF03325FEADC0C18BF033202EBDC02C2F1200300FA03FC20FA02F001FA14
:405CC00003FE40EA0E0021FA02F11444C1E600BF70B54FF0FF0C4CF4E06C1CEA11541DBF1CEA135594EA0C0F95EA0C0F00F0DEF82C4481EA030621EA4C5123EA4C5350EA84
:405D0000013518BF52EA033541F4801143F4801338D0A0FB02CE4FF00005E1FB02E506F00042E0FB03E54FF00006E1FB03569CF0000F18BF4EF0010EA4F1FF04B6F5007FE2
:405D400064F5407404D25FEA4E0E6D4146EB060642EAC62141EA55514FEAC52040EA5E504FEACE2EB4F1FD0C88BFBCF5E06F1ED8BEF1004F08BF5FEA500E50F1000041EBDD
:405D8000045170BD06F0004646EA010140EA020081EA0301B4EB5C04C2BFD4EB0C0541EA045170BD41F480114FF0000E013C00F3AB8014F1360FDEBF002001F0004170BD87
:405DC000C4F10004203C35DA0C341BDC04F11404C4F1200500FA05F320FA04F001FA05F240EA020001F0004221F0004110EBD37021FA04F642EB06015EEA430E08BF20EACD
:405E0000D37070BDC4F10C04C4F1200500FA04F320FA05F001FA04F240EA020001F0004110EBD37041F100015EEA430E08BF20EAD37070BDC4F1200500FA05F24EEA020EA6
:405E400020FA04F301FA05F243EA020321FA04F001F0004121FA04F220EA020000EBD3705EEA430E08BF20EAD37070BD94F0000F0FD101F00046400041EB010111F4801FCB
:405E800008BF013CF7D041EA060195F0000F18BF704703F00046520043EB030313F4801F08BF013DF7D043EA0603704794EA0C0F0CEA135518BF95EA0C0F0CD050EA4106E0
:405EC00018BF52EA4306D1D181EA030101F000414FF0000070BD50EA410606BF1046194652EA430619D094EA0C0F02D150EA013613D195EA0C0F05D152EA03361CBF104657
:405F000019460AD181EA030101F0004141F0FE4141F470014FF0000070BD41F0FE4141F4780170BD70B54FF0FF0C4CF4E06C1CEA11541DBF1CEA135594EA0C0F95EA0C0FD6
:405F400000F0A7F8A4EB050481EA030E52EA03354FEA013100F088804FEA03334FF0805545EA131343EA12634FEA022245EA111545EA10654FEA00260EF000419D4208BF93
:405F8000964244F1FD0404F5407402D25B084FEA3202B61A65EB03055B084FEA32024FF480104FF4002CB6EB020E75EB030E22BFB61A754640EA0C005B084FEA3202B6EB13
:405FC000020E75EB030E22BFB61A754640EA5C005B084FEA3202B6EB020E75EB030E22BFB61A754640EA9C005B084FEA3202B6EB020E75EB030E22BFB61A754640EADC00A6
:4060000055EA060E18D04FEA051545EA16754FEA06164FEAC30343EA52734FEAC2025FEA1C1CC0D111F4801F0BD141EA00014FF000004FF0004CB6E711F4801F04BF014305
:406040000020B4F1FD0C88BFBCF5E06F3FF6AFAEB5EB030C04BFB6EB020C5FEA500C50F1000041EB045170BD0EF0004E4EEA113114EB5C04C2BFD4EB0C0541EA045170BDA1
:4060800041F480114FF0000E013C90E645EA060E8DE60CEA135594EA0C0F08BF95EA0C0F3FF43BAF94EA0C0F0AD150EA01347FF434AF95EA0C0F7FF425AF104619462CE70D
:4060C00095EA0C0F06D152EA03353FF4FDAE1046194622E750EA410618BF52EA43067FF4C5AE50EA41047FF40DAF52EA43057FF4EBAE12E74FEA410212F5001215D211D5C3
:406100006FF47873B3EB625212D94FEAC12343F0004343EA505311F0004F23FA02F018BF404270474FF00000704750EA013005D111F0004008BF6FF0004070474FF000002E
:40614000704700BF014B1868704700BF9881FF1F0E4B70B51E460E4C0025E41AA410A54204D056F8253098470135F8E701F044F8084B094C1E46E41AA4100025A54204D000
:4061800056F8253098470135F8E770BD0472000004720000047200000C72000010B5431E0A44914204D011F8014B03F8014FF8E710BD03460244934202D003F8011BFAE7A6
:4061C000704700000CB430B5164B0C1E9DB01D6804DA8B232B604FF0FF301EE04FF40273ADF814300CBF234604F1FF33049307934FF6FF7302900690ADF81630284621AB32
:4062000002A9209A019300F08DF8431CBCBF8B232B6014B1029B00221A701DB0BDE8304002B070479881FF1F0EB400B54FF402719CB0ADF814106FF00041049107914FF6F9
:40624000FF711DABADF81610084953F8042B02900690086802A9019300F064F8029B00221A701CB05DF804EB03B070479881FF1F2DE9F0478E688246B3420C46904699462C
:4062800040D38A8912F4906F3AD02568096902236F1A656905EB450595FBF3F57B1C4B449D4238BF1D4653050FD5294600F030FB064698B121693A46FFF770FFA38923F410
:4062C000906343F08003A38113E02A4600F076FB064670B95046216900F0D6FA0C23CAF80030A3894FF0FF3043F04003A381BDE8F08726613E4426604E466561ED1BA56051
:40630000B14500D24E4632462068414600F0A0FAA36800209B1BA36023681E442660BDE8F08700002DE9F0439DB003938B8906461C060D4690460CD50B6953B9402100F0F4
:40634000E7FA2860286110B90C233360CCE040236B610023099320238DF8293030238DF82A3043461C4613F8012B1AB9B4EB08090FD002E0252AF5D1F8E7304629464246EC
:406380004B46FFF775FF013000F0A980099B4B4409932378002B00F0A28000234FF0FF3204930793059206938DF853301A9304F101084446DFF8489121784846052200F0D2
:4063C00039FA08F10108049B30B1C9EB00000122824013430493ECE7D80644BF20228DF85320190744BF2B228DF8532022782A2A02D0079923460EE0039A0134111D1268DB
:406400000391002ABBBF524243F0020307920792B8BF04930AE01C4622780133303A092A03D80A2000FB0121F5E7079123782E2B1AD163782A2B0AD1039B02341A1D1B6853
:406440000392002BB8BF4FF0FF3305930CE0611C00220C4623780131303B092B03D80A2000FB0232F5E70592DFF8988021784046032200F0DFF938B1049AC8EB0000402354
:40648000834013430493013421781A48062204F101088DF8281000F0CDF988B1164B33B9039B073323F007030833039313E003AB0093304604A92A46104BAFF3008007E0EC
:4064C00003AB0093304604A92A460C4B00F092F8421C074603D0099B3B44099341E7AB895B0601D4099801E04FF0FF301DB0BDE8F08300BFCC710000000000007162000084
:40650000C2710000C87100002DE9F84391461F468A680B6906469342B8BF1346C9F8003091F843200C46DDF8208012B10133C9F800302368990642BFD9F800300233C9F85D
:406540000030256815F006051CD094F843302268003318BF012392061FD5E118302081F843005A1C94F845102244023382F8431013E03046394604F119020123C047013007
:4065800007D00135E368D9F800209B1A9D42F0DBDBE74FF0FF30BDE8F8833046394604F14302C0470130F4D02268D9F80050E36802F00602042A08BF5D1B2269A3680CBFFA
:4065C00025EAE57500259342C4BF9B1AED184FF00009A9450ADA3046394604F11A020123C0470130D5D009F10109F2E70020BDE8F88300002DE9FF410C461746227E98463A
:406600006E2A06460A9B01F1430100F0B08012D8632A23D00AD8002A00F0BD80582A40F0CC8084F84520DFF804E257E0642A1ED0692A1CD0C1E0732A00F0B18009D86F2A31
:406640002ED0702A40F0B980226842F0200222603FE0752A24D0782A3BD0AEE01A6804F14205111D1960136884F84230A9E020681A6810F0800F02D0101D186008E010F07D
:40668000400F02F10400186002D0B2F9003000E01368002B3EDA2D225B4284F8432039E020681A6810F0800F02D0101D186007E010F0400F02F10400186001D0138800E0EC
:4066C0001368227EDFF864E16F2A0CBF08220A221CE07822DFF858E184F845202268186812F0800F00F104051D6003D1550601D5038800E00368D00744BF42F02002226085
:406700001BB9226822F0200222601022002084F8430002E0DFF814E10A226568002DA8BF2068A560A4BF20F00400206003B965B10D46B3FBF2F002FB10331EF8033005F83A
:40674000013D03460028F4D100E00D46082A0BD12368DA0708D5236962689A42DEBF302305F8013C05F1FF35491B21612EE025681A6815F0800F606903D0151D1D60136838
:4067800008E015F0400F02F104051D60136801D0188000E01860002323610D4616E01A68111D1960156800212846626800F042F808B1401B6060636804E004F1420584F894
:4067C000422001232361002384F84330CDF800803046214603AA3B46FFF796FE013002D14FF0FF301FE0304639462A462369C0470130F5D023689B0705D4E068039B98427E
:40680000B8BF18460FE00025E368039A9B1A9D42F3DA3046394604F119020123C0470130DED00135F0E704B0BDE8F081D3710000E471000010B5C9B202449042034605D031
:406840001C7801308C42F8D1184610BD002010BD814210B501EB020301D3421E0BE09842FBD28118D21AD34204D013F8014D01F8014DF8E710BD994204D011F8014B02F8AD
:40688000014FF8E710BD000030B500293CD051F8042C0B1F1D49002AB8BF9B180A680C4612B95A600B6030BD93420DD219685818904201BF5A5852181A60426823605A6010
:4068C00030BD994203D80A4651680029F9D1146815199D420AD11B682344D0188842136012D10868034413604B680CE002D90C23036030BD1C681819884201BF0868496820
:40690000001918605960536030BD00BF2803002070B5CC1C24F0030408340C2C38BF0C24002C064603DA0C233360002070BD8C42F9D3204A136810461946A1B10A68121B17
:406940000ED40B2A03D90A608B188C501FE08B420BBF5A684A6802605A6018BF0B4616E00B464968E9E7144D2B681BB9304600F04BF828603046214600F046F8421C03467A
:40698000D1D0C51C25F0030585420AD11C6003F10B001A1D20F00700821A0AD05142995070BD3046E91A00F02FF80130BBD02B46ECE770BD2803002024030020F8B5074665
:4069C00015460E4621B91146BDE8F840FFF7A0BF1AB9FFF759FF2846F8BD00F025F8A8420ED238462946FFF793FF044650B131462A46FFF7D3FB38463146FFF745FF01E0EF
:406A00003046F8BD2046F8BD38B5064C0023054608462360FBF7C2FF431C02D1236803B12B6038BDE007002051F8040C0028BEBF091851F8043CC018043870470000000074
:406A400049444C45000000000A3D3D3D204D6173746572203D3D3D0A0A0000000A3D3D3D204E45572052554E203D3D3D0A0A0000696E697469616C697365207468652050F9
:406A80004944000077616974696E6720666F7220612073657269616C2062757320746F20636F6D6520696E00496E20444D4120434F4E4649472020006275666665722072DB
:406AC0006561642061732025730A00006C65667420696E633A2025690A726967687420696E633A2025690A004B702056616C75653A202566000000006C6566742077686589
:406B0000656C20696E633A20256C690A0000000046696C74657220526561643A2025750A0000000020510040100040510040300000000140001000140140000800400140DB
:406B4000000A004C01400002005001402000000001112131416153637300000008090101050707040400000001112131416153637300000008090101050707040400000011
:406B8000201300256117802601008026E00E8026C20C8026020080066587186D6409183E00008026032080262102187F0000000000000000000000000000000000000000CB
:406BC0000000000000000000000000000000000000000000000000000000000000000000000000000000000000000000000000000000000000000000000000000000000095
:406C00000000000000000000000000000000000000000000000000000000000000000000000000000000000000000000000000000000000000000000000000000000000054
:406C40000000000000000000000000000000000000000000000000000000000000000000000000000000000000000000000000000000000000000000000000000000000014
:406C800000000000000000000000000000000000000000000000000000000000000000000000000000000000000000000000000000000000000000000000000000000000D4
:406CC0000000000000000000000000000000000000000000000000000000000000000000000000000000000000000000000000000000000000000000000000000000000094
:406D00000000000000000000000000000000000000000000000000000000000000000000000000000000000000000000000000000000000000000000000000000000000053
:406D40000000000000000000000000000000000000000000000000000000000000000000000000000000000000000000000000000000000000000000000000000000000013
:406D800000000000000000000000000000000000000000000000000000000000000000000000000000000000000000000000000000000000000000000000000000000000D3
:406DC0000000000000000000000000000000000000000000000000000000000000000000000000000000000000000000000000000000000000000000000000000000000093
:406E00000000000000000000000000000000000000000000000000000000000000000000000000000000000000000000000000000000000000000000000000000000000052
:406E40000000000000000000000000000000000000000000000000000000000000000000000000000000000000000000000000000000000000000000000000000000000012
:406E8000CC760000FCF40000DCF10100115F0300630D0500DDB50600150A080050C7080050C70800150A0800DDB50600630D0500115F0300DCF10100FCF40000CC76000046
:406EC0000000000000000000000000000000000000000000000000000000000000000000000000000000000000000000000000000000000000000000000000000000000092
:406F00000000000000000000000000000000000000000000000000000000000000000000000000000000000000000000000000000000000000000000000000000000000051
:406F40000000000000000000000000000000000000000000000000000000000000000000000000000000000000000000000000000000000000000000000000000000000011
:406F800000000000000000000000000000000000000000000000000000000000000000000000000000000000000000000000000000000000000000000000000000000000D1
:406FC0000000000000000000000000000000000000000000000000000000000000000000000000000000000000000000000000000000000000000000000000000000000091
:407000000000000000000000000000000000000000000000000000000000000000000000000000000000000000000000000000000000000000000000000000000000000050
:407040000000000000000000000000000000000000000000000000000000000000000000000000000000000000000000000000000000000000000000000000000000000010
:407080008F0700000000000000000000000000000000000000000000000000000000000000000000000000000000000000000000000000000000000000000000000000003A
:4070C00021F805014210864064F8150181F8050143518E21000000000000000000000000000000000000000000000000000000000000000000000000000000000000000025
:40710000000000000000000000000000000000000000000000000000000000000000000000000000000000000000000000000000000000000000000000000000000000004F
:40714000000000000000000000000000000000000000000000000000000000000000000000000000000000000000000000000000000000000000000000000000000000000F
:4071800000000000000000000000000000000000000000000000000000000000000000000000000000000000000000000000000000000000000000000000000000000000CF
:4071C0004300232D302B2000686C4C006566674546470030313233343536373839414243444546003031323334353637383961626364656600000000F8B500BFF8BC08BC75
:407200009E4670474D000000852A0000F8B500BFF8BC08BC9E46704729000000307200000881FF1F98000000488600000000000000000000AAAAAAAAF87F00000100000040
