:400000000080002011000000D52D0000D52D000080B500AF024A034B1B68136002F00CFFBC760040FA46004010B5054C237833B9044B13B10448AFF300800123237010BD06
:400040005081FF1F00000000045A0000084B10B51BB108490848AFF300800848036803B910BD074B002BFBD0BDE81040184700BF000000005481FF1F045A0000C880FF1F36
:400080000000000080B483B000AF78607B6803F108027B685A607B684FF0FF329A607B6803F108027B68DA607B6803F108027B681A617B6800221A6000BF0C37BD4680BC8A
:4000C000704700BF80B483B000AF78607B6800221A6100BF0C37BD4680BC704780B485B000AF786039607B685B68FB603B68FA685A60FB689A683B689A60FB689B683A68D1
:400100005A60FB683A689A603B687A681A617B681B685A1C7B681A6000BF1437BD4680BC704700BF80B485B000AF786039603B681B68BB60BB68B3F1FF3F03D17B681B6904
:40014000FB600CE07B680833FB6002E0FB685B68FB60FB685B681A68BB689A42F6D9FB685A683B685A603B685B683A689A603B68FA689A60FB683A685A603B687A681A61A4
:400180007B681B685A1C7B681A6000BF1437BD4680BC704780B485B000AF78607B681B69FB607B685B687A6892689A607B689B687A6852685A60FB685A687B689A4203D1E4
:4001C0007B689A68FB685A607B6800221A61FB681B685A1EFB681A60FB681B6818461437BD4680BC704700BF80B584B000AF786039607B68FB6001F0BFFBFB681A68FB6844
:40020000DB6BF968096C01FB03F31A44FB685A60FB6800229A63FB681A68FB689A60FB681A68FB68DB6B013BF968096C01FB03F31A44FB68DA60FB68FF2283F84420FB681E
:40024000FF2283F845203B68002B14D1FB681B69002B1AD0FB681033184600F0CBFF0346002B12D00C4B4FF080521A60BFF34F8FBFF36F8F09E0FB6810331846FFF702FFB4
:40028000FB6824331846FFF7FDFE01F08DFB012318461037BD4680BD04ED00E080B58AB002AFF860B9601346FB71BB68002B02D10023FB6104E0FB68BA6802FB03F3FB6134
:4002C000FB694833184601F0E9FBB861BB69002B0BD0BB6948337B61FA79BB69009313467A69B968F86800F005F8BB6918462037BD4680BD80B584B000AFF860B9607A60DE
:40030000FB70BB68002B03D1BB69BA691A6002E0BB697A681A60BB69FA68DA63BB69BA681A640121B869FFF75FFF00BF1037BD4680BD00BF80B582B000AF78607B68002BEE
:400340000ED07B6800225A607B6800221A607B680022DA60002300220021786800F01CF800BF0837BD4680BD80B586B000AF0346FB7101237B6100233B61FB791A46396996
:400380007869FFF78BFFF860F868FFF7D3FFFB6818461837BD4680BD80B58AB000AFF860B9607A603B6000237B62FB683B6201F0E3FA3B6A9A6B3B6ADB6B9A4202D33B6851
:4003C000022B29D13A68B968386A00F0BFFAF8613B6A5B6A002B10D03B6A2433184600F009FF0346002B13D03F4B4FF080521A60BFF34F8FBFF36F8F0AE0FB69002B07D0AC
:40040000394B4FF080521A60BFF34F8FBFF36F8F01F0CAFA012363E07B68002B03D101F0C3FA00235CE07B6A002B06D107F11403184600F033FF01237B6201F0B5FA00F05B
:4004400013FD01F099FA3B6A93F844305BB2B3F1FF3F03D13B6A002283F844203B6A93F845305BB2B3F1FF3F03D13B6A002283F8452001F099FA3A1D07F11403114618462D
:4004800000F022FF0346002B24D1386A00F056FB0346002B18D03B6A10337A681146184600F092FE386A00F0E1FA00F0EBFC0346002B7FF47CAF0C4B4FF080521A60BFF39A
:4004C0004F8FBFF36F8F72E7386A00F0CFFA00F0D9FC6CE7386A00F0C9FA00F0D3FC002318462837BD4680BD04ED00E080B58CB000AFF860B9607A603B60FB68BB62EFF335
:4005000011824FF0A00383F31188BFF36F8FBFF34F8FBA617B61BB693B62BB6A9A6BBB6ADB6B9A4202D33B68022B2AD1BB6A93F84530FB773A68B968B86A00F007FA97F931
:400540001F30B3F1FF3F12D1BB6A5B6A002B15D0BB6A2433184600F04DFE0346002B0DD07B68002B0AD07B6801221A6006E0FB7F0133DBB25AB2BB6A83F845200123FB62EC
:4005800001E00023FB623B6A7B627B6A83F31188FB6A18463037BD4680BD00BF80B58AB000AFF860B9607A6000237B62FB683B6201F0E2F93B6A9B6BFB61FB69002B1FD081
:4005C000B968386A00F02CFAFB695A1E3B6A9A633B6A1B69002B0FD03B6A1033184600F009FE0346002B07D03C4B4FF080521A60BFF34F8FBFF36F8F01F0D6F9012369E06A
:400600007B68002B03D101F0CFF9002362E07B6A002B06D107F11403184600F03FFE01237B6201F0C1F900F01FFC01F0A5F93B6A93F844305BB2B3F1FF3F03D13B6A0022C5
:4006400083F844203B6A93F845305BB2B3F1FF3F03D13B6A002283F8452001F0A5F93A1D07F114031146184600F02EFE0346002B23D1386A00F04CFA0346002B17D03B6A86
:4006800024337A681146184600F09EFD386A00F0EDF900F0F7FB0346002B89D10F4B4FF080521A60BFF34F8FBFF36F8F80E7386A00F0DCF900F0E6FB7AE7386A00F0D6F913
:4006C00000F0E0FB386A00F023FA0346002B3FF46FAF002318462837BD4680BD04ED00E080B58AB000AF7860396000237B627B68FB6100233B6201F03FF9FB699B6BBB618D
:40070000BB69002B24D0BB695A1EFB699A63FB691B68002B04D101F029F80246FB695A60FB691B69002B0FD0FB691033184600F061FD0346002B07D04C4B4FF080521A6068
:40074000BFF34F8FBFF36F8F01F02EF9012389E03B68002B03D101F027F9002382E07B6A002B06D107F10C03184600F097FD01237B6201F019F900F077FB01F0FDF8FB69DC
:4007800093F844305BB2B3F1FF3F03D1FB69002283F84420FB6993F845305BB2B3F1FF3F03D1FB69002283F8452001F0FDF83A4607F10C031146184600F086FD0346002B7C
:4007C00032D1F86900F0A4F90346002B26D0FB691B68002B09D101F0CFF8FB695B68184600F068FE386201F0DFF8FB6924333A681146184600F0E8FCF86900F037F900F066
:4008000041FB0346002B7FF476AF184B4FF080521A60BFF34F8FBFF36F8F6CE7F86900F025F900F02FFB66E7F86900F01FF900F029FBF86900F06CF90346002B3FF45BAF35
:400840003B6A002B0DD001F097F8F86900F066F87861FB695B687969184600F00FFF01F0A3F8002318462837BD4680BD04ED00E080B58CB000AFF860B9607A60FB68BB62F6
:40088000EFF311824FF0A00383F31188BFF36F8FBFF34F8F7A613B617B693B62BB6A9B6BFB61FB69002B2DD0BB6A93F84430FB76B968B86A00F0B4F8FB695A1EBB6A9A6315
:4008C00097F91B30B3F1FF3F12D1BB6A1B69002B15D0BB6A1033184600F08CFC0346002B0DD07B68002B0AD07B6801221A6006E0FB7E0133DBB25AB2BB6A83F84420012354
:40090000FB6201E00023FB623B6A7B627B6A83F31188FB6A18463037BD4680BD80B485B000AF78607B685B6A002B06D07B681B6B1B68C3F10503FB6001E00023FB60FB68BB
:4009400018461437BD4680BC704700BF80B586B000AFF860B9607A6000237B61FB689B6B3B61FB681B6C002B0DD1FB681B68002B4DD1FB685B68184600F01CFE7861FB68C4
:4009800000225A6043E07B68002B19D1FB689868FB681B6C1A46B96804F0FCFBFB689A68FB681B6C1A44FB689A60FB689A68FB685B689A422BD3FB681A68FB689A6026E0D0
:4009C000FB68D868FB681B6C1A46B96804F0E2FBFB68DA68FB681B6C5B421A44FB68DA60FB68DA68FB681B689A4207D2FB685A68FB681B6C5B421A44FB68DA607B68022BFA
:400A000005D13B69002B02D03B69013B3B613B695A1CFB689A637B6918461837BD4680BD80B582B000AF786039607B681B6C002B18D07B68DA687B681B6C1A447B68DA606A
:400A40007B68DA687B685B689A4203D37B681A687B68DA607B68D9687B681B6C1A46386804F098FB00BF0837BD4680BD80B584B000AF786000F080FF7B6893F84530FB7374
:400A800011E07B685B6A002B12D07B682433184600F0B0FB0346002B01D000F05BFCFB7B013BDBB2FB7397F90F30002BE9DC00E000BF7B68FF2283F8452000F075FF00F08E
:400AC0005BFF7B6893F84430BB7311E07B681B69002B12D07B681033184600F08BFB0346002B01D000F036FCBB7B013BDBB2BB7397F90E30002BE9DC00E000BF7B68FF2238
:400B000083F8442000F050FF00BF1037BD4680BD80B584B000AF786000F02EFF7B689B6B002B02D10123FB6001E00023FB6000F03BFFFB6818461037BD4680BD80B584B0A4
:400B400000AF786000F018FF7B689A6B7B68DB6B9A4202D10123FB6001E00023FB6000F023FFFB6818461037BD4680BD80B58CB004AFF860B9603B601346FB80FB889B00CD
:400B8000184600F08BFF78617B69002B0ED0502000F084FFF861FB69002B03D0FB697A691A6305E0786901F00BF801E00023FB61FB69002B13D0FA8800230393FB69029375
:400BC000FB6A0193BB6A00933B68B968F86800F00FF8F86900F084F80123BB6102E04FF0FF33BB61BB6918462037BD4680BD00BF80B586B000AFF860B9607A603B60BB6AB0
:400C0000186B7B689B001A46A52104F0CEFABB6A1A6B7B6803F18043013B9B0013443B613B6923F007033B6100237B6112E0BA687B6913441978BA6A7B69134434330A4671
:400C40001A70BA687B6913441B78002B06D07B6901337B617B690B2BE9D900E000BFBB6A002283F83F203B6A042B01D904233B62BB6A3A6ADA62BB6A3A6A1A64BB6A002264
:400C80005A64BB6A04331846FFF71CFABB6A18331846FFF717FABB6ABA6A1A613B6AC3F10502BB6A9A61BB6ABA6A5A62BB6A00229A64BB6A002283F84C203A68F96838697B
:400CC00000F0CEFD0246BB6A1A607B6A002B02D07B6ABA6A1A6000BF1837BD4680BD00BF80B582B000AF786000F046FE2A4B1B680133294A1360294B1B68002B09D1274A3F
:400D00007B681360244B1B68012B10D100F036FB0DE0234B1B68002B09D1204B1B68DA6A7B68DB6A9A4202D81C4A7B6813601D4B1B6801331B4A13607B68DB6A01229A4072
:400D4000194B1B681343184A13607B68DA6A13469B0013449B00154A1A447B68043319461046FFF7BBF900F01FFE0D4B1B68002B0ED00A4B1B68DA6A7B68DB6A9A4207D234
:400D80000B4B4FF080521A60BFF34F8FBFF36F8F00BF0837BD4680BD1C82FF1F6C81FF1F2882FF1F3882FF1F2482FF1F7081FF1F04ED00E080B584B000AF78600023FB605B
:400DC0007B68002B08D000F04FF80021786800F0E1FC00F057F8F860FB68002B07D1064B4FF080521A60BFF34F8FBFF36F8F00BF1037BD4680BD00BF04ED00E080B584B0B0
:400E000002AF134B0193002300930023642211491148FFF7ABFE78607B68012B14D14FF0A00383F31188BFF36F8FBFF34F8F3B600A4B4FF0FF321A60094B01221A60094B42
:400E400000221A6000F078FD00BF0837BD4680BD4082FF1F085A00006D1300003C82FF1F2882FF1F2082FF1F80B400AF044B1B680133034A136000BFBD4680BC704700BFF0
:400E80004482FF1F80B584B000AF0023FB600023BB6000F071FD394B1B68013B374A1360364B1B68002B61D1354B1B68002B5DD02EE0344BDB68DB68FB60FB6818331846AF
:400EC000FFF768F9FB6804331846FFF763F9FB68DB6A01229A402C4B1B6813432A4A1360FB68DA6A13469B0013449B00274A1A44FB68043319461046FFF7F0F8FB68DA6A45
:400F0000234B1B68DB6A9A4202D3224B01221A601C4B1B68002BCCD1FB68002B01D000F0A9FA1D4B1B687B607B68002B10D000F037F80346002B02D0164B01221A607B6822
:400F4000013B7B607B68002BF1D1134B00221A60104B1B68002B09D00123BB600F4B4FF080521A60BFF34F8FBFF36F8F00F01CFDBB6818461037BD4680BD00BF4482FF1F96
:400F80001C82FF1FDC81FF1F2482FF1F7081FF1F6C81FF1F3082FF1F2C82FF1F04ED00E080B586B000AF00237B61464B1B68002B77D1454B1B6801333B61434A3B69136088
:400FC0003B69002B10D1414B1B68FB60404B1B683E4A13603E4AFB6813603E4B1B6801333C4A136000F046FA3B4B1B683A699A4248D3364B1B681B68002B04D1364B4FF01D
:40100000FF321A603EE0314B1B68DB68DB68BB60BB685B687B603A697B689A4203D22E4A7B6813602EE0BB6804331846FFF7B2F8BB689B6A002B04D0BB6818331846FFF732
:40104000A9F8BB68DB6A01229A40244B1B681343224A1360BB68DA6A13469B0013449B001F4A1A44BB68043319461046FFF736F8BB68DA6A1B4B1B68DB6A9A42B9D30123DB
:401080007B61B6E7174B1B68DA6A154913469B0013449B000B441B68012B07D901237B6104E0114B1B6801330F4A13600F4B1B68002B01D001237B617B6918461837BD463C
:4010C00080BD00BF4482FF1F2082FF1FD481FF1FD881FF1F3482FF1F3C82FF1F2482FF1F7081FF1F6C81FF1F2C82FF1F3082FF1F80B586B000AF2F4B1B68002B03D02E4BAE
:4011000001221A6051E02C4B00221A602B4B1B681B6B7B614FF0A5333B617B691A683B699A4211D17B6904331A683B699A420BD17B6908331A683B699A4205D17B690C33E5
:401140001A683B699A4208D01C4B1A681B4B1B6834331946104601F089F8194B1B687B607B68B3FA83F3FB70FB78C3F11F03FB60FA6813469B0013449B00124A1344BB6048
:40118000BB685B685A68BB685A60BB685A68BB6808339A4204D1BB685B685A68BB685A60BB685B68DB68054A136000BF1837BD4680BD00BF4482FF1F3082FF1F6C81FF1F7A
:4011C0002482FF1F7081FF1F80B582B000AF78603960074B1B68183319467868FEF7A2FF0121386800F0D6FA00BF0837BD4680BD6C81FF1F80B584B000AF78607B68DB68BF
:40120000DB68BB60BB6818331846FEF7C3FF1D4B1B68002B1CD1BB6804331846FEF7BAFFBB68DB6A01229A40174B1B681343164A1360BB68DA6A13469B0013449B00134A47
:401240001A44BB68043319461046FEF747FF05E0BB68183319460E48FEF740FFBB68DA6A0C4B1B68DB6A9A4205D90123FB600A4B01221A6001E00023FB60FB681846103772
:40128000BD4680BD4482FF1F2482FF1F7081FF1FDC81FF1F6C81FF1F3082FF1F80B483B000AF7860064B1A687B681A60054B1A687B685A6000BF0C37BD4680BC704700BF9D
:4012C0003482FF1F2082FF1F80B586B000AF7860396000F051FB1D4B1B683B617B685B683A69D31AFB603B681B68B3F1FF3F02D100237B6123E07B681A68154B1B689A427A
:4013000007D07B685A683B699A4202D801237B6115E03B681A68FB689A420BD93B681A68FB68D21A3B681A607868FFF7B7FF00237B6104E03B6800221A6001237B6100F06B
:4013400033FB7B6918461837BD4680BD2082FF1F3482FF1F80B400AF034B01221A6000BFBD4680BC704700BF3082FF1F80B582B000AF786000F042F8FCE700BF80B582B0A7
:4013800000AF00237B600CE07A6813469B0013449B00124A13441846FEF774FE7B6801337B607B68042BEFD90D48FEF76BFE0D48FEF768FE0C48FEF765FE0C48FEF762FED0
:4013C0000B48FEF75FFE0B4B054A1A600A4B054A1A6000BF0837BD4680BD00BF7081FF1F4882FF1F5C82FF1FDC81FF1FF081FF1F0882FF1FD481FF1FD881FF1F80B582B018
:4014000000AF19E000F0B8FA0F4BDB68DB687B607B6804331846FEF7BDFE0C4B1B68013B0A4A13600A4B1B68013B094A136000F0BBFA786800F00EF8054B1B68002BE1D19D
:4014400000BF0837BD4680BDF081FF1F1C82FF1F0482FF1F80B582B000AF78607B681B6B184600F0ADFB786800F0AAFB00BF0837BD4680BD80B483B000AF0C4B1B681B68CC
:40148000002B04D10A4B4FF0FF321A6008E0074B1B68DB68DB687B607B685B68044A136000BF0C37BD4680BC704700BFD481FF1F3C82FF1F80B584B000AF78607B68BB6074
:4014C0000023FB607B68002B69D0BB68DA6A364B1B68DB6A9A4259D2BB689B69002B06DB314B1B68DB6AC3F10502BB689A61BB685969BB68DA6A13469B0013449B002B4A79
:40150000134499423AD1BB6804331846FEF742FE0346002B15D1BB68DA6A244913469B0013449B000B441B68002B0AD1BB68DB6A012202FA03F3DA431D4B1B6813401C4A57
:401540001360194B1B68DA6ABB68DA62BB68DB6A01229A40164B1B681343154A1360BB68DA6A13469B0013449B00104A1A44BB68043319461046FEF7B1FD04E00A4B1B688A
:40158000DA6ABB68DA620123FB6008E0BB681A6C054B1B68DB6A9A4201D20123FB60FB6818461037BD4680BD6C81FF1F7081FF1F2482FF1F80B584B000AF78607B68BB601E
:4015C0000023FB607B68002B4FD0BB685B6C5A1EBB685A64BB68DA6ABB681B6C9A4244D0BB685B6C002B40D1BB6804331846FEF7D1FD0346002B15D1BB68DA6A1D491346DB
:401600009B0013449B000B441B68002B0AD1BB68DB6A012202FA03F3DA43174B1B681340154A1360BB681A6CBB68DA62BB68DB6AC3F10502BB689A61BB68DB6A01229A40F3
:401640000D4B1B6813430C4A1360BB68DA6A13469B0013449B00074A1A44BB68043319461046FEF73BFD0123FB60FB6818461037BD4680BD7081FF1F2482FF1F80B586B033
:4016800000AF786039607B683B610123FB607B68002B63D03B691A6C3B689A4202D23B687B6102E03B691B6C7B613B69DA6A7B699A4253D03B695A6CFB689A424ED13B69AF
:4016C000DB6ABB603B697A69DA623B699B69002B04DB7B69C3F105023B699A613B695969BA6813469B0013449B001E4A1344994234D13B6904331846FEF74CFD0346002BDF
:4017000015D13B69DA6A174913469B0013449B000B441B68002B0AD13B69DB6A012202FA03F3DA43104B1B6813400F4A13603B69DB6A01229A400C4B1B6813430A4A1360C8
:401740003B69DA6A13469B0013449B00054A1A443B69043319461046FEF7C0FC00BF1837BD4680BD7081FF1F2482FF1F80B400AF074B1B68002B04D0054B1B685A6C013209
:401780005A64034B1B681846BD4680BC704700BF6C81FF1F80B584B000AF78603960294B1B68FB60284B1B6804331846FEF7F2FC0346002B0BD1244B1B68DB6A012202FA8D
:4017C00003F3DA43214B1B681340204A13607B68B3F1FF3F0AD13B68002B07D01A4B1B68043319461A48FEF779FC26E0FA687B681344BB60144B1B68BA685A60BA68FB6828
:401800009A4209D2134B1A680F4B1B68043319461046FEF787FC10E00F4B1A680A4B1B68043319461046FEF77DFC0C4B1B68BA689A4202D2094ABB68136000BF1037BD4634
:4018400080BD00BF2082FF1F6C81FF1F2482FF1F0882FF1FD881FF1FD481FF1F3C82FF1F80B485B000AFF860B9607A60FB68043BFB60FB684FF080721A60FB68043BFB6004
:40188000BB6823F00102FB681A60FB68043BFB60084AFB681A60FB68143BFB607A68FB681A60FB68203BFB60FB6818461437BD4680BC7047B918000080B483B000AF0023F5
:4018C0003B604FF0A00383F31188BFF36F8FBFF34F8F7B6000BF3B68002BFCD000BF0C37BD4680BC704700BF0000000000000000074B19680868B0E8F00F80F30988BFF3A1
:401900006F8F4FF0000080F311884EF00D0E70476C81FF1F00BF00BF06480068006880F3088862B661B6BFF34F8FBFF36F8F00DF00BF00BF08ED00E080B500AF0C4A0C4B72
:401940001B6843F460031360094A094B1B6843F06043136000F088F8064B00221A60FFF7DBFFFFF7C5FBFFF7A7FF0023184680BD20ED00E0CC80FF1F80B483B000AF4FF07B
:40198000A00383F31188BFF36F8FBFF34F8F7B60044B1B680133034A136000BF0C37BD4680BC7047CC80FF1F80B483B000AF094B1B68013B074A1360064B1B68002B04D171
:4019C00000237B607B6883F3118800BF0C37BD4680BC7047CC80FF1F0000000000000000EFF30980BFF36F8F0D4B1A6820E9F00F10602DE908404FF0A00080F31188FFF7E9
:401A000077FB4FF0000080F31188BDE8084019680868B0E8F00F80F30988BFF36F8F70476C81FF1F00BF00BF80B582B000AF4FF0A00383F31188BFF36F8FBFF34F8F3B609E
:401A4000FFF7AEFA0346002B03D0064B4FF080521A6000237B607B6883F3118800BF0837BD4680BD04ED00E080B400AF084B00221A60084B00221A60074B4BF67F321A6027
:401A8000034B07221A6000BFBD4680BC704700BF10E000E018E000E014E000E080B588B000AF786000237B61FFF7DEF9404B1B68002B04D100F0BEF83D4B01221A607B68C9
:401AC000002B0ED008231A467B6813447B607B6803F00703002B04D07B6823F0070308337B607B68002B57D07B6847F6F772934252D8304BBB612F4B1B68FB6104E0FB6953
:401B0000BB61FB691B68FB61FB695A687B689A4203D2FB691B68002BF1D1FB69264A93423AD0BB691B68082213447B61FB691A68BB691A60FB695A687B68D31A082252000B
:401B4000934222D9FA697B681344FB60FB695A687B68D21AFB685A60FB697A685A60FB685B68BB60134B3B6102E03B691B683B613B691B685A68BB689A42F6D33B691A68D4
:401B8000FB681A603B69FA681A600C4B1A68FB695B68D31A094A1360FFF774F97B69002B01D100F073FB7B6918462037BD4680BD800200207002002078020020D080FF1F5E
:401BC00080B586B000AF78607B683B617B68002B27D008235B423A6913443B613B69FB60FFF742F9FB685B68BB60104B7B6102E07B691B687B617B691B685A68BB689A421C
:401C0000F6D37B691A68FB681A607B69FA681A60FB685A68064B1B681344054A1360FFF731F900BF1837BD4680BD00BF70020020D080FF1F80B483B000AF0F4B23F007030C
:401C40007B600E4A7B6813600C4B00225A600C4B47F6F8725A600A4B00221A607B683B603B6847F6F8725A603B68054A1A6000BF0C37BD4680BC70477882FF1F700200206F
:401C800078020020B0B5C2B002AF00F095FA2C4B1B68002B0ED03B462A4A1C4615460FCD0FC42B682380284B1B6839464022184600F034FB224B1B68002B0ED13B46234AAD
:401CC0001C4615460FCD0FC42B6823701E4B1B6839464022184600F021FB3B461C4A1C4615460FCD0FC42B681A46228002341B0C2370154B1B6839464022184600F00EFB28
:401D00000120FEF731FB0246124B1A60002301930223009300234FF480620F490F48FEF725FF002301930123009300234FF480620B490C48FEF71AFFFFF760F8FEE700BF65
:401D400090020020105A000084020020245A0000385A0000880200204C5A0000E9200000605A0000691D0000B0B5C8B000AF3B1D18603B1D00221A600023C7F81C31002356
:401D8000C7F81831002387F81731B44B1B684FF6FF72B349184600F0EDFA0346012BF4D1AF4B1B7887F81731AE4B1B684CF250311846FEF795FC0346002BE6D097F9173119
:401DC000312B43D10023C7F81C3116E0A34B1B684FF6FF72A249184600F0CCFAA04B93F90030D9B2A04AD7F81C3113440A461A70D7F81C310133C7F81C31D7F81C31072B15
:401E0000E4DD07F11403984A9849184603F0D6F9924B1B6807F114014022184600F07EFA914A9349934800F06FFD924B9A69904B9B6907F11400904903F0C0F9874B1B68C7
:401E400007F114014022184600F068FA97F91731322B01D101F00AFB97F91731342B41D1864B1B68002B1CD107F11403844A07CA03C31A800233120C1A70784B1B6807F168
:401E800014014022184600F049FA02F06FFB4FF4966002F0B3FA4FF47A7001F0F7FA02F04BFB764B1B68012B1CD107F11403754A07CA03C31A800233120C1A70674B1B6831
:401EC00007F114014022184600F028FA02F00AFD40F23A7002F04EFC4FF47A7001F0D6FA02F0E6FC97F91731352B3FD1634B1B68002B1BD107F11403634A1C4613460FCB4F
:401F000007C42370554B1B6807F114014022184600F004FA02F02AFB40F6340002F06EFA4FF47A7001F0B2FA02F006FB534B1B68012B1BD107F11403544A1C4613460FCB52
:401F400007C42370454B1B6807F114014022184600F0E4F902F0C6FC40F6340002F00AFC4FF47A7001F092FA02F0A2FC97F91731362B17D1414B1B68002B13D007F11403B9
:401F8000434A1C4615460FCD0FC42B682380334B1B6807F114014022184600F0BFF9012002F010FB97F91731372B17D1334B1B68002B13D007F11403364A1C4615460FCD05
:401FC0000FC42B682370254B1B6807F114014022184600F0A3F9012002F0D6FA97F91731382B1BD1254B1B68002B17D007F11403294A1C4615460FCD0FC42B681A4622800A
:4020000002341B0C2370154B1B6807F114014022184600F083F9002002F0D4FA97F91731392B17D1154B1B68002B13D007F114031A4A1C4615460FCD0FC42B682380074B38
:402040001B6807F114014022184600F067F9002002F09AFA0023C7F81C312CE08402002018030020880200201C030020845A0000D80200205C030020985A0000900200201A
:40208000B45A0000C05A0000CC5A0000DC5A0000EC5A0000005B0000145B0000285B00000F4AD7F81C31134420221A70D7F81C310133C7F81C31D7F81C31402BF0DD00239E
:4020C000C7F818310023C7F81C31002387F81731044B1868002300220021FEF75DF954E61C0300208802002090B5C3B000AF3B1D18603B1D00221A60274800F0E1FB274847
:4021000000F0DEFB264A4FF00003264CC2E90234234A4FF000034FF00004C2E90034204A4FF00003204CC2E90434204B1B684CF250311846FEF7D4FA0346002B28D01C4B64
:402140001B68012B08D1002001F0DAFC002001F0D7FD174B00221A6010490F4800F048FA0D4B5A6807F108031249184603F026F80B4A0A49084800F09FFA0849064800F034
:4021800089FB0A4B1868002300220021FEF704F90A20FEF70FFEC8E75C030020D802002000030020000044400000344088020020D480FF1F3C5B000080B500AF264B274A86
:4021C000DA62254B264A9A63234B264ADA6301F0CBF901F0F1FA01F001FD01F097FA01F04FFC01F029FC002001F08AFC01F048FD01F022FD002001F083FD00F0B1FE4021E9
:402200004FF4614000F050F801F0CEFF164B1B68012B0DD102F074FB02F0F2F940F23A7002F0A8FA4FF47A7001F030F902F040FB0D4B1B68002B0DD101F0D8F802F024F801
:4022400040F6340002F0DAF84FF47A7001F01EF902F072F900BF80BD0080FF1FF1180000E1190000291A00009002002080B485B000AF786039604FF0A00383F31188BFF3E0
:402280006F8FBFF34F8FFB60FEE700BF80B483B000AF4FF0A00383F31188BFF36F8FBFF34F8F7B60FEE700BF80B582B000AF78603960002201213868FDF7F0FF0246134BD7
:4022C0001A6001F087F8124801F036F8002201213868FDF7E3FF02460E4B1A6001F020F80D4800F0CFFF002000F028FF094B1B68002B05D0054B1B68002B01D0012300E0A9
:40230000002318460837BD4680BD00BF98020020FD230000940200208D24000080B586B000AFF860B9601346FB800023FB820023FB8214E0FB8ABA68134493F90030002B25
:4023400012D0FB8ABA68134493F900304FF0FF321946002000F02AF8FB8A0133FB82FA8AFB889A42E6D300E000BF00BF1837BD4680BD00BF80B586B000AFF860B9607A60DD
:4023800000237B61084B1B687A68B9681846FEF705F90346012B01D101237B617B6918461837BD4680BD00BF9802002080B586B000AFF8600B467A60FB7200237B610E4B01
:4023C000186807F10B0100237A68FDF7E5FF0346012B02D101237B6101E000237B61FFF7CBFA032000F0AAFEFFF7DEFA7B6918461837BD4680BD00BF9402002080B586B05F
:4024000000AF00237B600023FB700023BB7000237B6100F017FE0346FB70FB78DBB203F02003002B1ED000F02DFE03465BB2BB70EFF311824FF0A00383F31188BFF36F8F7A
:40244000BFF34F8FFA60BB60FB687B610D4B18683A1DB91C0023FEF749F87B693B613B6983F311887B68002B07D0074B4FF080521A60BFF34F8FBFF36F8F00BF1837BD4675
:4024800080BD00BF9802002004ED00E080B586B000AF00237B600023FB700023BB7000237B6100F05BFE0346FB70FB78DBB203F00103002B05D1FB78DBB203F00203002B8A
:4024C00029D0EFF311824FF0A00383F31188BFF36F8FBFF34F8FFA60BB60FB687B61154B1B683A1DB91C1846FEF7C2F90346012B09D197F90230DBB2184600F03BFE012026
:4025000000F01CFE02E0002000F018FE7B693B613B6983F311887B68002B07D0064B4FF080521A60BFF34F8FBFF36F8F00BF1837BD4680BD9402002004ED00E080B582B019
:4025400000AF03463960FB71FB79722B24D1012001F040FA3B68002BB8BF5B429BB2184601F0C4F93B68002B06DD002001F0F6F9012001F011FA0FE03B68002B06DA012045
:4025800001F0ECF9002001F007FA05E0002001F0E5F9002001F000FAFB796C2B24D1012001F018FA3B68002BB8BF5B429BB2184601F074F83B68002B06DD002001F0C0F8CC
:4025C000012001F0DBF80FE03B68002B06DA012001F0B6F8002001F0D1F805E0002001F0AFF8002001F0CAF800BF0837BD4680BD90B583B000AF786039607B685A687B68F1
:402600009B691A447B685A603B685A683B689B691A443B685A607B68DA697B681A6201F017FE0246234BA3FB02231B0AC3F5AE2303F5C3637A68D3613B68DA693B681A62E9
:4026400001F006FE02461B4BA3FB02231B0AC3F5AE2303F5C3633A68D3617B68DA687B689A603B68DA683B689A607B685C6801F023FA03469B01E2187B68DA603B685C68B6
:4026800001F01AFB03469B01E2183B68DA607B681A697B68DB681A447B681A613B681A693B68DB681A443B681A6100BF0C37BD4690BD00BFF11976052DE9B04386B000AF04
:4026C000F860B9607A607B68D3E90245FB68DB68184602F093FA02460B462046294602F0F3FA03460C469846A1467B68D3E90045FB681B69184602F081FA02460B462046E4
:40270000294602F0E1FA03460C461A4623464046494602F027F903460C469846A1467B68D3E90445FB68DA68FB689B68D31A184602F064FA02460B462046294602F0C4FAC6
:4027400003460C4625461C46FB68DA69FB681B6AD31A184602F042FA02460B462046294602F0B2FA03460C461A4623464046494602F0F8F803460C461846214602F0B6FC7F
:4027800003467B617B6913F5803F02DC404B7B6106E07B69B3F5803F02DB4FF6FF737B61FB687A695A617B68D3E90245BB68DB68184602F023FA02460B462046294602F049
:4027C00083FA03460C469846A1467B68D3E90045BB681B69184602F011FA02460B462046294602F071FA03460C461A4623464046494602F0B7F803460C469846A1467B68EE
:40280000D3E90445BB68DA68BB689B68D31A184602F0F4F902460B462046294602F054FA03460C4625461C46BB68DA69BB681B6AD31A184602F0D2F902460B462046294644
:4028400002F042FA03460C461A4623464046494602F088F803460C461846214602F046FC03467B617B6913F5803F02DC084B7B6106E07B69B3F5803F02DB4FF6FF737B612D
:40288000BB687A695A6100BF1837BD46BDE8B0830100FFFF80B582B000AF786039607B685B6919466C20FFF749FE3B685B6919467220FFF743FE00BF0837BD4680BD00BF8D
:4028C00080B483B000AF78607B6800225A607B680022DA607B6800229A607B6800221A617B6800229A617B6800225A617B6800221A607B6800221A627B680022DA6100BFAE
:402900000C37BD4680BC704780B48DB000AFF860B9607A607B681B78303BFB627B6801331B78303BBB627B6802331B78303B7B627B6803331B78303B3B627B6804331B782F
:40294000303BFB617B6805331B78303BBB617B6806331B78303B7B617B6807331B78303B3B61BB6A642202FB03F17A6A13469B0013445B00CA183B6A1A44FB689A61BB6921
:40298000642202FB03F17A6913469B0013445B00CA183B691A44BB689A61FB6A002B04D1FB689B695A42FB689A61FB69002B04D1BB689B695A42BB689A6100BF3437BD46DD
:4029C00080BC704780B582B000AF786039603A680021786802F0E9FB00BF0837BD4680BD80B584B000AFF860B9607A607A68B968F86802F0CFFB00BF1037BD4680BD00BF1F
:402A000080B483B000AF0346FB71FEE780B487B000AF7860396000233B6100237B6127E07B699B007A6813441B68BB60BB68FB73BB6823F0FF03BB6014E03B695B003A68C7
:402A400013441B781A46BB68134419463B695B003A6813445B780B703B6901333B61FB7B013BFB73FB7B002BE7D17B6901337B617B69252BD4D900BF1C37BD4680BC704723
:402A800080B582B000AF3C4B03221A803B4B18221A703B4B03221A803A4B18221A703A4B2F221A80394B18221A70394B2F221A80384B18221A70384B67221A80374B182212
:402AC0001A70374B02221A704FF0402308221A70344B03221A70344B344A1278D2B21A70334B10221A80334B41F251221A800023FB7019237B6014E0FB785B00DAB22E4B8F
:402B00001B78DBB203F00103DBB21343DBB203F00303FB704FF4F07001F00EFF7B68013B7B607B68002B02D0FB78032BE4D17B68002B02D10320FFF763FF204B4FF48072DD
:402B40001A801E4B07221A701D4B00221A701D4B48221A70194B00221A701B4B02221A701A4A1A4B1B78DBB243F01F03DBB2137000BF0837BD4680BD80400040824000407D
:402B80008440004086400040884000408A4000408C4000408E40004090400040924000400043004000420040A14600400801004922420040204200402542004004400040CE
:402BC000064000400840004001400040A243004080B483B000AF0B4B1B78FB710A4AFB7903F00703DBB21370084AFB791B09DBB21370074B44221A7000BF0C37BD4680BC64
:402C0000704700BFCF0100496E5800406F5800407658004080B586B000AF72B6534A534B1B78DBB243F00403DBB213700023FB7513E0FA7D13465B0013445B004C4A1344B3
:402C40003B613B691A683B699B889BB219461046FFF7B8FEFB7D0133FB75FB7D062BE8D90023FB751CE0FA7D13469B0013445B00404A1344FB60FB681B68BB60FB685B6888
:402C80007B60FB681A7A5B7A1B0213437B807B881A467968B868FFF7A3FEFB7D0133FB75FB7D012BDFD934494FF09040FFF7AEFE324B334A1A60334B334A1A60334A334B7A
:402CC0001B78DBB243F00203DBB21370304A304B1B78DBB243F00203DBB213702D4A2D4B1B78DBB243F04003DBB213702A4A2A4B1B78DBB243F01003DBB213700822274981
:402D00002748FFF76DFE082226492748FFF768FE082226492648FFF763FE082225492648FFF75EFE082225492548FFF759FE254A244B1B78DBB243F00803DBB21370224B9E
:402D400061221A70FFF79CFE1F4BC1221A701F4B01221A70FFF73CFF0E220E491C48FFF73FFE00BF1837BD4680BD00BFE8460040545B0000805B000098000048D808014073
:402D800004040444D80C0140040404C40350014013500140A0430040C2430040A40E004802510040AC0E0048C2510040B40E0048F2510040BC0E004812510040C40E0048F0
:402DC00032510040224300400048004004000840B043004080B500AF02F0B0F903461B680C2B00D1FEE7FEE780B584B000AF78600F4B1A687B6813441A460E4BD31A002B70
:402E000009DC0B4B1B68FB60094B1A687B681344074A136007E002F091F902460C2313604FF0FF33FB60FB6818461037BD4680BDD880FF1F8807002080B586B000AF224B98
:402E40007B61224B3B61204B7B6135E03B691B68FB603B695B68BB603B699B683B6000237B600CE0FB681A68BB681A60BB680433BB60FB680433FB607B6804337B607A681E
:402E80003B689A42EED13B69DB683B6000237B6008E0BB6800221A60BB680433BB607B6804337B607A683B689A42F2D13B6910333B617B69013B7B617B69002BC6D102F008
:402EC00043F9FEF7DFFEFEE701000000F05B000080B582B000AF184B184A1A60184A184B1B6843F40073136000237B600FE07B68032B04D8134A7B6852F8233000E0124BE5
:402F000012497A6841F822307B6801337B607B682F2BECD90E4B1B78DAB20E4B1A700E4B0A4A1A60FFF776FE0C4B00221A6000BF0837BD4680BD00BF0CED00E00004FA051D
:402F400014ED00E000000000D52D00000080FF1FBC760040C480FF1F08ED00E0C080FF1F80B500AF064B1B78002B04D100F00AF8034B01221A7000F031F800BF80BD00BF40
:402F80009C02002080B500AF0D49022000F0A0FA0721022000F0C4FA0A4B00221A700A4B72221A70094B20221A70094B06221A70084B47221A70084B03221A7000BF80BD97
:402FC000A93100009D02002080640040836400402B6400403B6400408865004080B582B000AF01F0B1FC0346FB71124A114B1B78DBB243F02003DBB213700F4A0E4B1B7826
:40300000DBB243F01003DBB213700C4B04221A600B4A0B4B1B78DBB243F01003DBB2137000F0FEF9FB79184601F092FC00BF0837BD4680BD906400409364004000E100E0F3
:403040009865004080B483B000AF0C4B1B78DBB203F07F03FB710A4B1B78DBB2002B06D0FB7963F07F03FB71054B00221A70FB7918460C37BD4680BC704700BF63640040AD
:40308000A302002080B483B000AF0023FB71234B04221A60224B1B88BB80224B1B887B80214B1B78DBB2002B03D1BA887B889A4218D0BB881D4AD35CFB71BB880133BB80B7
:4030C000BB88B3F5806F01D30023BB80144ABB881380154B1B78DBB2002B15D0124B00221A7011E0124B1B787B707B7803F02003002B09D00F4B1B78FB717B7803F01E03BE
:40310000002B01D00023FB710B4B04221A60FB7918460C37BD4680BC704700BF80E100E09E020020A0020020A202002080030020636400404064004000E100E080B483B007
:4031400000AF0346FB71044AFB79137000BF0C37BD4680BC704700BF8865004080B400AF034B1B78DBB21846BD4680BC704700BF6865004080B483B000AF0346FB7100BFC7
:40318000074B1B78DBB203F00403002BF8D1054AFB79137000BF0C37BD4680BC704700BF686500404864004080B483B000AF0023FB712C4B1B78BB71BB797B71BB7903F097
:4031C0001E03002B0CD097F9063003F01E035AB2254B1B785BB213435BB2DAB2224B1A70BB7903F02003002B31D0204B1B787B711F4B1B889BB219461E4A7B79535401238B
:40320000FB71FB79002B22D01B4B1B78DBB2002B02D01A4B01221A70154B1B889BB201339AB2134B1A80124B1B889BB2B3F5806F02D30F4B00221A800D4B1B889AB2104BC3
:403240001B889BB29A4202D10B4B01221A70BB7903F02003002BACD100BF0C37BD4680BC704700BF636400409D02002040640040A002002080030020A2020020A30200206B
:403280009E02002080B582B000AF786000F03CF8786800F009F8052000F018F800F028F800BF0837BD4680BD80B485B000AF7860054B1B68FB60FB6850337A681A6000BFD9
:4032C0001437BD4680BC704708ED00E080B483B000AF0346FB71054AFB795B01DBB2137000BF0C37BD4680BC704700BF04E400E080B400AF034B10221A6000BFBD4680BC64
:40330000704700BF00E100E080B400AF034B10221A6000BFBD4680BC704700BF80E100E080B400AF034B10221A6000BFBD4680BC704700BF80E200E080B582B000AF786043
:4033400000F03CF8786800F009F8052000F018F800F028F800BF0837BD4680BD80B485B000AF7860054B1B68FB60FB684C337A681A6000BF1437BD4680BC704708ED00E0B4
:4033800080B483B000AF0346FB71054AFB795B01DBB2137000BF0C37BD4680BC704700BF03E400E080B400AF034B08221A6000BFBD4680BC704700BF00E100E080B400AFA8
:4033C000034B08221A6000BFBD4680BC704700BF80E100E080B400AF034B08221A6000BFBD4680BC704700BF80E200E080B400AF094A094B1B78DBB243F00403DBB21370A7
:40340000064A064B1B78DBB243F00403DBB2137000BFBD4680BC7047A2430040B243004080B400AF094A094B1B78DBB243F01003DBB21370064A064B1B78DBB243F010036B
:40344000DBB2137000BFBD4680BC7047A2430040B243004080B483B000AF0346FB7101BE00BF0C37BD4680BC704700BF80B400AF054A054B1B78DBB243F00103DBB2137003
:4034800000BFBD4680BC7047F646004080B582B000AF786008E00C4B1B68184601F04CFA7B68A3F500437B607B68B3F5004FF2D8064B1B687A6802FB03F3184601F03CFA2B
:4034C00000BF0837BD4680BDE880FF1FE080FF1F80B584B000AF03463960FB710F4B1B68FB60FB791F2B02D90020FFF7B3FFFB7903F01F0310339B00FA6813441B68BB60CD
:40350000FB7903F01F0310339B00FA6813443A681A60BB6818461037BD4680BD08ED00E080B582B000AF03460A46FB711346BB71BB79072B02D90020FFF78CFFFB791F2B32
:4035400002D90020FFF786FFFB7903F01F0303F1604303F56443BA795201D2B21A7000BF0837BD4680BD00BF80B500AF064B1B78002B04D100F00AF8034B01221A7000F0E0
:403580004FF800BF80BD00BFA502002080B582B000AF204B1B78DBB223F03F03FB711D4AFB7943F00903DBB213701B4A1A4B1B78DBB243F00103DBB21370184A174B1B782E
:4035C000DBB243F00103DBB213704FF6FF7000F037F84FF6FF7000F051F87F2000F05EF8002000F06BF801F0AFF90346BB710A4A094B1B78DBB243F01003DBB21370BB797F
:40360000184601F0A5F900F02BF800BF0837BD4680BD00BF72640040926400409364004080B400AF054A054B1B78DBB263F07F03DBB2137000BFBD4680BC704772640040B8
:4036400080B483B000AF0346FB80044AFB88138000BF0C37BD4680BC704700BF0468004080B500AF01E000F045F800F037F8034603F01003002BF6D100BF80BD80B483B0F4
:4036800000AF0346FB80044AFB88138000BF0C37BD4680BC704700BF8468004080B483B000AF0346FB80044AFB88138000BF0C37BD4680BC704700BF4468004080B483B008
:4036C00000AF0346FB71044AFB79137000BF0C37BD4680BC704700BF8264004080B400AF034B1B78DBB21846BD4680BC704700BF6264004080B400AF034B1B889BB218465B
:40370000BD4680BC704700BFA468004080B400AF094A094B1B78DBB243F00103DBB21370064A064B1B78DBB243F00103DBB2137000BFBD4680BC7047A2430040B243004080
:4037400080B485B000AF0346FB710B4B1B78DBB223F01003FB730849FB791B01DBB203F01003DAB2FB7B1343DBB20B7000BF1437BD4680BC704700BF0051004080B485B0E5
:4037800000AF0346FB710B4B1B78DBB223F02003FB730849FB795B01DBB203F02003DAB2FB7B1343DBB20B7000BF1437BD4680BC704700BF0051004080B500AF064B1B784F
:4037C000002B04D100F00AF8034B01221A7000F04FF800BF80BD00BFA602002080B582B000AF204B1B78DBB223F03F03FB711D4AFB7943F00903DBB213701B4A1A4B1B7839
:40380000DBB243F00103DBB21370184A174B1B78DBB243F00103DBB213704FF6FF7000F037F84FF6FF7000F051F87F2000F05EF8002000F06BF801F087F80346BB710B4A37
:403840000A4B1B78DBB243F01003DBB21370BB79184601F07DF800F02BF800BF0837BD4680BD00BF75640040946400409564004080B400AF054A054B1B78DBB263F07F0374
:40388000DBB2137000BFBD4680BC70477564004080B483B000AF0346FB80044AFB88138000BF0C37BD4680BC704700BF0868004080B500AF01E000F045F800F037F803462B
:4038C00003F01003002BF6D100BF80BD80B483B000AF0346FB80044AFB88138000BF0C37BD4680BC704700BF8868004080B483B000AF0346FB80044AFB88138000BF0C376F
:40390000BD4680BC704700BF4868004080B483B000AF0346FB71044AFB79137000BF0C37BD4680BC704700BF8564004080B400AF034B1B78DBB21846BD4680BC704700BF8E
:403940006564004080B400AF034B1B889BB21846BD4680BC704700BFA868004080B485B000AF0346FB710B4B1B78DBB223F00203FB730849FB795B00DBB203F00203DAB2C0
:40398000FB7B1343DBB20B7000BF1437BD4680BC704700BF0051004080B485B000AF0346FB710B4B1B78DBB223F00403FB730849FB799B00DBB203F00403DAB2FB7B1343D9
:4039C000DBB20B7000BF1437BD4680BC704700BF0051004080B485B000AF0346FB710B4B1B78DBB223F00803FB730849FB79DB00DBB203F00803DAB2FB7B1343DBB20B7015
:403A000000BF1437BD4680BC704700BF0051004080B500AF064B01221A6006490020FFF757FD07210020FFF77BFD00BF80BD00BF80E100E07D3B000080B582B000AF0F20FC
:403A400000F088F800F078F800F07EFF0346FB71094A094B1B78DBB243F01003DBB21370FB79184600F074FF044B01221A6000BF0837BD4680BD00BF9F64004000E100E015
:403A800080B500AF00F0FAF94FF4004000F024FA074B00221A60074B1B78002B04D1FFF7B7FF044B01221A70FFF7C6FF00BF80BDA8020020A702002080B582B000AF0D4B7B
:403AC00001221A6000F018FA0346FB80FB88A3F500439BB2BB80B7F90420074B1B6813443B60064B01221A603B6818460837BD4680BD00BF80E100E0A802002000E100E0E9
:403B000080B582B000AF7860084B01221A604FF4004000F0E1F9064A7B681360054B01221A6000BF0837BD4680BD00BF80E100E0A802002000E100E080B400AF044B1B7839
:403B4000DBB203F00F03DBB21846BD4680BC70476F64004080B483B000AF0346FB71FB7943F00703FB71044AFB79137000BF0C37BD4680BC704700BF8F64004080B483B041
:403B800000AF144B1B78FB71FB7903F00103002B07D0114B1B6803F5FF437F330E4A13600AE0FB7903F00203002B05D00A4B1B68A3F50043084A1360FB7903F00403002B8E
:403BC00002D0054B00221A6000BF0C37BD4680BC704700BF6F640040A802002080B400AF094A094B1B78DBB243F00203DBB21370064A064B1B78DBB243F00203DBB2137078
:403C000000BFBD4680BC7047A2430040B243004080B500AF064B02221A6006490120FFF757FC07210120FFF77BFC00BF80BD00BF80E100E07D3D000080B582B000AF0F2038
:403C400000F088F800F078F800F07EFE0346FB71094A094B1B78DBB243F01003DBB21370FB79184600F074FE044B02221A6000BF0837BD4680BD00BF9665004000E100E01C
:403C800080B500AF00F0D2F94FF4004000F0FCF9074B00221A60074B1B78002B04D1FFF7B7FF044B01221A70FFF7C6FF00BF80BDB0020020AC02002080B582B000AF0D4BBD
:403CC00002221A6000F0F0F90346FB80FB88A3F500439BB2BB80B7F90420074B1B6813443B60064B02221A603B6818460837BD4680BD00BF80E100E0B002002000E100E006
:403D000080B582B000AF7860084B02221A604FF4004000F0B9F9064A7B681360054B02221A6000BF0837BD4680BD00BF80E100E0B002002000E100E080B400AF044B1B7855
:403D4000DBB203F00F03DBB21846BD4680BC70476665004080B483B000AF0346FB71FB7943F00703FB71044AFB79137000BF0C37BD4680BC704700BF8665004080B483B04F
:403D800000AF144B1B78FB71FB7903F00103002B07D0114B1B6803F5FF437F330E4A13600AE0FB7903F00203002B05D00A4B1B68A3F50043084A1360FB7903F00403002B8C
:403DC00002D0054B00221A6000BF0C37BD4680BC704700BF66650040B002002080B582B000AF1C4B1B78DBB223F00703FB71194AFB791370174B1B78DBB223F00303FB71EA
:403E0000144AFB79137000F0B3F84FF4004000F08FF84FF4004000F05FF8002000F040F800F04EF84FF4004000F092F800F08CFD0346BB71084A084B1B78DBB243F010035A
:403E4000DBB21370BB79184600F082FD00BF0837BD4680BD7D6400409D64004080B400AF054A054B1B78DBB263F07F03DBB2137000BFBD4680BC70477D64004080B500AF50
:403E8000064B1B78002B04D1FFF7A8FF034B01221A70FFF7E3FF00BF80BD00BFB402002080B483B000AF0346FB71044AFB79137000BF0C37BD4680BC704700BF8D64004025
:403EC00080B400AF034B1B78DBB21846BD4680BC704700BF6D64004080B483B000AF0346FB80044AFB88138000BF0C37BD4680BC704700BF1868004080B400AF044B1B78D3
:403F0000044B1B889BB21846BD4680BC704700BF0C6400409868004080B400AF034B1B889BB21846BD4680BC704700BF9868004080B483B000AF0346FB80044AFB8813808D
:403F400000BF0C37BD4680BC704700BF5868004080B483B000AF0346FB80044AFB88138000BF0C37BD4680BC704700BF7868004080B500AF01E0FFF7CFFFFFF7A1FF03460D
:403F800003F04003002BF6D100BF80BD80B582B000AF1C4B1B78DBB223F00703FB71194AFB791370174B1B78DBB223F00303FB71144AFB79137000F0B3F84FF4004000F0F3
:403FC0008FF84FF4004000F05FF8002000F040F800F04EF84FF4004000F092F800F0B4FC0346BB71084A084B1B78DBB243F01003DBB21370BB79184600F0AAFC00BF08379F
:40400000BD4680BD7B6400409964004080B400AF054A054B1B78DBB263F07F03DBB2137000BFBD4680BC70477B64004080B500AF064B1B78002B04D1FFF7A8FF034B0122B3
:404040001A70FFF7E3FF00BF80BD00BFB502002080B483B000AF0346FB71044AFB79137000BF0C37BD4680BC704700BF8964004080B400AF034B1B78DBB21846BD4680BC6A
:40408000704700BF6964004080B483B000AF0346FB80044AFB88138000BF0C37BD4680BC704700BF1268004080B400AF044B1B78044B1B889BB21846BD4680BC704700BFB7
:4040C000096400409268004080B400AF034B1B889BB21846BD4680BC704700BF9268004080B483B000AF0346FB80044AFB88138000BF0C37BD4680BC704700BF526800407C
:4041000080B483B000AF0346FB80044AFB88138000BF0C37BD4680BC704700BF7268004080B500AF01E0FFF7CFFFFFF7A1FF034603F04003002BF6D100BF80BD80B582B07D
:4041400000AF4FF0FF3000F05DF84FF0FF3000F071F800F0F9FB0346FB710A4A094B1B78DBB243F01003DBB21370FB79184600F0EFFB00F07BF8002000F028F800BF083722
:40418000BD4680BD9B65004080B400AF054A054B1B78DBB263F07F03DBB2137000BFBD4680BC70477B65004080B500AF064B1B78002B04D1FFF7C2FF034B01221A70FFF7B3
:4041C000E3FF00BF80BD00BFB602002080B483B000AF0346FB71044AFB79137000BF0C37BD4680BC704700BF8B65004080B400AF034B1B78DBB21846BD4680BC704700BFEF
:404200006B65004080B483B000AF7860034A7B68136000BF0C37BD4680BC70472865004080B400AF024B1B681846BD4680BC70474865004080B483B000AF7860034A7B6806
:40424000136000BF0C37BD4680BC70470865004080B400AF034B1B78034B1B681846BD4680BC7047086500404865004080B500AF01E0FFF7D5FFFFF7B9FF034603F008031F
:40428000002BF6D100BF80BD80B500AF064B1B78002B04D100F00AF8034B01221A7000F04FF800BF80BD00BFB702002080B582B000AF204B1B78DBB223F03F03FB711D4AC7
:4042C000FB7943F00903DBB213701B4A1A4B1B78DBB243F00103DBB21370184A174B1B78DBB243F00103DBB2137044F6206000F047F844F6206000F071F84FF47A7000F086
:404300007DF8002000F08AF800F01EFB0346BB710A4A0A4B1B78DBB243F01003DBB21370BB79184600F014FB00F04AF800BF0837BD4680BD76640040966400409764004049
:4043400080B400AF054A054B1B78DBB263F07F03DBB2137000BFBD4680BC70477664004080B400AF054A054B1B78DBB203F07F03DBB2137000BFBD4680BC704776640040F1
:4043800080B483B000AF0346FB80044AFB88138000BF0C37BD4680BC704700BF0C68004080B400AF044B1B78044B1B889BB21846BD4680BC704700BF16640040AC6800402F
:4043C00080B500AF01E000F063F800F037F8034603F01003002BF6D100BF80BD80B483B000AF0346FB80044AFB88138000BF0C37BD4680BC704700BF8C68004080B483B0C1
:4044000000AF0346FB80044AFB88138000BF0C37BD4680BC704700BF4C68004080B483B000AF0346FB71044AFB79137000BF0C37BD4680BC704700BF8764004080B400AF25
:40444000034B1B78DBB21846BD4680BC704700BF6764004080B483B000AF044B1B78FB71FB7918460C37BD4680BC70477664004080B483B000AF0346FB71044AFB79137017
:4044800000BF0C37BD4680BC704700BF7664004080B400AF034B1B889BB21846BD4680BC704700BFAC68004080B400AF034B1B889BB21846BD4680BC704700BF8C6800403B
:4044C00080B500AFFFF7F0FF03461A460A4B9A80FFF766FF03461A46074B5A80074B1B78DAB2054B9A71FFF7B5FF03461A46024BDA7100BF80BD00BFB80200208764004034
:4045000080B500AF0A4B9B881846FFF767FF084B5B881846FFF734FF064B054A92791A70034BDB791846FFF7A3FF00BF80BD00BFB80200208764004080B500AF094B1B7850
:40454000DBB25BB2002B03DA074B01221A7002E0054B00221A70FFF703FFFFF7B1FF00BF80BD00BF76640040B802002080B500AFFFF7C6FF034B1B78002B01D0FFF7E0FE1F
:4045800000BF80BDB802002080B485B000AF0346FB710B4B1B78DBB223F00403FB730849FB799B00DBB203F00403DAB2FB7B1343DBB20B7000BF1437BD4680BC704700BF54
:4045C000C051004080B485B000AF0346FB710B4B1B78DBB223F00803FB730849FB79DB00DBB203F00803DAB2FB7B1343DBB20B7000BF1437BD4680BC704700BFC051004000
:4046000080B500AF064B1B78002B04D100F00AF8034B01221A7000F04FF800BF80BD00BFC002002080B582B000AF204B1B78DBB223F03F03FB711D4AFB7943F00903DBB2E8
:4046400013701B4A1A4B1B78DBB243F00103DBB21370184A174B1B78DBB243F00103DBB2137044F6206000F047F844F6206000F071F84FF47A7000F07DF8002000F08AF83B
:4046800000F062F90346BB710A4A0A4B1B78DBB243F01003DBB21370BB79184600F058F900F04AF800BF0837BD4680BD75650040946500409565004080B400AF054A054BC9
:4046C0001B78DBB263F07F03DBB2137000BFBD4680BC70477565004080B400AF054A054B1B78DBB203F07F03DBB2137000BFBD4680BC70477565004080B483B000AF034691
:40470000FB80044AFB88138000BF0C37BD4680BC704700BF086A004080B400AF044B1B78044B1B889BB21846BD4680BC704700BF14650040A86A004080B500AF01E000F05A
:4047400063F800F037F8034603F01003002BF6D100BF80BD80B483B000AF0346FB80044AFB88138000BF0C37BD4680BC704700BF886A004080B483B000AF0346FB80044A33
:40478000FB88138000BF0C37BD4680BC704700BF486A004080B483B000AF0346FB71044AFB79137000BF0C37BD4680BC704700BF8565004080B400AF034B1B78DBB218469A
:4047C000BD4680BC704700BF6565004080B483B000AF044B1B78FB71FB7918460C37BD4680BC70477565004080B483B000AF0346FB71044AFB79137000BF0C37BD4680BC20
:40480000704700BF7565004080B400AF034B1B889BB21846BD4680BC704700BFA86A004080B400AF034B1B889BB21846BD4680BC704700BF886A004080B500AFFFF7F0FF33
:4048400003461A460A4B9A80FFF766FF03461A46074B5A80074B1B78DAB2054B9A71FFF7B5FF03461A46024BDA7100BF80BD00BFC40200208565004080B500AF0A4B9B8812
:404880001846FFF767FF084B5B881846FFF734FF064B054A92791A70034BDB791846FFF7A3FF00BF80BD00BFC40200208565004080B500AF094B1B78DBB25BB2002B03DA7C
:4048C000074B01221A7002E0054B00221A70FFF703FFFFF7B1FF00BF80BD00BF75650040C402002080B500AFFFF7C6FF034B1B78002B01D0FFF7E0FE00BF80BDC402002050
:4049000080B400AF094A094B1B78DBB243F00803DBB21370064A064B1B78DBB243F00803DBB2137000BFBD4680BC7047A2430040B2430040000000000230800803D000BF15
:4049400001380046FCD17047EFF3108072B6704780F31088704700BF81F0004102E000BF83F0004330B54FEA41044FEA430594EA050F08BF90EA020F1FBF54EA000C55EA2A
:40498000020C7FEA645C7FEA655C00F0E2804FEA5454D4EB5555B8BF6D420CDD2C4480EA020281EA030382EA000083EA010180EA020281EA0303362D88BF30BD11F0004FFB
:4049C0004FEA01314FF4801C4CEA113102D0404261EB410113F0004F4FEA03334CEA133302D0524263EB430394EA050F00F0A780A4F10104D5F1200E0DDB02FA0EFC22FA9B
:404A000005F2801841F1000103FA0EF2801843FA05F359410EE0A5F120050EF1200E012A03FA0EFC28BF4CF0020C43FA05F3C01851EBE37101F0004507D54FF0000EDCF14E
:404A4000000C7EEB00006EEB0101B1F5801F1BD3B1F5001F0CD349085FEA30004FEA3C0C04F101044FEA445212F5800F80F09A80BCF1004F08BF5FEA500C50F1000041EB86
:404A8000045141EA050130BD5FEA4C0C404141EB010111F4801FA4F10104E9D191F0000F04BF01460020B1FA81F308BF2033A3F10B03B3F120020CDA0C3208DD02F1140CC4
:404AC000C2F10C0201FA0CF021FA02F10CE002F11402D8BFC2F1200C01FA02F120FA0CFCDCBF41EA0C019040E41AA2BF01EB0451294330BD6FEA04041F3C1CDA0C340EDCFD
:404B000004F11404C4F1200220FA04F001FA02F340EA030021FA04F345EA030130BDC4F10C04C4F1200220FA02F001FA04F340EA0300294630BD21FA04F0294630BD94F022
:404B4000000F83F4801306BF81F480110134013D4EE77FEA645C18BF7FEA655C29D094EA050F08BF90EA020F05D054EA000C04BF1946104630BD91EA030F1EBF0021002073
:404B800030BD5FEA545C05D14000494128BF41F0004130BD14F580043CBF01F5801130BD01F0004545F0FE4141F470014FF0000030BD7FEA645C1ABF194610467FEA655CD0
:404BC0001CBF0B46024650EA013406BF52EA033591EA030F41F4002130BD00BF90F0000F04BF0021704730B54FF4806404F132044FF000054FF0000150E700BF90F0000FA0
:404C000004BF0021704730B54FF4806404F1320410F0004548BF40424FF000013EE700BF42004FEAE2014FEA31014FEA02701FBF12F07F4393F07F4F81F06051704792F0EE
:404C4000000F14BF93F07F4F704730B54FF4607401F0004521F0004120E700BF50EA010208BF704730B54FF000050AE050EA010208BF704730B511F0004502D5404261EBA7
:404C800041014FF4806404F132045FEA915C3FF4DCAE4FF003025FEADC0C18BF03325FEADC0C18BF033202EBDC02C2F1200300FA03FC20FA02F001FA03FE40EA0E0021FABA
:404CC00002F11444C1E600BF70B54FF0FF0C4CF4E06C1CEA11541DBF1CEA135594EA0C0F95EA0C0F00F0DEF82C4481EA030621EA4C5123EA4C5350EA013518BF52EA033567
:404D000041F4801143F4801338D0A0FB02CE4FF00005E1FB02E506F00042E0FB03E54FF00006E1FB03569CF0000F18BF4EF0010EA4F1FF04B6F5007F64F5407404D25FEA47
:404D40004E0E6D4146EB060642EAC62141EA55514FEAC52040EA5E504FEACE2EB4F1FD0C88BFBCF5E06F1ED8BEF1004F08BF5FEA500E50F1000041EB045170BD06F000465B
:404D800046EA010140EA020081EA0301B4EB5C04C2BFD4EB0C0541EA045170BD41F480114FF0000E013C00F3AB8014F1360FDEBF002001F0004170BDC4F10004203C35DA31
:404DC0000C341BDC04F11404C4F1200500FA05F320FA04F001FA05F240EA020001F0004221F0004110EBD37021FA04F642EB06015EEA430E08BF20EAD37070BDC4F10C04CC
:404E0000C4F1200500FA04F320FA05F001FA04F240EA020001F0004110EBD37041F100015EEA430E08BF20EAD37070BDC4F1200500FA05F24EEA020E20FA04F301FA05F2E8
:404E400043EA020321FA04F001F0004121FA04F220EA020000EBD3705EEA430E08BF20EAD37070BD94F0000F0FD101F00046400041EB010111F4801F08BF013CF7D041EAE8
:404E8000060195F0000F18BF704703F00046520043EB030313F4801F08BF013DF7D043EA0603704794EA0C0F0CEA135518BF95EA0C0F0CD050EA410618BF52EA4306D1D1E8
:404EC00081EA030101F000414FF0000070BD50EA410606BF1046194652EA430619D094EA0C0F02D150EA013613D195EA0C0F05D152EA03361CBF104619460AD181EA0301BC
:404F000001F0004141F0FE4141F470014FF0000070BD41F0FE4141F4780170BD70B54FF0FF0C4CF4E06C1CEA11541DBF1CEA135594EA0C0F95EA0C0F00F0A7F8A4EB050468
:404F400081EA030E52EA03354FEA013100F088804FEA03334FF0805545EA131343EA12634FEA022245EA111545EA10654FEA00260EF000419D4208BF964244F1FD0404F5C3
:404F8000407402D25B084FEA3202B61A65EB03055B084FEA32024FF480104FF4002CB6EB020E75EB030E22BFB61A754640EA0C005B084FEA3202B6EB020E75EB030E22BFC8
:404FC000B61A754640EA5C005B084FEA3202B6EB020E75EB030E22BFB61A754640EA9C005B084FEA3202B6EB020E75EB030E22BFB61A754640EADC0055EA060E18D04FEAA4
:40500000051545EA16754FEA06164FEAC30343EA52734FEAC2025FEA1C1CC0D111F4801F0BD141EA00014FF000004FF0004CB6E711F4801F04BF01430020B4F1FD0C88BF74
:40504000BCF5E06F3FF6AFAEB5EB030C04BFB6EB020C5FEA500C50F1000041EB045170BD0EF0004E4EEA113114EB5C04C2BFD4EB0C0541EA045170BD41F480114FF0000EB3
:40508000013C90E645EA060E8DE60CEA135594EA0C0F08BF95EA0C0F3FF43BAF94EA0C0F0AD150EA01347FF434AF95EA0C0F7FF425AF104619462CE795EA0C0F06D152EA83
:4050C00003353FF4FDAE1046194622E750EA410618BF52EA43067FF4C5AE50EA41047FF40DAF52EA43057FF4EBAE12E74FEA410212F5001215D211D56FF47873B3EB6252E0
:4051000012D94FEAC12343F0004343EA505311F0004F23FA02F018BF404270474FF00000704750EA013005D111F0004008BF6FF0004070474FF00000704700BF014B18689C
:40514000704700BF4C81FF1F0E4B70B51E460E4C0025E41AA410A54204D056F8253098470135F8E700F032FD084B094C1E46E41AA4100025A54204D056F8253098470135F4
:40518000F8E770BDD85B0000D85B0000D85B0000E05B000010B5431E0A44914204D011F8014B03F8014FF8E710BD03460244934202D003F8011BFAE7704700000EB400B54C
:4051C0004FF402719CB0ADF814106FF00041049107914FF6FF711DAB02900690084853F8042BADF81610006802A9019300F064F8029B00221A701CB05DF804EB03B0704727
:405200004C81FF1F2DE9F0478E6882469E420C46914698463ED88A8912F4906F3AD02568096902236F1A656905EB450595FBF3F57B1C43449D4238BF1D4653050FD529462A
:4052400000F040FB064698B13A462169FFF7A2FFA38923F4906343F08003A38113E02A4600F08EFB064670B92169504600F0DEFA0C23CAF80030A3894FF0FF3043F0400353
:40528000A381BDE8F08726613E44266046466561ED1BA560464528BF464649463246206800F0A8FAA36800209B1BA36023681E442660BDE8F08700002DE9F04F9DB00393F6
:4052C0008B8980461C060D4616460DD50B695BB9402100F0F7FA2860286118B90C23C8F80030CDE040236B610023099320238DF82930DFF89CB130238DF82A3037463C4645
:4053000014F8013B1BB9B7EB060910D003E0252BF9D02746F3E74B46324629464046FFF771FF013000F0A780099B4B4409933B78002B00F0A08000234FF0FF320493079350
:40534000059206938DF853301A930126052221784E4800F041FA671C049B38B14B4A3C46801A06FA00F018430490EFE7D90644BF20228DF853201A0744BF2B228DF85320AA
:4053800022782A2A03D0079A00210A200BE0039A111D12680391002A10DA524243F00200079204900BE027463B780134303B092B03D800FB02320121F5E701B107923B788D
:4053C0002E2B1ED17B782A2B0AD1039B02371A1D1B680392002BB8BF4FF0FF33059310E0002319460593781C0A2407463A780130303A092A03D804FB01210123F5E703B128
:40540000059103223978224800F0E6F940B14023CBEB000003FA00F0049B013718430490397806221B487E1C8DF8281000F0D4F988B1194B33B9039B073323F00703083301
:40544000039314E003AB00932A46144B04A94046AFF3008007E003AB00932A460F4B04A9404600F093F8B0F1FF3F824603D0099B5344099342E7AB895B0601D4099801E037
:405480004FF0FF301DB0BDE8F08F00BF965B00009C5B0000A05B000000000000055200002DE9F04791461F460A698B6806469342B8BF1346C9F8003091F843200C46DDF8B0
:4054C000208012B10133C9F800302368990642BFD9F800300233C9F80030256815F0060510D104F1190A07E00123524639463046C04701301AD00135E368D9F800209B1A5B
:405500009D42F1DB94F843302268003318BF012392060FD5E118302081F843005A1C94F845102244023382F8431003E04FF0FF30BDE8F08704F1430239463046C0470130F5
:40554000F4D02268D9F80050E36802F00602042A08BF5D1B2269A3680CBF25EAE57500259342C4BF9B1AED184FF000091A344D4509D00123224639463046C0470130D5D0AA
:4055800009F10109F3E70020BDE8F0872DE9F04317460A7E85B06E2A984606460C460C9B01F1430E00F0AE8011D8632A22D009D8002A00F0BB80582A40F0CA8081F84520DA
:4055C000834955E0642A1ED0692A1CD0C0E0732A00F0B08009D86F2A2ED0702A40F0B8800A6842F020020A603EE0752A24D0782A3AD0ADE01A6801F14205111D19601368E1
:4056000084F84230A8E021681A6811F0800F02D0111D196008E011F0400F02F10401196002D0B2F9003000E01368002B3CDA2D225B4284F8432037E021681A6811F0800F71
:4056400002D0111D196007E011F0400F02F10401196001D0138800E01368227E5C496F2A14BF0A2208221BE078225A4984F845202268186812F0800F00F104051D6003D13C
:40568000550601D5038800E00368D00744BF42F0200222601BB9226822F0200222601022002084F8430001E049490A226568002DA56008DB206820F0040020602BB9002D60
:4056C0007DD175460CE0002B79D07546B3FBF2F002FB1033CB5C05F8013D03460028F5D1082A0BD12368DA0708D5236962689A42DEBF302305F8013C05F1FF35C5EB0E037F
:4057000023612EE008681A6810F0800F496903D0101D1860136808E010F0400F02F104001860136801D0198000E0196000232361754616E01A68111D1960156800216268E4
:40574000284600F049F808B1401B6060636804E004F1420584F8422001232361002384F84330CDF800803B4603AA21463046FFF797FE013002D14FF0FF3026E023692A46E4
:4057800039463046C0470130F5D023689B0710D5002504F1190907E001234A4639463046C0470130E7D00135E368039A9B1A9D42F2DBE068039B9842B8BF184605E00B78AE
:4057C00004F1420584F842308AE705B0BDE8F083A75B0000B85B000010B5C9B202449042034605D01C7801308C42F8D1184610BD002010BD884210B501EB020301D8421E89
:405800000BE09842FBD28118D21AD34204D013F8014D01F8014DF8E710BD994204D011F8014B02F8014FF8E710BD000038B50546002944D051F8043C0C1F002BB8BFE4185B
:4058400000F0D4F81E4A1368114613B96360146030E0A3420DD92268A018834201BF18685B681218226063600C6023E0A24203D813465A68002AF9D118681918A1420BD12E
:405880002168014458188242196013D110685268014419605A600DE002D90C232B6009E021686018824201BF106852680918216062605C602846BDE8384000F098B838BDDD
:4058C000D002002070B5CD1C25F0030508350C2D38BF0C25002D064601DBA94202D90C23336046E000F082F8234B1C681A462146A1B10B685B1B0ED40B2B03D90B60CC1849
:40590000CD501EE08C420BBF63684B681360636018BF0C4615E00C464968E9E7174C23681BB9304600F052F820602946304600F04DF8431C18D0C41C24F00304A0420DD101
:405940002560304600F053F804F10B00231D20F00700C31A0ED05A42E25070BD211A304600F034F80130EBD10C233360304600F03EF8002070BD00BFD0020020CC020020E0
:40598000F8B5074615460E4621B91146BDE8F840FFF798BF1AB9FFF749FF2846F8BD00F027F885420ED929463846FFF78BFF044650B131462A46FFF7EDFB31463846FFF78A
:4059C00035FF01E03046F8BD2046F8BD38B5064C0023054608462360FDF706FA431C02D1236803B12B6038BD800700207047704751F8040C0028BEBF091851F8043CC01854
:405A0000043870470000000049444C45000000000A3D3D3D204D6173746572203D3D3D0A0A0000000A3D3D3D20536C617665203D3D3D0A0A000000000A3D3D3D204E45578B
:405A40002052554E203D3D3D0A0A0000696E697469616C6973652074686520504944000077616974696E6720666F7220612073657269616C2062757320746F20636F6D65F1
:405A800020696E0062756666657220726561642061732025730A00006C65667420696E633A2025690A726967687420696E633A2025690A00564552544943414C200A00001E
:405AC0004C61736572205550200A0000484F52495A4F4E54414C200A000000004C6173657220444F574E200A000000004C454420424C5545205455524E204F4E0A000000C6
:405B00004C454420524544205455524E204F4E0A000000004C454420424C5545205455524E204F46460A00004C454420524544205455524E204F46460A0000006C656674F1
:405B400020776865656C20696E633A20256C690A0000000020510040100040510040300080000140800F00140140000800400140000A004C014000021050014010000000FE
:405B800000000140140E0048800000500140940E004810004300232D302B2000686C4C006566674546470030313233343536373839414243444546003031323334353637BF
:405BC000383961626364656600000000F8B500BFF8BC08BC9E4670474D000000D12E0000F8B500BFF8BC08BC9E46704729000000005C0000C880FF1F880000003886000064
:405C000000000000AAAAAAAAF87F00000100000088070020006CDC0280BB0000300000000000C05D00000000000000000000000000000000000000000000000000000000C3
:405C400000000000945B0000000000000000000000000000000000000000000000000000000000000000000000000000000000000000000000000000000000000000000035
:405C800000000000EC80FF1F00000000000000000000000000000000000000000000000000000000000000000000000000000000000000000000000000000000000000005A
:405CC00000000000000000000000000000000000000000000000000000000000000000000000000000000000000000000000000000000000000000000000000000000000A4
:405D00000000000000000000000000000000000000000000000000000000000000000000000000000000000000000000000000000000000000000000000000000000000063
:405D40000000000000000000000000000000000000000000000000000000000000000000000000000000000000000000000000000000000000000000000000000000000023
:405D800000000000000000000000000000000000000000000000000000000000000000000000000000000000000000000000000000000000000000000000000000000000E3
:020000040003F7
:0200000480007A
:400000000452004008640040046500402E0101405C0201403703014057040140320501405306014034070140510801403D090140630A0140380B01405C0C0140480D01408F
:40004000470E01402E0F0140581401403E1501403A1601403B170140691801404A1901405D1A0140411B0140074001400A4101400442014004430140044601400147014015
:400080000948014006490140054C0140074D0140035001400251014000410980180261808072820D8338850D870D896F8D6F8F0F850D860F880F8B0D018002880320080288
:4000C00009800A100B0410A81201184019D61A101B20200221C8234829962A0130083180321033013504360438A039044044410848114A0452405B0869146A206B0170F84C
:40010000C00FC20FC40FCA0FCC0FCE0ED007D20CD602E60402011202230126022F013001340235013F104040410149FF4AFF4BFF4DA04F04501852805405580459045A043F
:400140005B045F01604062C06440654066C068C06AC06CC06EC0820485E389E38A018F18920895499601972299389BC09F18A118A208A518A602AA04AB18AD92AF25B001AF
:40018000B118B208B303B406B5E0B704BE15C040C101C5D0C602C701C816C9FFCAFFCBFFCDAFCE0FCF04D018D418D604D804D904DA04DB04DC40DD40DF01E040E2C0E440BA
:4001C000E540E6C0E8C0EAC0ECC0EEC00021074009080B400D0212481304150818041B051C081D021F02229923042708280229142A012F4231403218399441824582490216
:40020000518453405A025D825F08638A7740834091D493409404970499549A419C02A010A108A688A940C01AC21CC42ECA9FCC0ECE0ED099D6D1D80DEE04070409100B0825
:400240000D080F1017011D081F10220125082712310232013318350137043B084030410249FF4AFF4BFF4DA04F0450185608580459045A045B045C115D905F01604062C06A
:400280006440654066C068C06AC06CC06EC087058B0897029A04A502A602AB0CAD01AE01B004B101B201B302B402B508B704BF10C030C106C5D1C620C80BC9FFCAFFCBFF3E
:4002C000CDAFCE0FCF04D018D280D405D804D904DA04DB04DF01E040E2C0E440E540E6C0E8C0EAC0ECC0EEC00F0812801508174419081D081F1A205422802504278A29084B
:400300002F1A30043280370438503B043F28412845084D014F28552057105A805D015F8860037740801084048704914894019C029D80B004C240C4A8CA72CC4ACE6ED04603
:40034000D220D6D8D808E20AE401EA20040205010A02110116011E021F022F0133013401350236023E403F044030410649FF4AFF4BFF4DA04F0450185280580459045A04B4
:400380005B045C215D225F01604062C06440654066C068C06AC06CC06EC085048B0297049A029B03A101A601AA02B001B101B304B402B502BE10BF04C020C106C5D1C702A7
:4003C000C813C9FFCAFFCBFFCDAFCE0FCF04D018D405D804D904DA04DB04DC22DD22DF01E040E2C0E440E540E6C0E8C0EAC0ECC0EEC0040405D009100E020F2010201208AB
:4004000019021A081D401E04201023842530272829022F01302436033740380439203C0441304708482049014A084E08520859015A085B80774086048C10900491409680EE
:400440009804A984AF02C060C2A2C406CA11CC96CE46D044D224D60BE00200010F021001110115061D06210425012D01330135063601388039283F144045410346E047CB97
:40048000483849FF4AFF4BFF4EF04F44500C580459045A045C015D045F0166C06A406B02810287088B188D018E019301970C9E029F14A302A918AB04AF04B001B302B51CE7
:4004C000B602B701BB20BF44C063C105C9FFCAFFCBFFCDA0CF01D018D40FD804D904DA04DB04DC41DD11DF05E040E280E440E540E680E840EA80EC40ED20EE800302050188
:4005000008800E4018411F802204230A2418288029112A802C302D022E402F02300432803302344435013680370838413B183E803F404010444047084A0A4F405605571019
:400540005A885B126124781087048A028B048E40941C970499059A82A120A208A302A612C011C211CADDCCDBCE1FD0C2D21CD60FD806DE04E010000102020401059406023F
:4005800007600A070E081004140715FD170219CF1A041B301D9E1F6020072173270F29302BC931FF340F3F0140634105453E46C44720482F49FF4AFF4BFF4DAF4E074F0107
:4005C0005018580459045A045C015D015F016040628064406540668068406A806C406D206E8083208510870289208C06951697089B219C039D189F04A10EA405A518A70240
:40060000A806AB1EB320B501B607B71EB880BF04C006C740C9FFCA07CBFFCC40CD20CEF0CF05D008D280D804D904DA04DB04DC11DD14DF01E040E1A8E240E320008402843C
:400640000701081409010C40104017141A081B101F802080251026882701284029202A042B902D202FA0301432A033343690370438043C063D20401049054A0A4C0451202C
:40068000534256827401812187409404960897049B049D20A220A680A780C08FC28EC468CAE7CC7ECEE2D002D22CE202070F090C0B020D101330150B170419081B011D0C50
:4006C0001F0121073310350F37203F044051410649FF4AFF4BFF4DA04F01501859045A045C105D015F016040628064406540668068406A806C406D206E8080048402880850
:400700008E02920295029B03A004A209A404AF04B004B201B301B408B504B602B702B802BE51BF40C054C106C542C6C3C70EC81FC9FFCAFFCBFFCDAFCE07CF01D018D28010
:40074000D40FD804D904DA04DB04DC11DD11DF05E040E280E440E540E680E840EA80EC40ED20EE800098010103820B4010A0181019011A441B4020082208230225542620AC
:40078000270129012A022B022F80303032083522368037043C043DA042404602482049024A024B104E064F9050C051085210581059805A045B026108621073407B808D8428
:4007C0009484950197149B049D209F01A040A420A540A6A0AB20B201B308B510B701C00FC208C40CCA88CCF6CE70D011D23CD60FD806DE0100C5023A040E050106F0089626
:4008000009010A680D0415011904207F210124A3265C270228FE2A012B012E01310332FF330439083E04580459045C105F018107840185038602870C88028A018B108C0881
:400840008D10910A93059408950F98019A069B109C019E02A320A50CA608A703A905AB0AB208B320B403B50FB604B710BA20BE04BF40D40FD604D804D904DB04DC11DD10C5
:40088000DF01000401220280051007110E020F1411251232150819081D101E221F602080210422022320251026402714292A2D242F40302033043502372438843A103C0437
:4008C0003D813E013F105EA05F0966028202C0EEC2E0C42FCAE7CCE6CEFED6F0D880080C090C0A020B010D080E0F0F01100B110C1204130214081601170F180719071C0C24
:400900001E012D0B2F04310F320F4030410249FF4AFF4BFF4DA04F045018580459045A045C115D035F01604062C06440654066C068C06AC06CC06EC087018B0296029A0608
:40094000A501AB02AE01B002B201B404B502B701BF10C030C106C5D1C620C80BC9FFCAFFCBFFCDAFCE0FCF04D018D280D405D804D904DA04DB04DC33DD33DF01E040E2C043
:40098000E440E540E6C0E8C0EAC0ECC0EEC000100140080209080A060E100F04174018301D011E101F20208022012640270828022E102F2031183201381039403F244120B5
:4009C0004210430447044F25552057105E805F0977408010824084408D01914092049410968298029910A108AB10AE04AF10B002B10CC003C26FC480CA68CC07CE6CD046EB
:400A0000D220D6D0E006E641E8020008021008030C080E1013021410160818081A301C062405270128063218340735023620370138203A08540F5604580459045B045C1148
:400A40005D105F0183078507889E89018A608B028C308D048EC990FD920293049494950196609702987399079CCF9E30AB08AE0FB10FB4FFBE10D804D904DC10DF01001099
:400A800001400204040105100702080209080A060B010D280F0112021504160419201C011D181E042080210122022520270229202F10311832013702381039465C025D80C9
:400AC0005E045F206740874488408D4091409304968099809B20A602A710A910AB01C0D3C2EFC461CA44CC87CE0FD6F0D880E002E208EE0402010414060A081E09010C0A04
:400B00000E14110613081418150616061708180E1B101C011D061F182114220123082406261828012E012F0A30013301341E371E3B803E013F04401349FF4AFF4BFF4F01D4
:400B4000501854015604580459045A045B045C415D405F016040624064406540668068806A806C806E80800C81408203855089248B408F0C920394019531960E97449C016B
:400B80009D419E069F30A170A208A309AA0CAD02B00FB303B77CB908BA02C013C9FFCAFFCBFFCD83CE03CF01D018D804D904DA04DC44DF01E040E240E440E540E680E880FC
:400BC000EA80EC80EE800102044005120710080409800B400C200D881101131014151540168119021D101E401F10214023302580268429022A802D022E80300431803405A9
:400C00003680372039813A063B103F2042204340462047405C205E485F026780781079208022814087408A028C4093409404971098049A879D02A310A420A692AB80B51215
:400C4000B712C0F8C2EDC4FACA99CCFACE2FD05AD6F0D880E042E204E42000020204040406020D0218021A041C021E0523012E08300133023406350136083A203F0440130E
:400C800049FF4AFF4BFF4D834E034F015018580459045A045C115F016040624064406540668068806A806C806E8084C58502863A88FE8A018C968D028E689601987F9902EE
:400CC0009F01A304A4A3A502A65CA80EAAF0AB01AF02B506B6FFB701BE40BF40C013C5ECC620C80BC9FFCAFFCBFFCD83CE03CF01D018D280D401D804D904DA04DB04DC10F1
:400D0000DF01E040E240E440E540E680E880EA80EC80EE800004010204400590071009200A010C200E20100215201618180419021A011F8021202320265029022D802E202B
:400D40002F90375039803D803E0842204340462047404F0556205E805F0577408310854886108F20904091A09320940499109E209F50A022A508A610AC20B110B310B71257
:400D8000C0ECC263C461CAF1CC30CE58D05AD6D0E601EA20EC20338236483B808380CCF0CE10E62057085C02820883029780A648A702D440D680E2209780A640A708B002BE
:400DC0009780A640AF08EE40031007808780C00C9B1003080410864087409780A640C0C0E210E64056208E20A810AF08D440ECC06202831086029B10D802130279808302CE
:400E00008D40C408DC01E408101B1A0A1C1300FF01020000000040004C01A300010800004F10900042010000FF180000030100000000B30408260018043E00000C3C0002C1
:400E4000F3380C060F02001C7C208C010002AA000000001045060300020C0E0005FFFFFF62A0F0410C00000000000212040404044444000100000000000040020010301039
:400E8000001010120000000000000000000000000000000017010000000000001101070112010200007F7F0041000000408C8C00800000003C00000000000000008B8B0050
:400EC00080000000000A0A0002000000000000000000000000000000000000000000000000000000000000000000000000000000000000000000000000000000000000005C
:400F000000000000000000000000000000000000000000000000000000000000000000000000000000000000000000000000000000000000000000000000000000000000B1
:400F40000000000000000000000000000000000000000000000000000000000000000000000000000000000000000000000000000000000000000000000000000000000071
:400F80000000000000000000000000000000000000000000000000000000000000000000000000000000000000000000000000000000000000000000000000000000000031
:400FC00000000000000000000000000000000000000000000000000000000000000000000000000000000000000000000000000000000000000000000000000000000000F1
:0200000490006A
:0400000000004005B7
:0200000490105A
:04000000BC90ACAF55
:0200000490303A
:020000006B0E85
:0200000490402A
:4000000000000000000000000000000000000000000000000000000000000000000000000000000000000000000000000000000000000000000000000000000000000000C0
:400040000000000000000000000000000000000000000000000000000000000000000000000000000000000000000000000000000000000000000000000000000000000080
:400080000000000000000000000000000000000000000000000000000000000000000000000000000000000000000000000000000000000000000000000000000000000040
:4000C0000000000000000000000000000000000000000000000000000000000000000000000000000000000000000000000000000000000000000000000000000000000000
:0200000490501A
:0C00000000012E16106900012E3F7B77D6
:00000001FF